Component: ARM Compiler 5.06 update 6 (build 750) Tool: armlink [4d35ed]

==============================================================================

Section Cross References

    startup_stm32f446xx.o(RESET) refers to startup_stm32f446xx.o(STACK) for __initial_sp
    startup_stm32f446xx.o(RESET) refers to startup_stm32f446xx.o(.text) for Reset_Handler
    startup_stm32f446xx.o(RESET) refers to stm32f4xx_it.o(i.NMI_Handler) for NMI_Handler
    startup_stm32f446xx.o(RESET) refers to stm32f4xx_it.o(i.HardFault_Handler) for HardFault_Handler
    startup_stm32f446xx.o(RESET) refers to stm32f4xx_it.o(i.MemManage_Handler) for MemManage_Handler
    startup_stm32f446xx.o(RESET) refers to stm32f4xx_it.o(i.BusFault_Handler) for BusFault_Handler
    startup_stm32f446xx.o(RESET) refers to stm32f4xx_it.o(i.UsageFault_Handler) for UsageFault_Handler
    startup_stm32f446xx.o(RESET) refers to stm32f4xx_it.o(i.SVC_Handler) for SVC_Handler
    startup_stm32f446xx.o(RESET) refers to stm32f4xx_it.o(i.DebugMon_Handler) for DebugMon_Handler
    startup_stm32f446xx.o(RESET) refers to stm32f4xx_it.o(i.PendSV_Handler) for PendSV_Handler
    startup_stm32f446xx.o(RESET) refers to stm32f4xx_it.o(i.SysTick_Handler) for SysTick_Handler
    startup_stm32f446xx.o(RESET) refers to stm32f4xx_it.o(i.ADC_IRQHandler) for ADC_IRQHandler
    startup_stm32f446xx.o(RESET) refers to stm32f4xx_it.o(i.CAN1_RX0_IRQHandler) for CAN1_RX0_IRQHandler
    startup_stm32f446xx.o(RESET) refers to stm32f4xx_it.o(i.TIM1_BRK_TIM9_IRQHandler) for TIM1_BRK_TIM9_IRQHandler
    startup_stm32f446xx.o(RESET) refers to stm32f4xx_it.o(i.TIM1_UP_TIM10_IRQHandler) for TIM1_UP_TIM10_IRQHandler
    startup_stm32f446xx.o(RESET) refers to stm32f4xx_it.o(i.TIM1_TRG_COM_TIM11_IRQHandler) for TIM1_TRG_COM_TIM11_IRQHandler
    startup_stm32f446xx.o(RESET) refers to stm32f4xx_it.o(i.TIM2_IRQHandler) for TIM2_IRQHandler
    startup_stm32f446xx.o(RESET) refers to stm32f4xx_it.o(i.TIM3_IRQHandler) for TIM3_IRQHandler
==============================================================================

Removing Unused input sections from the image.

    Removing main.o(.rev16_text), (4 bytes).
    Removing main.o(.revsh_text), (4 bytes).
    Removing main.o(.rrx_text), (6 bytes).
    Removing main.o(.constdata), (1 bytes).
    Removing main.o(.data), (4 bytes).
    Removing main.o(.data), (2 bytes).
    Removing main.o(.data), (2 bytes).
    Removing main.o(.data), (2 bytes).
    Removing main.o(.data), (2 bytes).
    Removing main.o(.data), (2 bytes).
    Removing main.o(.data), (2 bytes).
    Removing main.o(.data), (2 bytes).
    Removing main.o(.data), (2 bytes).
    Removing main.o(.data), (2 bytes).
    Removing main.o(.data), (2 bytes).
    Removing main.o(.data), (2 bytes).
    Removing stm32f4xx_it.o(.rev16_text), (4 bytes).
    Removing stm32f4xx_it.o(.revsh_text), (4 bytes).
==============================================================================

Image Symbol Table

    Local Symbols

    Symbol Name                              Value     Ov Type        Size  Object(Section)

    ../Drivers/STM32F4xx_HAL_Driver/Src/stm32f4xx_hal.c 0x00000000   Number         0  stm32f4xx_hal.o ABSOLUTE
    ../Drivers/STM32F4xx_HAL_Driver/Src/stm32f4xx_hal_adc.c 0x00000000   Number         0  stm32f4xx_hal_adc.o ABSOLUTE
    ../Drivers/STM32F4xx_HAL_Driver/Src/stm32f4xx_hal_adc_ex.c 0x00000000   Number         0  stm32f4xx_hal_adc_ex.o ABSOLUTE
    ../Drivers/STM32F4xx_HAL_Driver/Src/stm32f4xx_hal_can.c 0x00000000   Number         0  stm32f4xx_hal_can.o ABSOLUTE
    ../Drivers/STM32F4xx_HAL_Driver/Src/stm32f4xx_hal_cortex.c 0x00000000   Number         0  stm32f4xx_hal_cortex.o ABSOLUTE
    ../Drivers/STM32F4xx_HAL_Driver/Src/stm32f4xx_hal_dma.c 0x00000000   Number         0  stm32f4xx_hal_dma.o ABSOLUTE
    ../Drivers/STM32F4xx_HAL_Driver/Src/stm32f4xx_hal_dma_ex.c 0x00000000   Number         0  stm32f4xx_hal_dma_ex.o ABSOLUTE
    ../Drivers/STM32F4xx_HAL_Driver/Src/stm32f4xx_hal_exti.c 0x00000000   Number         0  stm32f4xx_hal_exti.o ABSOLUTE
    ../Drivers/STM32F4xx_HAL_Driver/Src/stm32f4xx_hal_flash.c 0x00000000   Number         0  stm32f4xx_hal_flash.o ABSOLUTE
    ../Drivers/STM32F4xx_HAL_Driver/Src/stm32f4xx_hal_flash_ex.c 0x00000000   Number         0  stm32f4xx_hal_flash_ex.o ABSOLUTE
    ../Drivers/STM32F4xx_HAL_Driver/Src/stm32f4xx_hal_flash_ramfunc.c 0x00000000   Number         0  stm32f4xx_hal_flash_ramfunc.o ABSOLUTE
    ../Drivers/STM32F4xx_HAL_Driver/Src/stm32f4xx_hal_gpio.c 0x00000000   Number         0  stm32f4xx_hal_gpio.o ABSOLUTE
    ../Drivers/STM32F4xx_HAL_Driver/Src/stm32f4xx_hal_pwr.c 0x00000000   Number         0  stm32f4xx_hal_pwr.o ABSOLUTE
    ../Drivers/STM32F4xx_HAL_Driver/Src/stm32f4xx_hal_pwr_ex.c 0x00000000   Number         0  stm32f4xx_hal_pwr_ex.o ABSOLUTE
    ../Drivers/STM32F4xx_HAL_Driver/Src/stm32f4xx_hal_rcc.c 0x00000000   Number         0  stm32f4xx_hal_rcc.o ABSOLUTE
    ../Drivers/STM32F4xx_HAL_Driver/Src/stm32f4xx_hal_rcc_ex.c 0x00000000   Number         0  stm32f4xx_hal_rcc_ex.o ABSOLUTE
    ../Drivers/STM32F4xx_HAL_Driver/Src/stm32f4xx_hal_spi.c 0x00000000   Number         0  stm32f4xx_hal_spi.o ABSOLUTE
    ../Drivers/STM32F4xx_HAL_Driver/Src/stm32f4xx_hal_tim.c 0x00000000   Number         0  stm32f4xx_hal_tim.o ABSOLUTE
    ../Drivers/STM32F4xx_HAL_Driver/Src/stm32f4xx_hal_tim_ex.c 0x00000000   Number         0  stm32f4xx_hal_tim_ex.o ABSOLUTE
    ../Src/main.c                            0x00000000   Number         0  main.o ABSOLUTE
    ../Src/stm32f4xx_hal_msp.c               0x00000000   Number         0  stm32f4xx_hal_msp.o ABSOLUTE
    ../Src/stm32f4xx_it.c                    0x00000000   Number         0  stm32f4xx_it.o ABSOLUTE
    ../Src/system_stm32f4xx.c                0x00000000   Number         0  system_stm32f4xx.o ABSOLUTE
    ../clib/microlib/division.c              0x00000000   Number         0  uldiv.o ABSOLUTE
    ../clib/microlib/errno.c                 0x00000000   Number         0  errno.o ABSOLUTE
    ../clib/microlib/init/entry.s            0x00000000   Number         0  entry8a.o ABSOLUTE
    ../clib/microlib/init/entry.s            0x00000000   Number         0  entry8b.o ABSOLUTE
    ../clib/microlib/init/entry.s            0x00000000   Number         0  entry9a.o ABSOLUTE
    ../clib/microlib/init/entry.s            0x00000000   Number         0  entry9b.o ABSOLUTE
    ../clib/microlib/init/entry.s            0x00000000   Number         0  entry.o ABSOLUTE
    ../clib/microlib/init/entry.s            0x00000000   Number         0  entry10b.o ABSOLUTE
    ../clib/microlib/init/entry.s            0x00000000   Number         0  entry11b.o ABSOLUTE
    ../clib/microlib/init/entry.s            0x00000000   Number         0  entry11a.o ABSOLUTE
    ../clib/microlib/init/entry.s            0x00000000   Number         0  entry7b.o ABSOLUTE
    ../clib/microlib/init/entry.s            0x00000000   Number         0  entry7a.o ABSOLUTE
    ../clib/microlib/init/entry.s            0x00000000   Number         0  entry5.o ABSOLUTE
    ../clib/microlib/init/entry.s            0x00000000   Number         0  entry2.o ABSOLUTE
    ../clib/microlib/init/entry.s            0x00000000   Number         0  entry10a.o ABSOLUTE
    ../clib/microlib/longlong.c              0x00000000   Number         0  llshl.o ABSOLUTE
    ../clib/microlib/longlong.c              0x00000000   Number         0  llsshr.o ABSOLUTE
    ../clib/microlib/longlong.c              0x00000000   Number         0  llushr.o ABSOLUTE
    ../clib/microlib/malloc/malloc.c         0x00000000   Number         0  mallocra.o ABSOLUTE
    ../clib/microlib/malloc/malloc.c         0x00000000   Number         0  malloca.o ABSOLUTE
    ../clib/microlib/malloc/malloc.c         0x00000000   Number         0  mallocr.o ABSOLUTE
    ../clib/microlib/malloc/malloc.c         0x00000000   Number         0  malloc.o ABSOLUTE
    ../clib/microlib/malloc/mvars.c          0x00000000   Number         0  mvars.o ABSOLUTE
    ../clib/microlib/string/memcpy.c         0x00000000   Number         0  memcpyb.o ABSOLUTE
    ../clib/microlib/string/memcpy.c         0x00000000   Number         0  memcpya.o ABSOLUTE
    ../clib/microlib/string/memset.c         0x00000000   Number         0  memseta.o ABSOLUTE
    ../clib/microlib/stubs.s                 0x00000000   Number         0  iusefp.o ABSOLUTE
    ../fplib/microlib/d2f.c                  0x00000000   Number         0  d2f.o ABSOLUTE
    ../fplib/microlib/f2d.c                  0x00000000   Number         0  f2d.o ABSOLUTE
    ../fplib/microlib/fpadd.c                0x00000000   Number         0  dadd.o ABSOLUTE
    ../fplib/microlib/fpdiv.c                0x00000000   Number         0  ddiv.o ABSOLUTE
    ../fplib/microlib/fpepilogue.c           0x00000000   Number         0  fepilogue.o ABSOLUTE
    ../fplib/microlib/fpepilogue.c           0x00000000   Number         0  depilogue.o ABSOLUTE
    ../fplib/microlib/fpflt.c                0x00000000   Number         0  dfltui.o ABSOLUTE
    ../fplib/microlib/fpflt.c                0x00000000   Number         0  dflti.o ABSOLUTE
    ../fplib/microlib/fpmul.c                0x00000000   Number         0  dmul.o ABSOLUTE
    ../fplib/microlib/fpneg.c                0x00000000   Number         0  dneg.o ABSOLUTE
    ../fplib/microlib/fpscalb.c              0x00000000   Number         0  dscalb.o ABSOLUTE
    ../fplib/microlib/fpsqrt.c               0x00000000   Number         0  dsqrt.o ABSOLUTE
    ../mathlib/dunder.c                      0x00000000   Number         0  dunder.o ABSOLUTE
    ../mathlib/fabs.c                        0x00000000   Number         0  fabs.o ABSOLUTE
    ../mathlib/fpclassify.c                  0x00000000   Number         0  fpclassify.o ABSOLUTE
    ../mathlib/log.c                         0x00000000   Number         0  log_x.o ABSOLUTE
    ../mathlib/log.c                         0x00000000   Number         0  log.o ABSOLUTE
    ../mathlib/poly.c                        0x00000000   Number         0  poly.o ABSOLUTE
    ../mathlib/pow.c                         0x00000000   Number         0  pow.o ABSOLUTE
    ../mathlib/pow.c                         0x00000000   Number         0  pow_x.o ABSOLUTE
    ../mathlib/qnan.c                        0x00000000   Number         0  qnan.o ABSOLUTE
    ../mathlib/sqrt.c                        0x00000000   Number         0  sqrt.o ABSOLUTE
    ../mathlib/sqrt.c                        0x00000000   Number         0  sqrt_x.o ABSOLUTE
    ..\Drivers\STM32F4xx_HAL_Driver\Src\stm32f4xx_hal.c 0x00000000   Number         0  stm32f4xx_hal.o ABSOLUTE
    ..\Drivers\STM32F4xx_HAL_Driver\Src\stm32f4xx_hal_adc.c 0x00000000   Number         0  stm32f4xx_hal_adc.o ABSOLUTE
    ..\Drivers\STM32F4xx_HAL_Driver\Src\stm32f4xx_hal_adc_ex.c 0x00000000   Number         0  stm32f4xx_hal_adc_ex.o ABSOLUTE
    ..\Drivers\STM32F4xx_HAL_Driver\Src\stm32f4xx_hal_can.c 0x00000000   Number         0  stm32f4xx_hal_can.o ABSOLUTE
    ..\Drivers\STM32F4xx_HAL_Driver\Src\stm32f4xx_hal_cortex.c 0x00000000   Number         0  stm32f4xx_hal_cortex.o ABSOLUTE
    ..\Drivers\STM32F4xx_HAL_Driver\Src\stm32f4xx_hal_dma.c 0x00000000   Number         0  stm32f4xx_hal_dma.o ABSOLUTE
    ..\Drivers\STM32F4xx_HAL_Driver\Src\stm32f4xx_hal_dma_ex.c 0x00000000   Number         0  stm32f4xx_hal_dma_ex.o ABSOLUTE
    ..\Drivers\STM32F4xx_HAL_Driver\Src\stm32f4xx_hal_exti.c 0x00000000   Number         0  stm32f4xx_hal_exti.o ABSOLUTE
    ..\Drivers\STM32F4xx_HAL_Driver\Src\stm32f4xx_hal_flash.c 0x00000000   Number         0  stm32f4xx_hal_flash.o ABSOLUTE
    ..\Drivers\STM32F4xx_HAL_Driver\Src\stm32f4xx_hal_flash_ex.c 0x00000000   Number         0  stm32f4xx_hal_flash_ex.o ABSOLUTE
    ..\Drivers\STM32F4xx_HAL_Driver\Src\stm32f4xx_hal_flash_ramfunc.c 0x00000000   Number         0  stm32f4xx_hal_flash_ramfunc.o ABSOLUTE
    ..\Drivers\STM32F4xx_HAL_Driver\Src\stm32f4xx_hal_gpio.c 0x00000000   Number         0  stm32f4xx_hal_gpio.o ABSOLUTE
    ..\Drivers\STM32F4xx_HAL_Driver\Src\stm32f4xx_hal_pwr.c 0x00000000   Number         0  stm32f4xx_hal_pwr.o ABSOLUTE
    ..\Drivers\STM32F4xx_HAL_Driver\Src\stm32f4xx_hal_pwr_ex.c 0x00000000   Number         0  stm32f4xx_hal_pwr_ex.o ABSOLUTE
    ..\Drivers\STM32F4xx_HAL_Driver\Src\stm32f4xx_hal_rcc.c 0x00000000   Number         0  stm32f4xx_hal_rcc.o ABSOLUTE
    ..\Drivers\STM32F4xx_HAL_Driver\Src\stm32f4xx_hal_rcc_ex.c 0x00000000   Number         0  stm32f4xx_hal_rcc_ex.o ABSOLUTE
    ..\Drivers\STM32F4xx_HAL_Driver\Src\stm32f4xx_hal_spi.c 0x00000000   Number         0  stm32f4xx_hal_spi.o ABSOLUTE
    ..\Drivers\STM32F4xx_HAL_Driver\Src\stm32f4xx_hal_tim.c 0x00000000   Number         0  stm32f4xx_hal_tim.o ABSOLUTE
    ..\Drivers\STM32F4xx_HAL_Driver\Src\stm32f4xx_hal_tim_ex.c 0x00000000   Number         0  stm32f4xx_hal_tim_ex.o ABSOLUTE
    ..\Src\LTC6811.c                         0x00000000   Number         0  ltc6811.o ABSOLUTE
    ..\Src\LTC681x.c                         0x00000000   Number         0  ltc681x.o ABSOLUTE
    ..\Src\LT_SPI.c                          0x00000000   Number         0  lt_spi.o ABSOLUTE
    ..\Src\main.c                            0x00000000   Number         0  main.o ABSOLUTE
    ..\Src\stm32f4xx_hal_msp.c               0x00000000   Number         0  stm32f4xx_hal_msp.o ABSOLUTE
    ..\Src\stm32f4xx_it.c                    0x00000000   Number         0  stm32f4xx_it.o ABSOLUTE
    ..\Src\system_stm32f4xx.c                0x00000000   Number         0  system_stm32f4xx.o ABSOLUTE
    ..\\Src\\LTC681x.c                       0x00000000   Number         0  ltc681x.o ABSOLUTE
    ..\\Src\\LT_SPI.c                        0x00000000   Number         0  lt_spi.o ABSOLUTE
    cdcmple.s                                0x00000000   Number         0  cdcmple.o ABSOLUTE
    cdrcmple.s                               0x00000000   Number         0  cdrcmple.o ABSOLUTE
    dc.s                                     0x00000000   Number         0  dc.o ABSOLUTE
    handlers.s                               0x00000000   Number         0  handlers.o ABSOLUTE
    init.s                                   0x00000000   Number         0  init.o ABSOLUTE
    startup_stm32f446xx.s                    0x00000000   Number         0  startup_stm32f446xx.o ABSOLUTE
    RESET                                    0x08000000   Section      452  startup_stm32f446xx.o(RESET)
    .ARM.Collect$$$$00000000                 0x080001c4   Section        0  entry.o(.ARM.Collect$$$$00000000)
    .ARM.Collect$$$$00000001                 0x080001c4   Section        4  entry2.o(.ARM.Collect$$$$00000001)
    .ARM.Collect$$$$00000004                 0x080001c8   Section        4  entry5.o(.ARM.Collect$$$$00000004)
    .ARM.Collect$$$$00000008                 0x080001cc   Section        0  entry7b.o(.ARM.Collect$$$$00000008)
    .ARM.Collect$$$$0000000A                 0x080001cc   Section        0  entry8b.o(.ARM.Collect$$$$0000000A)
    .ARM.Collect$$$$0000000B                 0x080001cc   Section        8  entry9a.o(.ARM.Collect$$$$0000000B)
    .ARM.Collect$$$$0000000D                 0x080001d4   Section        0  entry10a.o(.ARM.Collect$$$$0000000D)
    .ARM.Collect$$$$0000000F                 0x080001d4   Section        0  entry11a.o(.ARM.Collect$$$$0000000F)
    .ARM.Collect$$$$00002712                 0x080001d4   Section        4  entry2.o(.ARM.Collect$$$$00002712)
    __lit__00000000                          0x080001d4   Data           4  entry2.o(.ARM.Collect$$$$00002712)
    .text                                    0x080001d8   Section       36  startup_stm32f446xx.o(.text)
    $v0                                      0x080001d8   Number         0  startup_stm32f446xx.o(.text)
    .text                                    0x080001fc   Section        0  uldiv.o(.text)
    .text                                    0x0800025e   Section        0  memseta.o(.text)
    .text                                    0x08000282   Section        0  dadd.o(.text)
    .text                                    0x080003d0   Section        0  dmul.o(.text)
    .text                                    0x080004b4   Section        0  ddiv.o(.text)
    .text                                    0x08000592   Section        0  dfltui.o(.text)
    .text                                    0x080005ac   Section        0  f2d.o(.text)
    .text                                    0x080005d4   Section       48  cdcmple.o(.text)
    .text                                    0x08000604   Section       48  cdrcmple.o(.text)
    .text                                    0x08000634   Section        0  d2f.o(.text)
    .text                                    0x0800066c   Section        0  llshl.o(.text)
    .text                                    0x0800068a   Section        0  llushr.o(.text)
    .text                                    0x080006aa   Section        0  llsshr.o(.text)
    .text                                    0x080006ce   Section        0  fepilogue.o(.text)
    .text                                    0x080006ce   Section        0  iusefp.o(.text)
    .text                                    0x0800073c   Section        0  depilogue.o(.text)
    .text                                    0x080007f6   Section        0  dscalb.o(.text)
    .text                                    0x08000824   Section        0  dflti.o(.text)
    .text                                    0x08000848   Section       36  init.o(.text)
    .text                                    0x0800086c   Section        0  dsqrt.o(.text)
    i.ADC_DMAConvCplt                        0x0800090e   Section        0  stm32f4xx_hal_adc.o(i.ADC_DMAConvCplt)
    ADC_DMAConvCplt                          0x0800090f   Thumb Code   110  stm32f4xx_hal_adc.o(i.ADC_DMAConvCplt)
    i.ADC_DMAError                           0x0800097c   Section        0  stm32f4xx_hal_adc.o(i.ADC_DMAError)
    ADC_DMAError                             0x0800097d   Thumb Code    22  stm32f4xx_hal_adc.o(i.ADC_DMAError)
    i.ADC_DMAHalfConvCplt                    0x08000992   Section        0  stm32f4xx_hal_adc.o(i.ADC_DMAHalfConvCplt)
    ADC_DMAHalfConvCplt                      0x08000993   Thumb Code    10  stm32f4xx_hal_adc.o(i.ADC_DMAHalfConvCplt)
    i.ADC_IRQHandler                         0x0800099c   Section        0  stm32f4xx_it.o(i.ADC_IRQHandler)
    i.ADC_Init                               0x080009c0   Section        0  stm32f4xx_hal_adc.o(i.ADC_Init)
    ADC_Init                                 0x080009c1   Thumb Code   284  stm32f4xx_hal_adc.o(i.ADC_Init)
    i.BusFault_Handler                       0x08000ae8   Section        0  stm32f4xx_it.o(i.BusFault_Handler)
    i.CAN1_RX0_IRQHandler                    0x08000aec   Section        0  stm32f4xx_it.o(i.CAN1_RX0_IRQHandler)
    i.CanFilterConfig                        0x08000af8   Section        0  main.o(i.CanFilterConfig)
    i.DMA2_Stream0_IRQHandler                0x08000b28   Section        0  stm32f4xx_it.o(i.DMA2_Stream0_IRQHandler)
    i.DMA2_Stream2_IRQHandler                0x08000b34   Section        0  stm32f4xx_it.o(i.DMA2_Stream2_IRQHandler)
    i.DMA_CalcBaseAndBitshift                0x08000b40   Section        0  stm32f4xx_hal_dma.o(i.DMA_CalcBaseAndBitshift)
    DMA_CalcBaseAndBitshift                  0x08000b41   Thumb Code    34  stm32f4xx_hal_dma.o(i.DMA_CalcBaseAndBitshift)
    i.DMA_CheckFifoParam                     0x08000b68   Section        0  stm32f4xx_hal_dma.o(i.DMA_CheckFifoParam)
    DMA_CheckFifoParam                       0x08000b69   Thumb Code    84  stm32f4xx_hal_dma.o(i.DMA_CheckFifoParam)
    i.DMA_SetConfig                          0x08000bbc   Section        0  stm32f4xx_hal_dma.o(i.DMA_SetConfig)
    DMA_SetConfig                            0x08000bbd   Thumb Code    40  stm32f4xx_hal_dma.o(i.DMA_SetConfig)
    i.DebugMon_Handler                       0x08000be4   Section        0  stm32f4xx_it.o(i.DebugMon_Handler)
    i.Error_Handler                          0x08000be6   Section        0  main.o(i.Error_Handler)
    i.HAL_ADCEx_InjectedConvCpltCallback     0x08000be8   Section        0  stm32f4xx_hal_adc_ex.o(i.HAL_ADCEx_InjectedConvCpltCallback)
    i.HAL_ADC_ConfigChannel                  0x08000bec   Section        0  stm32f4xx_hal_adc.o(i.HAL_ADC_ConfigChannel)
    i.HAL_ADC_ConvCpltCallback               0x08000d50   Section        0  main.o(i.HAL_ADC_ConvCpltCallback)
    i.HAL_ADC_ConvHalfCpltCallback           0x08000dd0   Section        0  stm32f4xx_hal_adc.o(i.HAL_ADC_ConvHalfCpltCallback)
    i.HAL_ADC_ErrorCallback                  0x08000dd2   Section        0  stm32f4xx_hal_adc.o(i.HAL_ADC_ErrorCallback)
    i.HAL_ADC_GetValue                       0x08000dd4   Section        0  stm32f4xx_hal_adc.o(i.HAL_ADC_GetValue)
    i.HAL_ADC_IRQHandler                     0x08000dda   Section        0  stm32f4xx_hal_adc.o(i.HAL_ADC_IRQHandler)
    i.HAL_ADC_Init                           0x08000f16   Section        0  stm32f4xx_hal_adc.o(i.HAL_ADC_Init)
    i.HAL_ADC_LevelOutOfWindowCallback       0x08000f6a   Section        0  stm32f4xx_hal_adc.o(i.HAL_ADC_LevelOutOfWindowCallback)
    i.HAL_ADC_MspInit                        0x08000f6c   Section        0  stm32f4xx_hal_msp.o(i.HAL_ADC_MspInit)
    i.HAL_ADC_Start_DMA                      0x080010e4   Section        0  stm32f4xx_hal_adc.o(i.HAL_ADC_Start_DMA)
    i.HAL_ADC_Start_IT                       0x08001214   Section        0  stm32f4xx_hal_adc.o(i.HAL_ADC_Start_IT)
    i.HAL_CAN_ActivateNotification           0x0800130c   Section        0  stm32f4xx_hal_can.o(i.HAL_CAN_ActivateNotification)
    i.HAL_CAN_AddTxMessage                   0x08001330   Section        0  stm32f4xx_hal_can.o(i.HAL_CAN_AddTxMessage)
    i.HAL_CAN_ConfigFilter                   0x080013f8   Section        0  stm32f4xx_hal_can.o(i.HAL_CAN_ConfigFilter)
    i.HAL_CAN_ErrorCallback                  0x08001504   Section        0  stm32f4xx_hal_can.o(i.HAL_CAN_ErrorCallback)
    i.HAL_CAN_GetRxMessage                   0x08001506   Section        0  stm32f4xx_hal_can.o(i.HAL_CAN_GetRxMessage)
    i.HAL_CAN_IRQHandler                     0x080015ee   Section        0  stm32f4xx_hal_can.o(i.HAL_CAN_IRQHandler)
    i.HAL_CAN_Init                           0x080017ea   Section        0  stm32f4xx_hal_can.o(i.HAL_CAN_Init)
    i.HAL_CAN_IsTxMessagePending             0x08001904   Section        0  stm32f4xx_hal_can.o(i.HAL_CAN_IsTxMessagePending)
    i.HAL_CAN_MspInit                        0x08001924   Section        0  stm32f4xx_hal_msp.o(i.HAL_CAN_MspInit)
    i.HAL_CAN_RxFifo0FullCallback            0x080019a0   Section        0  stm32f4xx_hal_can.o(i.HAL_CAN_RxFifo0FullCallback)
    i.HAL_CAN_RxFifo0MsgPendingCallback      0x080019a4   Section        0  main.o(i.HAL_CAN_RxFifo0MsgPendingCallback)
    i.HAL_CAN_RxFifo1FullCallback            0x08001a28   Section        0  stm32f4xx_hal_can.o(i.HAL_CAN_RxFifo1FullCallback)
    i.HAL_CAN_RxFifo1MsgPendingCallback      0x08001a2a   Section        0  stm32f4xx_hal_can.o(i.HAL_CAN_RxFifo1MsgPendingCallback)
    i.HAL_CAN_SleepCallback                  0x08001a2c   Section        0  stm32f4xx_hal_can.o(i.HAL_CAN_SleepCallback)
    i.HAL_CAN_Start                          0x08001a30   Section        0  stm32f4xx_hal_can.o(i.HAL_CAN_Start)
    i.HAL_CAN_TxMailbox0AbortCallback        0x08001a88   Section        0  stm32f4xx_hal_can.o(i.HAL_CAN_TxMailbox0AbortCallback)
    i.HAL_CAN_TxMailbox0CompleteCallback     0x08001a8a   Section        0  stm32f4xx_hal_can.o(i.HAL_CAN_TxMailbox0CompleteCallback)
    i.HAL_CAN_TxMailbox1AbortCallback        0x08001a8c   Section        0  stm32f4xx_hal_can.o(i.HAL_CAN_TxMailbox1AbortCallback)
    i.HAL_CAN_TxMailbox1CompleteCallback     0x08001a8e   Section        0  stm32f4xx_hal_can.o(i.HAL_CAN_TxMailbox1CompleteCallback)
    i.HAL_CAN_TxMailbox2AbortCallback        0x08001a90   Section        0  stm32f4xx_hal_can.o(i.HAL_CAN_TxMailbox2AbortCallback)
    i.HAL_CAN_TxMailbox2CompleteCallback     0x08001a92   Section        0  stm32f4xx_hal_can.o(i.HAL_CAN_TxMailbox2CompleteCallback)
    i.HAL_CAN_WakeUpFromRxMsgCallback        0x08001a94   Section        0  stm32f4xx_hal_can.o(i.HAL_CAN_WakeUpFromRxMsgCallback)
    i.HAL_DMA_IRQHandler                     0x08001a98   Section        0  stm32f4xx_hal_dma.o(i.HAL_DMA_IRQHandler)
    i.HAL_DMA_Init                           0x08001c38   Section        0  stm32f4xx_hal_dma.o(i.HAL_DMA_Init)
    i.HAL_DMA_Start_IT                       0x08001d0c   Section        0  stm32f4xx_hal_dma.o(i.HAL_DMA_Start_IT)
    i.HAL_Delay                              0x08001d84   Section        0  stm32f4xx_hal.o(i.HAL_Delay)
    i.HAL_GPIO_Init                          0x08001da8   Section        0  stm32f4xx_hal_gpio.o(i.HAL_GPIO_Init)
    i.HAL_GPIO_ReadPin                       0x08001f4c   Section        0  stm32f4xx_hal_gpio.o(i.HAL_GPIO_ReadPin)
    i.HAL_GPIO_WritePin                      0x08001f56   Section        0  stm32f4xx_hal_gpio.o(i.HAL_GPIO_WritePin)
    i.HAL_GetTick                            0x08001f60   Section        0  stm32f4xx_hal.o(i.HAL_GetTick)
    i.HAL_IncTick                            0x08001f6c   Section        0  stm32f4xx_hal.o(i.HAL_IncTick)
    i.HAL_Init                               0x08001f7c   Section        0  stm32f4xx_hal.o(i.HAL_Init)
    i.HAL_InitTick                           0x08001fb0   Section        0  stm32f4xx_hal.o(i.HAL_InitTick)
    i.HAL_MspInit                            0x08001ff0   Section        0  stm32f4xx_hal_msp.o(i.HAL_MspInit)
    i.HAL_NVIC_EnableIRQ                     0x08002024   Section        0  stm32f4xx_hal_cortex.o(i.HAL_NVIC_EnableIRQ)
    i.HAL_NVIC_SetPriority                   0x08002040   Section        0  stm32f4xx_hal_cortex.o(i.HAL_NVIC_SetPriority)
    i.HAL_NVIC_SetPriorityGrouping           0x08002080   Section        0  stm32f4xx_hal_cortex.o(i.HAL_NVIC_SetPriorityGrouping)
    i.HAL_NVIC_SystemReset                   0x080020a4   Section        0  stm32f4xx_hal_cortex.o(i.HAL_NVIC_SystemReset)
    i.HAL_RCC_ClockConfig                    0x080020c8   Section        0  stm32f4xx_hal_rcc.o(i.HAL_RCC_ClockConfig)
    i.HAL_RCC_GetSysClockFreq                0x080021f8   Section        0  stm32f4xx_hal_rcc_ex.o(i.HAL_RCC_GetSysClockFreq)
    i.HAL_RCC_OscConfig                      0x0800228c   Section        0  stm32f4xx_hal_rcc_ex.o(i.HAL_RCC_OscConfig)
    i.HAL_SPI_Init                           0x080025d0   Section        0  stm32f4xx_hal_spi.o(i.HAL_SPI_Init)
    i.HAL_SPI_MspInit                        0x08002650   Section        0  stm32f4xx_hal_msp.o(i.HAL_SPI_MspInit)
    i.HAL_SPI_TransmitReceive                0x080026b8   Section        0  stm32f4xx_hal_spi.o(i.HAL_SPI_TransmitReceive)
    i.HAL_SYSTICK_Config                     0x0800289a   Section        0  stm32f4xx_hal_cortex.o(i.HAL_SYSTICK_Config)
    i.HAL_TIMEx_BreakCallback                0x080028c2   Section        0  stm32f4xx_hal_tim_ex.o(i.HAL_TIMEx_BreakCallback)
    i.HAL_TIMEx_CommutCallback               0x080028c4   Section        0  stm32f4xx_hal_tim_ex.o(i.HAL_TIMEx_CommutCallback)
    i.HAL_TIMEx_MasterConfigSynchronization  0x080028c6   Section        0  stm32f4xx_hal_tim_ex.o(i.HAL_TIMEx_MasterConfigSynchronization)
    i.HAL_TIM_Base_Init                      0x08002908   Section        0  stm32f4xx_hal_tim.o(i.HAL_TIM_Base_Init)
    i.HAL_TIM_Base_MspInit                   0x08002940   Section        0  stm32f4xx_hal_msp.o(i.HAL_TIM_Base_MspInit)
    i.HAL_TIM_Base_Start                     0x08002a84   Section        0  stm32f4xx_hal_tim.o(i.HAL_TIM_Base_Start)
    i.HAL_TIM_Base_Start_IT                  0x08002aa8   Section        0  stm32f4xx_hal_tim.o(i.HAL_TIM_Base_Start_IT)
    i.HAL_TIM_Base_Stop_IT                   0x08002aca   Section        0  stm32f4xx_hal_tim.o(i.HAL_TIM_Base_Stop_IT)
    i.HAL_TIM_ConfigClockSource              0x08002af4   Section        0  stm32f4xx_hal_tim.o(i.HAL_TIM_ConfigClockSource)
    i.HAL_TIM_IC_CaptureCallback             0x08002bca   Section        0  stm32f4xx_hal_tim.o(i.HAL_TIM_IC_CaptureCallback)
    i.HAL_TIM_IRQHandler                     0x08002bcc   Section        0  stm32f4xx_hal_tim.o(i.HAL_TIM_IRQHandler)
    i.HAL_TIM_OC_DelayElapsedCallback        0x08002d32   Section        0  stm32f4xx_hal_tim.o(i.HAL_TIM_OC_DelayElapsedCallback)
    i.HAL_TIM_PWM_PulseFinishedCallback      0x08002d34   Section        0  stm32f4xx_hal_tim.o(i.HAL_TIM_PWM_PulseFinishedCallback)
    i.HAL_TIM_PeriodElapsedCallback          0x08002d38   Section        0  main.o(i.HAL_TIM_PeriodElapsedCallback)
    i.HAL_TIM_TriggerCallback                0x08002e70   Section        0  stm32f4xx_hal_tim.o(i.HAL_TIM_TriggerCallback)
    i.HardFault_Handler                      0x08002e72   Section        0  stm32f4xx_it.o(i.HardFault_Handler)
    i.LTC6811_Initialize                     0x08002e74   Section        0  lt_spi.o(i.LTC6811_Initialize)
    i.LTC6811_adax                           0x08002eac   Section        0  ltc6811.o(i.LTC6811_adax)
    i.LTC6811_adcv                           0x08002eb0   Section        0  ltc6811.o(i.LTC6811_adcv)
    i.LTC6811_init                           0x08002eb4   Section        0  main.o(i.LTC6811_init)
    i.LTC6811_init_cfg                       0x08002f18   Section        0  ltc6811.o(i.LTC6811_init_cfg)
    i.LTC6811_init_reg_limits                0x08002f1c   Section        0  ltc6811.o(i.LTC6811_init_reg_limits)
    i.LTC6811_rdaux                          0x08002f52   Section        0  ltc6811.o(i.LTC6811_rdaux)
    i.LTC6811_rdcv                           0x08002f56   Section        0  ltc6811.o(i.LTC6811_rdcv)
    i.LTC6811_reset_crc_count                0x08002f60   Section        0  ltc6811.o(i.LTC6811_reset_crc_count)
    i.LTC6811_set_cfgr                       0x08002f64   Section        0  ltc6811.o(i.LTC6811_set_cfgr)
    i.LTC6811_wrcfg                          0x08002f98   Section        0  ltc6811.o(i.LTC6811_wrcfg)
    i.LTC681x_adax                           0x08002f9c   Section        0  ltc681x.o(i.LTC681x_adax)
    i.LTC681x_adcv                           0x08002fba   Section        0  ltc681x.o(i.LTC681x_adcv)
    i.LTC681x_check_pec                      0x08002fdc   Section        0  ltc681x.o(i.LTC681x_check_pec)
    i.LTC681x_init_cfg                       0x08003100   Section        0  ltc681x.o(i.LTC681x_init_cfg)
    i.LTC681x_rdaux                          0x0800316c   Section        0  ltc681x.o(i.LTC681x_rdaux)
    i.LTC681x_rdaux_reg                      0x08003230   Section        0  ltc681x.o(i.LTC681x_rdaux_reg)
    i.LTC681x_rdcv                           0x0800328c   Section        0  ltc681x.o(i.LTC681x_rdcv)
    i.LTC681x_rdcv_reg                       0x08003358   Section        0  ltc681x.o(i.LTC681x_rdcv_reg)
    i.LTC681x_reset_crc_count                0x080033c4   Section        0  ltc681x.o(i.LTC681x_reset_crc_count)
    i.LTC681x_set_cfgr                       0x08003416   Section        0  ltc681x.o(i.LTC681x_set_cfgr)
    i.LTC681x_set_cfgr_adcopt                0x08003446   Section        0  ltc681x.o(i.LTC681x_set_cfgr_adcopt)
    i.LTC681x_set_cfgr_dis                   0x08003460   Section        0  ltc681x.o(i.LTC681x_set_cfgr_dis)
    i.LTC681x_set_cfgr_gpio                  0x080034a8   Section        0  ltc681x.o(i.LTC681x_set_cfgr_gpio)
    i.LTC681x_set_cfgr_refon                 0x080034d6   Section        0  ltc681x.o(i.LTC681x_set_cfgr_refon)
    i.LTC681x_wrcfg                          0x080034f0   Section        0  ltc681x.o(i.LTC681x_wrcfg)
    i.MX_ADC1_Init                           0x08003548   Section        0  main.o(i.MX_ADC1_Init)
    MX_ADC1_Init                             0x08003549   Thumb Code   132  main.o(i.MX_ADC1_Init)
    i.MX_ADC2_Init                           0x080035d8   Section        0  main.o(i.MX_ADC2_Init)
    MX_ADC2_Init                             0x080035d9   Thumb Code   152  main.o(i.MX_ADC2_Init)
    i.MX_ADC3_Init                           0x08003678   Section        0  main.o(i.MX_ADC3_Init)
    MX_ADC3_Init                             0x08003679   Thumb Code    74  main.o(i.MX_ADC3_Init)
    i.MX_CAN1_Init                           0x080036cc   Section        0  main.o(i.MX_CAN1_Init)
    MX_CAN1_Init                             0x080036cd   Thumb Code    40  main.o(i.MX_CAN1_Init)
    i.MX_GPIO_Init                           0x080036fc   Section        0  main.o(i.MX_GPIO_Init)
    MX_GPIO_Init                             0x080036fd   Thumb Code   152  main.o(i.MX_GPIO_Init)
    i.MX_TIM2_Init                           0x080037a0   Section        0  main.o(i.MX_TIM2_Init)
    MX_TIM2_Init                             0x080037a1   Thumb Code    80  main.o(i.MX_TIM2_Init)
    i.MX_TIM3_Init                           0x080037f4   Section        0  main.o(i.MX_TIM3_Init)
    MX_TIM3_Init                             0x080037f5   Thumb Code    78  main.o(i.MX_TIM3_Init)
    i.MX_TIM8_Init                           0x0800384c   Section        0  main.o(i.MX_TIM8_Init)
    MX_TIM8_Init                             0x0800384d   Thumb Code    78  main.o(i.MX_TIM8_Init)
    i.MemManage_Handler                      0x080038a4   Section        0  stm32f4xx_it.o(i.MemManage_Handler)
    i.NMI_Handler                            0x080038a6   Section        0  stm32f4xx_it.o(i.NMI_Handler)
    i.PendSV_Handler                         0x080038a8   Section        0  stm32f4xx_it.o(i.PendSV_Handler)
    i.SPI_EndRxTxTransaction                 0x080038ac   Section        0  stm32f4xx_hal_spi.o(i.SPI_EndRxTxTransaction)
    SPI_EndRxTxTransaction                   0x080038ad   Thumb Code    80  stm32f4xx_hal_spi.o(i.SPI_EndRxTxTransaction)
    i.SPI_WaitFlagStateUntilTimeout          0x08003904   Section        0  stm32f4xx_hal_spi.o(i.SPI_WaitFlagStateUntilTimeout)
    SPI_WaitFlagStateUntilTimeout            0x08003905   Thumb Code   148  stm32f4xx_hal_spi.o(i.SPI_WaitFlagStateUntilTimeout)
    i.SVC_Handler                            0x08003998   Section        0  stm32f4xx_it.o(i.SVC_Handler)
    i.SysTick_Handler                        0x0800399a   Section        0  stm32f4xx_it.o(i.SysTick_Handler)
    i.SystemClock_Config                     0x080039a0   Section        0  main.o(i.SystemClock_Config)
    i.SystemInit                             0x08003a28   Section        0  system_stm32f4xx.o(i.SystemInit)
    i.TIM1_BRK_TIM9_IRQHandler               0x08003a7c   Section        0  stm32f4xx_it.o(i.TIM1_BRK_TIM9_IRQHandler)
    i.TIM1_TRG_COM_TIM11_IRQHandler          0x08003a88   Section        0  stm32f4xx_it.o(i.TIM1_TRG_COM_TIM11_IRQHandler)
    i.TIM1_UP_TIM10_IRQHandler               0x08003a94   Section        0  stm32f4xx_it.o(i.TIM1_UP_TIM10_IRQHandler)
    i.TIM2_IRQHandler                        0x08003aa0   Section        0  stm32f4xx_it.o(i.TIM2_IRQHandler)
    i.TIM3_IRQHandler                        0x08003aac   Section        0  stm32f4xx_it.o(i.TIM3_IRQHandler)
    i.TIM6_DAC_IRQHandler                    0x08003ab8   Section        0  stm32f4xx_it.o(i.TIM6_DAC_IRQHandler)
    i.TIM7_IRQHandler                        0x08003ac4   Section        0  stm32f4xx_it.o(i.TIM7_IRQHandler)
    i.TIM_Base_SetConfig                     0x08003ad0   Section        0  stm32f4xx_hal_tim.o(i.TIM_Base_SetConfig)
    i.TIM_ETR_SetConfig                      0x08003b98   Section        0  stm32f4xx_hal_tim.o(i.TIM_ETR_SetConfig)
    i.TIM_ITRx_SetConfig                     0x08003bac   Section        0  stm32f4xx_hal_tim.o(i.TIM_ITRx_SetConfig)
    TIM_ITRx_SetConfig                       0x08003bad   Thumb Code    16  stm32f4xx_hal_tim.o(i.TIM_ITRx_SetConfig)
    i.TIM_TI1_ConfigInputStage               0x08003bbc   Section        0  stm32f4xx_hal_tim.o(i.TIM_TI1_ConfigInputStage)
    TIM_TI1_ConfigInputStage                 0x08003bbd   Thumb Code    34  stm32f4xx_hal_tim.o(i.TIM_TI1_ConfigInputStage)
    i.TIM_TI2_ConfigInputStage               0x08003bde   Section        0  stm32f4xx_hal_tim.o(i.TIM_TI2_ConfigInputStage)
    TIM_TI2_ConfigInputStage                 0x08003bdf   Thumb Code    36  stm32f4xx_hal_tim.o(i.TIM_TI2_ConfigInputStage)
    i.UsageFault_Handler                     0x08003c02   Section        0  stm32f4xx_it.o(i.UsageFault_Handler)
    i.__ARM_fpclassify                       0x08003c04   Section        0  fpclassify.o(i.__ARM_fpclassify)
    i.__NVIC_SetPriority                     0x08003c34   Section        0  stm32f4xx_hal_cortex.o(i.__NVIC_SetPriority)
    __NVIC_SetPriority                       0x08003c35   Thumb Code    32  stm32f4xx_hal_cortex.o(i.__NVIC_SetPriority)
    i.__hardfp_log                           0x08003c58   Section        0  log.o(i.__hardfp_log)
    i.__hardfp_pow                           0x08004020   Section        0  pow.o(i.__hardfp_pow)
    i.__kernel_poly                          0x08004c70   Section        0  poly.o(i.__kernel_poly)
    i.__mathlib_dbl_divzero                  0x08004d68   Section        0  dunder.o(i.__mathlib_dbl_divzero)
    i.__mathlib_dbl_infnan                   0x08004d98   Section        0  dunder.o(i.__mathlib_dbl_infnan)
    i.__mathlib_dbl_infnan2                  0x08004dac   Section        0  dunder.o(i.__mathlib_dbl_infnan2)
    i.__mathlib_dbl_invalid                  0x08004dc0   Section        0  dunder.o(i.__mathlib_dbl_invalid)
    i.__mathlib_dbl_overflow                 0x08004de0   Section        0  dunder.o(i.__mathlib_dbl_overflow)
    i.__mathlib_dbl_underflow                0x08004e00   Section        0  dunder.o(i.__mathlib_dbl_underflow)
    i.__scatterload_copy                     0x08004e20   Section       14  handlers.o(i.__scatterload_copy)
    i.__scatterload_null                     0x08004e2e   Section        2  handlers.o(i.__scatterload_null)
    i.__scatterload_zeroinit                 0x08004e30   Section       14  handlers.o(i.__scatterload_zeroinit)
    i.__set_errno                            0x08004e40   Section        0  errno.o(i.__set_errno)
    i.canTransmit100Hz                       0x08004e4c   Section        0  main.o(i.canTransmit100Hz)
    i.canTransmit10Hz                        0x08004efc   Section        0  main.o(i.canTransmit10Hz)
    i.canTransmit1KHz                        0x08005010   Section        0  main.o(i.canTransmit1KHz)
    i.canTransmitCvAux                       0x08005060   Section        0  main.o(i.canTransmitCvAux)
    i.cmd_68                                 0x08005244   Section        0  ltc681x.o(i.cmd_68)
    i.cs_high                                0x08005278   Section        0  lt_spi.o(i.cs_high)
    i.cs_low                                 0x08005288   Section        0  lt_spi.o(i.cs_low)
    i.errorCheck                             0x08005298   Section        0  main.o(i.errorCheck)
    i.errorCounterInit                       0x08005440   Section        0  main.o(i.errorCounterInit)
    i.fabs                                   0x08005478   Section        0  fabs.o(i.fabs)
    i.free                                   0x08005490   Section        0  malloc.o(i.free)
    i.main                                   0x080054e0   Section        0  main.o(i.main)
    i.malloc                                 0x080057d4   Section        0  malloc.o(i.malloc)
    i.parse_cells                            0x08005840   Section        0  ltc681x.o(i.parse_cells)
    i.pec15_calc                             0x080058a8   Section        0  ltc681x.o(i.pec15_calc)
    i.spi_read_byte                          0x080058dc   Section        0  lt_spi.o(i.spi_read_byte)
    i.spi_write_array                        0x08005900   Section        0  lt_spi.o(i.spi_write_array)
    i.spi_write_read                         0x0800592c   Section        0  lt_spi.o(i.spi_write_read)
    i.sqrt                                   0x0800597c   Section        0  sqrt.o(i.sqrt)
    i.state_change                           0x080059ec   Section        0  main.o(i.state_change)
    i.tempConvert                            0x08005a08   Section        0  main.o(i.tempConvert)
    i.wakeup_idle                            0x08005faa   Section        0  ltc681x.o(i.wakeup_idle)
    i.wakeup_sleep                           0x08005fc8   Section        0  ltc681x.o(i.wakeup_sleep)
    i.write_68                               0x08005fe6   Section        0  ltc681x.o(i.write_68)
    .constdata                               0x0800607a   Section        8  stm32f4xx_hal_dma.o(.constdata)
    flagBitshiftOffset                       0x0800607a   Data           8  stm32f4xx_hal_dma.o(.constdata)
    .constdata                               0x08006082   Section       16  system_stm32f4xx.o(.constdata)
    .constdata                               0x08006094   Section      518  ltc681x.o(.constdata)
    .constdata                               0x080062a0   Section       56  log.o(.constdata)
    Lg2                                      0x080062a0   Data          24  log.o(.constdata)
    Lg                                       0x080062b8   Data          32  log.o(.constdata)
    .constdata                               0x080062d8   Section      136  pow.o(.constdata)
    bp                                       0x080062d8   Data          16  pow.o(.constdata)
    dp_h                                     0x080062e8   Data          16  pow.o(.constdata)
    dp_l                                     0x080062f8   Data          16  pow.o(.constdata)
    L                                        0x08006308   Data          48  pow.o(.constdata)
    P                                        0x08006338   Data          40  pow.o(.constdata)
    .constdata                               0x08006360   Section        8  qnan.o(.constdata)
    .data                                    0x20000000   Section       97  main.o(.data)
    .data                                    0x20000064   Section       12  stm32f4xx_hal.o(.data)
    .data                                    0x20000070   Section        4  system_stm32f4xx.o(.data)
    .data                                    0x20000074   Section        4  mvars.o(.data)
    .data                                    0x20000078   Section        4  mvars.o(.data)
    .data                                    0x2000007c   Section        4  errno.o(.data)
    _errno                                   0x2000007c   Data           4  errno.o(.data)
    .bss                                     0x20000080   Section     1260  main.o(.bss)
    myTxHeader                               0x200004b0   Data          24  main.o(.bss)
    myRxHeader                               0x200004c8   Data          28  main.o(.bss)
    .bss                                     0x2000056c   Section       96  main.o(.bss)
    .bss                                     0x200005cc   Section       96  main.o(.bss)
    .bss                                     0x2000062c   Section       88  lt_spi.o(.bss)
    HEAP                                     0x20000688   Section      512  startup_stm32f446xx.o(HEAP)
    STACK                                    0x20000888   Section     1024  startup_stm32f446xx.o(STACK)

    Global Symbols

    Symbol Name                              Value     Ov Type        Size  Object(Section)

    BuildAttributes$$THM_ISAv4$E$P$D$K$B$S$7EM$VFPi3$EXTD16$VFPS$VFMA$PE$A:L22UL41UL21$X:L11$S22US41US21$IEEE1$IW$USESV6$~STKCKD$USESV7$~SHL$OTIME$ROPI$IEEEX$EBA8$MICROLIB$REQ8$PRES8$EABIv2 0x00000000   Number         0  anon$$obj.o ABSOLUTE
    __ARM_use_no_argv                        0x00000000   Number         0  main.o ABSOLUTE
    __cpp_initialize__aeabi_                  - Undefined Weak Reference
    __cxa_finalize                            - Undefined Weak Reference
    __decompress                              - Undefined Weak Reference
    _clock_init                               - Undefined Weak Reference
    _microlib_exit                            - Undefined Weak Reference
    __Vectors_Size                           0x000001c4   Number         0  startup_stm32f446xx.o ABSOLUTE
    __Vectors                                0x08000000   Data           4  startup_stm32f446xx.o(RESET)
    __Vectors_End                            0x080001c4   Data           0  startup_stm32f446xx.o(RESET)
    __main                                   0x080001c5   Thumb Code     0  entry.o(.ARM.Collect$$$$00000000)
    _main_stk                                0x080001c5   Thumb Code     0  entry2.o(.ARM.Collect$$$$00000001)
    _main_scatterload                        0x080001c9   Thumb Code     0  entry5.o(.ARM.Collect$$$$00000004)
    __main_after_scatterload                 0x080001cd   Thumb Code     0  entry5.o(.ARM.Collect$$$$00000004)
    _main_clock                              0x080001cd   Thumb Code     0  entry7b.o(.ARM.Collect$$$$00000008)
    _main_cpp_init                           0x080001cd   Thumb Code     0  entry8b.o(.ARM.Collect$$$$0000000A)
    _main_init                               0x080001cd   Thumb Code     0  entry9a.o(.ARM.Collect$$$$0000000B)
    __rt_final_cpp                           0x080001d5   Thumb Code     0  entry10a.o(.ARM.Collect$$$$0000000D)
    __rt_final_exit                          0x080001d5   Thumb Code     0  entry11a.o(.ARM.Collect$$$$0000000F)
    Reset_Handler                            0x080001d9   Thumb Code     8  startup_stm32f446xx.o(.text)
    CAN1_RX1_IRQHandler                      0x080001f3   Thumb Code     0  startup_stm32f446xx.o(.text)
    CAN1_SCE_IRQHandler                      0x080001f3   Thumb Code     0  startup_stm32f446xx.o(.text)
    CAN1_TX_IRQHandler                       0x080001f3   Thumb Code     0  startup_stm32f446xx.o(.text)
    CAN2_RX0_IRQHandler                      0x080001f3   Thumb Code     0  startup_stm32f446xx.o(.text)
    CAN2_RX1_IRQHandler                      0x080001f3   Thumb Code     0  startup_stm32f446xx.o(.text)
    CAN2_SCE_IRQHandler                      0x080001f3   Thumb Code     0  startup_stm32f446xx.o(.text)
    CAN2_TX_IRQHandler                       0x080001f3   Thumb Code     0  startup_stm32f446xx.o(.text)
    CEC_IRQHandler                           0x080001f3   Thumb Code     0  startup_stm32f446xx.o(.text)
    DCMI_IRQHandler                          0x080001f3   Thumb Code     0  startup_stm32f446xx.o(.text)
    DMA1_Stream0_IRQHandler                  0x080001f3   Thumb Code     0  startup_stm32f446xx.o(.text)
    DMA1_Stream1_IRQHandler                  0x080001f3   Thumb Code     0  startup_stm32f446xx.o(.text)
    DMA1_Stream2_IRQHandler                  0x080001f3   Thumb Code     0  startup_stm32f446xx.o(.text)
    DMA1_Stream3_IRQHandler                  0x080001f3   Thumb Code     0  startup_stm32f446xx.o(.text)
    DMA1_Stream4_IRQHandler                  0x080001f3   Thumb Code     0  startup_stm32f446xx.o(.text)
    DMA1_Stream5_IRQHandler                  0x080001f3   Thumb Code     0  startup_stm32f446xx.o(.text)
    DMA1_Stream6_IRQHandler                  0x080001f3   Thumb Code     0  startup_stm32f446xx.o(.text)
    DMA1_Stream7_IRQHandler                  0x080001f3   Thumb Code     0  startup_stm32f446xx.o(.text)
    DMA2_Stream1_IRQHandler                  0x080001f3   Thumb Code     0  startup_stm32f446xx.o(.text)
    DMA2_Stream3_IRQHandler                  0x080001f3   Thumb Code     0  startup_stm32f446xx.o(.text)
    DMA2_Stream4_IRQHandler                  0x080001f3   Thumb Code     0  startup_stm32f446xx.o(.text)
    DMA2_Stream5_IRQHandler                  0x080001f3   Thumb Code     0  startup_stm32f446xx.o(.text)
    DMA2_Stream6_IRQHandler                  0x080001f3   Thumb Code     0  startup_stm32f446xx.o(.text)
    DMA2_Stream7_IRQHandler                  0x080001f3   Thumb Code     0  startup_stm32f446xx.o(.text)
    EXTI0_IRQHandler                         0x080001f3   Thumb Code     0  startup_stm32f446xx.o(.text)
    EXTI15_10_IRQHandler                     0x080001f3   Thumb Code     0  startup_stm32f446xx.o(.text)
    EXTI1_IRQHandler                         0x080001f3   Thumb Code     0  startup_stm32f446xx.o(.text)
    EXTI2_IRQHandler                         0x080001f3   Thumb Code     0  startup_stm32f446xx.o(.text)
    EXTI3_IRQHandler                         0x080001f3   Thumb Code     0  startup_stm32f446xx.o(.text)
    EXTI4_IRQHandler                         0x080001f3   Thumb Code     0  startup_stm32f446xx.o(.text)
    EXTI9_5_IRQHandler                       0x080001f3   Thumb Code     0  startup_stm32f446xx.o(.text)
    FLASH_IRQHandler                         0x080001f3   Thumb Code     0  startup_stm32f446xx.o(.text)
    FMC_IRQHandler                           0x080001f3   Thumb Code     0  startup_stm32f446xx.o(.text)
    FMPI2C1_ER_IRQHandler                    0x080001f3   Thumb Code     0  startup_stm32f446xx.o(.text)
    FMPI2C1_EV_IRQHandler                    0x080001f3   Thumb Code     0  startup_stm32f446xx.o(.text)
    FPU_IRQHandler                           0x080001f3   Thumb Code     0  startup_stm32f446xx.o(.text)
    I2C1_ER_IRQHandler                       0x080001f3   Thumb Code     0  startup_stm32f446xx.o(.text)
    I2C1_EV_IRQHandler                       0x080001f3   Thumb Code     0  startup_stm32f446xx.o(.text)
    I2C2_ER_IRQHandler                       0x080001f3   Thumb Code     0  startup_stm32f446xx.o(.text)
    I2C2_EV_IRQHandler                       0x080001f3   Thumb Code     0  startup_stm32f446xx.o(.text)
    I2C3_ER_IRQHandler                       0x080001f3   Thumb Code     0  startup_stm32f446xx.o(.text)
    I2C3_EV_IRQHandler                       0x080001f3   Thumb Code     0  startup_stm32f446xx.o(.text)
    OTG_FS_IRQHandler                        0x080001f3   Thumb Code     0  startup_stm32f446xx.o(.text)
    OTG_FS_WKUP_IRQHandler                   0x080001f3   Thumb Code     0  startup_stm32f446xx.o(.text)
    OTG_HS_EP1_IN_IRQHandler                 0x080001f3   Thumb Code     0  startup_stm32f446xx.o(.text)
    OTG_HS_EP1_OUT_IRQHandler                0x080001f3   Thumb Code     0  startup_stm32f446xx.o(.text)
    OTG_HS_IRQHandler                        0x080001f3   Thumb Code     0  startup_stm32f446xx.o(.text)
    OTG_HS_WKUP_IRQHandler                   0x080001f3   Thumb Code     0  startup_stm32f446xx.o(.text)
    PVD_IRQHandler                           0x080001f3   Thumb Code     0  startup_stm32f446xx.o(.text)
    QUADSPI_IRQHandler                       0x080001f3   Thumb Code     0  startup_stm32f446xx.o(.text)
    RCC_IRQHandler                           0x080001f3   Thumb Code     0  startup_stm32f446xx.o(.text)
    RTC_Alarm_IRQHandler                     0x080001f3   Thumb Code     0  startup_stm32f446xx.o(.text)
    RTC_WKUP_IRQHandler                      0x080001f3   Thumb Code     0  startup_stm32f446xx.o(.text)
    SAI1_IRQHandler                          0x080001f3   Thumb Code     0  startup_stm32f446xx.o(.text)
    SAI2_IRQHandler                          0x080001f3   Thumb Code     0  startup_stm32f446xx.o(.text)
    SDIO_IRQHandler                          0x080001f3   Thumb Code     0  startup_stm32f446xx.o(.text)
    SPDIF_RX_IRQHandler                      0x080001f3   Thumb Code     0  startup_stm32f446xx.o(.text)
    SPI1_IRQHandler                          0x080001f3   Thumb Code     0  startup_stm32f446xx.o(.text)
    SPI2_IRQHandler                          0x080001f3   Thumb Code     0  startup_stm32f446xx.o(.text)
    SPI3_IRQHandler                          0x080001f3   Thumb Code     0  startup_stm32f446xx.o(.text)
    SPI4_IRQHandler                          0x080001f3   Thumb Code     0  startup_stm32f446xx.o(.text)
    TAMP_STAMP_IRQHandler                    0x080001f3   Thumb Code     0  startup_stm32f446xx.o(.text)
    TIM1_CC_IRQHandler                       0x080001f3   Thumb Code     0  startup_stm32f446xx.o(.text)
    TIM4_IRQHandler                          0x080001f3   Thumb Code     0  startup_stm32f446xx.o(.text)
    TIM5_IRQHandler                          0x080001f3   Thumb Code     0  startup_stm32f446xx.o(.text)
    TIM8_BRK_TIM12_IRQHandler                0x080001f3   Thumb Code     0  startup_stm32f446xx.o(.text)
    TIM8_CC_IRQHandler                       0x080001f3   Thumb Code     0  startup_stm32f446xx.o(.text)
    TIM8_TRG_COM_TIM14_IRQHandler            0x080001f3   Thumb Code     0  startup_stm32f446xx.o(.text)
    TIM8_UP_TIM13_IRQHandler                 0x080001f3   Thumb Code     0  startup_stm32f446xx.o(.text)
    UART4_IRQHandler                         0x080001f3   Thumb Code     0  startup_stm32f446xx.o(.text)
    UART5_IRQHandler                         0x080001f3   Thumb Code     0  startup_stm32f446xx.o(.text)
    USART1_IRQHandler                        0x080001f3   Thumb Code     0  startup_stm32f446xx.o(.text)
    USART2_IRQHandler                        0x080001f3   Thumb Code     0  startup_stm32f446xx.o(.text)
    USART3_IRQHandler                        0x080001f3   Thumb Code     0  startup_stm32f446xx.o(.text)
    USART6_IRQHandler                        0x080001f3   Thumb Code     0  startup_stm32f446xx.o(.text)
    WWDG_IRQHandler                          0x080001f3   Thumb Code     0  startup_stm32f446xx.o(.text)
    __aeabi_uldivmod                         0x080001fd   Thumb Code    98  uldiv.o(.text)
    __aeabi_memset                           0x0800025f   Thumb Code    14  memseta.o(.text)
    __aeabi_memset4                          0x0800025f   Thumb Code     0  memseta.o(.text)
    __aeabi_memset8                          0x0800025f   Thumb Code     0  memseta.o(.text)
    __aeabi_memclr                           0x0800026d   Thumb Code     4  memseta.o(.text)
    __aeabi_memclr4                          0x0800026d   Thumb Code     0  memseta.o(.text)
    __aeabi_memclr8                          0x0800026d   Thumb Code     0  memseta.o(.text)
    _memset$wrapper                          0x08000271   Thumb Code    18  memseta.o(.text)
    __aeabi_dadd                             0x08000283   Thumb Code   322  dadd.o(.text)
    __aeabi_dsub                             0x080003c5   Thumb Code     6  dadd.o(.text)
    __aeabi_drsub                            0x080003cb   Thumb Code     6  dadd.o(.text)
    __aeabi_dmul                             0x080003d1   Thumb Code   228  dmul.o(.text)
    __aeabi_ddiv                             0x080004b5   Thumb Code   222  ddiv.o(.text)
    __aeabi_ui2d                             0x08000593   Thumb Code    26  dfltui.o(.text)
    __aeabi_f2d                              0x080005ad   Thumb Code    38  f2d.o(.text)
    __aeabi_cdcmpeq                          0x080005d5   Thumb Code     0  cdcmple.o(.text)
    __aeabi_cdcmple                          0x080005d5   Thumb Code    48  cdcmple.o(.text)
    __aeabi_cdrcmple                         0x08000605   Thumb Code    48  cdrcmple.o(.text)
    __aeabi_d2f                              0x08000635   Thumb Code    56  d2f.o(.text)
    __aeabi_llsl                             0x0800066d   Thumb Code    30  llshl.o(.text)
    _ll_shift_l                              0x0800066d   Thumb Code     0  llshl.o(.text)
    __aeabi_llsr                             0x0800068b   Thumb Code    32  llushr.o(.text)
    _ll_ushift_r                             0x0800068b   Thumb Code     0  llushr.o(.text)
    __aeabi_lasr                             0x080006ab   Thumb Code    36  llsshr.o(.text)
    _ll_sshift_r                             0x080006ab   Thumb Code     0  llsshr.o(.text)
    __I$use$fp                               0x080006cf   Thumb Code     0  iusefp.o(.text)
    _float_round                             0x080006cf   Thumb Code    18  fepilogue.o(.text)
    _float_epilogue                          0x080006e1   Thumb Code    92  fepilogue.o(.text)
    _double_round                            0x0800073d   Thumb Code    30  depilogue.o(.text)
    _double_epilogue                         0x0800075b   Thumb Code   156  depilogue.o(.text)
    __ARM_scalbn                             0x080007f7   Thumb Code    46  dscalb.o(.text)
    scalbn                                   0x080007f7   Thumb Code     0  dscalb.o(.text)
    __aeabi_i2d                              0x08000825   Thumb Code    34  dflti.o(.text)
    __scatterload                            0x08000849   Thumb Code    28  init.o(.text)
    __scatterload_rt2                        0x08000849   Thumb Code     0  init.o(.text)
    _dsqrt                                   0x0800086d   Thumb Code   162  dsqrt.o(.text)
    ADC_IRQHandler                           0x0800099d   Thumb Code    24  stm32f4xx_it.o(i.ADC_IRQHandler)
    BusFault_Handler                         0x08000ae9   Thumb Code     2  stm32f4xx_it.o(i.BusFault_Handler)
    CAN1_RX0_IRQHandler                      0x08000aed   Thumb Code     6  stm32f4xx_it.o(i.CAN1_RX0_IRQHandler)
    CanFilterConfig                          0x08000af9   Thumb Code    42  main.o(i.CanFilterConfig)
    DMA2_Stream0_IRQHandler                  0x08000b29   Thumb Code     6  stm32f4xx_it.o(i.DMA2_Stream0_IRQHandler)
    DMA2_Stream2_IRQHandler                  0x08000b35   Thumb Code     6  stm32f4xx_it.o(i.DMA2_Stream2_IRQHandler)
    DebugMon_Handler                         0x08000be5   Thumb Code     2  stm32f4xx_it.o(i.DebugMon_Handler)
    Error_Handler                            0x08000be7   Thumb Code     2  main.o(i.Error_Handler)
    HAL_ADCEx_InjectedConvCpltCallback       0x08000be9   Thumb Code     2  stm32f4xx_hal_adc_ex.o(i.HAL_ADCEx_InjectedConvCpltCallback)
    HAL_ADC_ConfigChannel                    0x08000bed   Thumb Code   334  stm32f4xx_hal_adc.o(i.HAL_ADC_ConfigChannel)
    HAL_ADC_ConvCpltCallback                 0x08000d51   Thumb Code    88  main.o(i.HAL_ADC_ConvCpltCallback)
    HAL_ADC_ConvHalfCpltCallback             0x08000dd1   Thumb Code     2  stm32f4xx_hal_adc.o(i.HAL_ADC_ConvHalfCpltCallback)
    HAL_ADC_ErrorCallback                    0x08000dd3   Thumb Code     2  stm32f4xx_hal_adc.o(i.HAL_ADC_ErrorCallback)
    HAL_ADC_GetValue                         0x08000dd5   Thumb Code     6  stm32f4xx_hal_adc.o(i.HAL_ADC_GetValue)
    HAL_ADC_IRQHandler                       0x08000ddb   Thumb Code   316  stm32f4xx_hal_adc.o(i.HAL_ADC_IRQHandler)
    HAL_ADC_Init                             0x08000f17   Thumb Code    84  stm32f4xx_hal_adc.o(i.HAL_ADC_Init)
    HAL_ADC_LevelOutOfWindowCallback         0x08000f6b   Thumb Code     2  stm32f4xx_hal_adc.o(i.HAL_ADC_LevelOutOfWindowCallback)
    HAL_ADC_MspInit                          0x08000f6d   Thumb Code   336  stm32f4xx_hal_msp.o(i.HAL_ADC_MspInit)
    HAL_ADC_Start_DMA                        0x080010e5   Thumb Code   268  stm32f4xx_hal_adc.o(i.HAL_ADC_Start_DMA)
    HAL_ADC_Start_IT                         0x08001215   Thumb Code   220  stm32f4xx_hal_adc.o(i.HAL_ADC_Start_IT)
    HAL_CAN_ActivateNotification             0x0800130d   Thumb Code    36  stm32f4xx_hal_can.o(i.HAL_CAN_ActivateNotification)
    HAL_CAN_AddTxMessage                     0x08001331   Thumb Code   200  stm32f4xx_hal_can.o(i.HAL_CAN_AddTxMessage)
    HAL_CAN_ConfigFilter                     0x080013f9   Thumb Code   262  stm32f4xx_hal_can.o(i.HAL_CAN_ConfigFilter)
    HAL_CAN_ErrorCallback                    0x08001505   Thumb Code     2  stm32f4xx_hal_can.o(i.HAL_CAN_ErrorCallback)
    HAL_CAN_GetRxMessage                     0x08001507   Thumb Code   232  stm32f4xx_hal_can.o(i.HAL_CAN_GetRxMessage)
    HAL_CAN_IRQHandler                       0x080015ef   Thumb Code   508  stm32f4xx_hal_can.o(i.HAL_CAN_IRQHandler)
    HAL_CAN_Init                             0x080017eb   Thumb Code   282  stm32f4xx_hal_can.o(i.HAL_CAN_Init)
    HAL_CAN_IsTxMessagePending               0x08001905   Thumb Code    30  stm32f4xx_hal_can.o(i.HAL_CAN_IsTxMessagePending)
    HAL_CAN_MspInit                          0x08001925   Thumb Code   110  stm32f4xx_hal_msp.o(i.HAL_CAN_MspInit)
    HAL_CAN_RxFifo0FullCallback              0x080019a1   Thumb Code     2  stm32f4xx_hal_can.o(i.HAL_CAN_RxFifo0FullCallback)
    HAL_CAN_RxFifo0MsgPendingCallback        0x080019a5   Thumb Code   116  main.o(i.HAL_CAN_RxFifo0MsgPendingCallback)
    HAL_CAN_RxFifo1FullCallback              0x08001a29   Thumb Code     2  stm32f4xx_hal_can.o(i.HAL_CAN_RxFifo1FullCallback)
    HAL_CAN_RxFifo1MsgPendingCallback        0x08001a2b   Thumb Code     2  stm32f4xx_hal_can.o(i.HAL_CAN_RxFifo1MsgPendingCallback)
    HAL_CAN_SleepCallback                    0x08001a2d   Thumb Code     2  stm32f4xx_hal_can.o(i.HAL_CAN_SleepCallback)
    HAL_CAN_Start                            0x08001a31   Thumb Code    88  stm32f4xx_hal_can.o(i.HAL_CAN_Start)
    HAL_CAN_TxMailbox0AbortCallback          0x08001a89   Thumb Code     2  stm32f4xx_hal_can.o(i.HAL_CAN_TxMailbox0AbortCallback)
    HAL_CAN_TxMailbox0CompleteCallback       0x08001a8b   Thumb Code     2  stm32f4xx_hal_can.o(i.HAL_CAN_TxMailbox0CompleteCallback)
    HAL_CAN_TxMailbox1AbortCallback          0x08001a8d   Thumb Code     2  stm32f4xx_hal_can.o(i.HAL_CAN_TxMailbox1AbortCallback)
    HAL_CAN_TxMailbox1CompleteCallback       0x08001a8f   Thumb Code     2  stm32f4xx_hal_can.o(i.HAL_CAN_TxMailbox1CompleteCallback)
    HAL_CAN_TxMailbox2AbortCallback          0x08001a91   Thumb Code     2  stm32f4xx_hal_can.o(i.HAL_CAN_TxMailbox2AbortCallback)
    HAL_CAN_TxMailbox2CompleteCallback       0x08001a93   Thumb Code     2  stm32f4xx_hal_can.o(i.HAL_CAN_TxMailbox2CompleteCallback)
    HAL_CAN_WakeUpFromRxMsgCallback          0x08001a95   Thumb Code     2  stm32f4xx_hal_can.o(i.HAL_CAN_WakeUpFromRxMsgCallback)
    HAL_DMA_IRQHandler                       0x08001a99   Thumb Code   412  stm32f4xx_hal_dma.o(i.HAL_DMA_IRQHandler)
    HAL_DMA_Init                             0x08001c39   Thumb Code   206  stm32f4xx_hal_dma.o(i.HAL_DMA_Init)
    HAL_DMA_Start_IT                         0x08001d0d   Thumb Code   120  stm32f4xx_hal_dma.o(i.HAL_DMA_Start_IT)
    HAL_Delay                                0x08001d85   Thumb Code    32  stm32f4xx_hal.o(i.HAL_Delay)
    HAL_GPIO_Init                            0x08001da9   Thumb Code   378  stm32f4xx_hal_gpio.o(i.HAL_GPIO_Init)
    HAL_GPIO_ReadPin                         0x08001f4d   Thumb Code    10  stm32f4xx_hal_gpio.o(i.HAL_GPIO_ReadPin)
    HAL_GPIO_WritePin                        0x08001f57   Thumb Code    10  stm32f4xx_hal_gpio.o(i.HAL_GPIO_WritePin)
    HAL_GetTick                              0x08001f61   Thumb Code     6  stm32f4xx_hal.o(i.HAL_GetTick)
    HAL_IncTick                              0x08001f6d   Thumb Code    12  stm32f4xx_hal.o(i.HAL_IncTick)
    HAL_Init                                 0x08001f7d   Thumb Code    48  stm32f4xx_hal.o(i.HAL_Init)
    HAL_InitTick                             0x08001fb1   Thumb Code    54  stm32f4xx_hal.o(i.HAL_InitTick)
    HAL_MspInit                              0x08001ff1   Thumb Code    48  stm32f4xx_hal_msp.o(i.HAL_MspInit)
    HAL_NVIC_EnableIRQ                       0x08002025   Thumb Code    26  stm32f4xx_hal_cortex.o(i.HAL_NVIC_EnableIRQ)
    HAL_NVIC_SetPriority                     0x08002041   Thumb Code    60  stm32f4xx_hal_cortex.o(i.HAL_NVIC_SetPriority)
    HAL_NVIC_SetPriorityGrouping             0x08002081   Thumb Code    26  stm32f4xx_hal_cortex.o(i.HAL_NVIC_SetPriorityGrouping)
    HAL_NVIC_SystemReset                     0x080020a5   Thumb Code    26  stm32f4xx_hal_cortex.o(i.HAL_NVIC_SystemReset)
    HAL_RCC_ClockConfig                      0x080020c9   Thumb Code   286  stm32f4xx_hal_rcc.o(i.HAL_RCC_ClockConfig)
    HAL_RCC_GetSysClockFreq                  0x080021f9   Thumb Code   140  stm32f4xx_hal_rcc_ex.o(i.HAL_RCC_GetSysClockFreq)
    HAL_RCC_OscConfig                        0x0800228d   Thumb Code   814  stm32f4xx_hal_rcc_ex.o(i.HAL_RCC_OscConfig)
    HAL_SPI_Init                             0x080025d1   Thumb Code   128  stm32f4xx_hal_spi.o(i.HAL_SPI_Init)
    HAL_SPI_MspInit                          0x08002651   Thumb Code    92  stm32f4xx_hal_msp.o(i.HAL_SPI_MspInit)
    HAL_SPI_TransmitReceive                  0x080026b9   Thumb Code   482  stm32f4xx_hal_spi.o(i.HAL_SPI_TransmitReceive)
    HAL_SYSTICK_Config                       0x0800289b   Thumb Code    40  stm32f4xx_hal_cortex.o(i.HAL_SYSTICK_Config)
    HAL_TIMEx_BreakCallback                  0x080028c3   Thumb Code     2  stm32f4xx_hal_tim_ex.o(i.HAL_TIMEx_BreakCallback)
    HAL_TIMEx_CommutCallback                 0x080028c5   Thumb Code     2  stm32f4xx_hal_tim_ex.o(i.HAL_TIMEx_CommutCallback)
    HAL_TIMEx_MasterConfigSynchronization    0x080028c7   Thumb Code    66  stm32f4xx_hal_tim_ex.o(i.HAL_TIMEx_MasterConfigSynchronization)
    HAL_TIM_Base_Init                        0x08002909   Thumb Code    54  stm32f4xx_hal_tim.o(i.HAL_TIM_Base_Init)
    HAL_TIM_Base_MspInit                     0x08002941   Thumb Code   292  stm32f4xx_hal_msp.o(i.HAL_TIM_Base_MspInit)
    HAL_TIM_Base_Start                       0x08002a85   Thumb Code    36  stm32f4xx_hal_tim.o(i.HAL_TIM_Base_Start)
    HAL_TIM_Base_Start_IT                    0x08002aa9   Thumb Code    34  stm32f4xx_hal_tim.o(i.HAL_TIM_Base_Start_IT)
    HAL_TIM_Base_Stop_IT                     0x08002acb   Thumb Code    42  stm32f4xx_hal_tim.o(i.HAL_TIM_Base_Stop_IT)
    HAL_TIM_ConfigClockSource                0x08002af5   Thumb Code   214  stm32f4xx_hal_tim.o(i.HAL_TIM_ConfigClockSource)
    HAL_TIM_IC_CaptureCallback               0x08002bcb   Thumb Code     2  stm32f4xx_hal_tim.o(i.HAL_TIM_IC_CaptureCallback)
    HAL_TIM_IRQHandler                       0x08002bcd   Thumb Code   358  stm32f4xx_hal_tim.o(i.HAL_TIM_IRQHandler)
    HAL_TIM_OC_DelayElapsedCallback          0x08002d33   Thumb Code     2  stm32f4xx_hal_tim.o(i.HAL_TIM_OC_DelayElapsedCallback)
    HAL_TIM_PWM_PulseFinishedCallback        0x08002d35   Thumb Code     2  stm32f4xx_hal_tim.o(i.HAL_TIM_PWM_PulseFinishedCallback)
    HAL_TIM_PeriodElapsedCallback            0x08002d39   Thumb Code   276  main.o(i.HAL_TIM_PeriodElapsedCallback)
    HAL_TIM_TriggerCallback                  0x08002e71   Thumb Code     2  stm32f4xx_hal_tim.o(i.HAL_TIM_TriggerCallback)
    HardFault_Handler                        0x08002e73   Thumb Code     2  stm32f4xx_it.o(i.HardFault_Handler)
    LTC6811_Initialize                       0x08002e75   Thumb Code    48  lt_spi.o(i.LTC6811_Initialize)
    LTC6811_adax                             0x08002ead   Thumb Code     4  ltc6811.o(i.LTC6811_adax)
    LTC6811_adcv                             0x08002eb1   Thumb Code     4  ltc6811.o(i.LTC6811_adcv)
    LTC6811_init                             0x08002eb5   Thumb Code    86  main.o(i.LTC6811_init)
    LTC6811_init_cfg                         0x08002f19   Thumb Code     4  ltc6811.o(i.LTC6811_init_cfg)
    LTC6811_init_reg_limits                  0x08002f1d   Thumb Code    54  ltc6811.o(i.LTC6811_init_reg_limits)
    LTC6811_rdaux                            0x08002f53   Thumb Code     4  ltc6811.o(i.LTC6811_rdaux)
    LTC6811_rdcv                             0x08002f57   Thumb Code    10  ltc6811.o(i.LTC6811_rdcv)
    LTC6811_reset_crc_count                  0x08002f61   Thumb Code     4  ltc6811.o(i.LTC6811_reset_crc_count)
    LTC6811_set_cfgr                         0x08002f65   Thumb Code    52  ltc6811.o(i.LTC6811_set_cfgr)
    LTC6811_wrcfg                            0x08002f99   Thumb Code     4  ltc6811.o(i.LTC6811_wrcfg)
    LTC681x_adax                             0x08002f9d   Thumb Code    30  ltc681x.o(i.LTC681x_adax)
    LTC681x_adcv                             0x08002fbb   Thumb Code    34  ltc681x.o(i.LTC681x_adcv)
    LTC681x_check_pec                        0x08002fdd   Thumb Code   290  ltc681x.o(i.LTC681x_check_pec)
    LTC681x_init_cfg                         0x08003101   Thumb Code   104  ltc681x.o(i.LTC681x_init_cfg)
    LTC681x_rdaux                            0x0800316d   Thumb Code   196  ltc681x.o(i.LTC681x_rdaux)
    LTC681x_rdaux_reg                        0x08003231   Thumb Code    92  ltc681x.o(i.LTC681x_rdaux_reg)
    LTC681x_rdcv                             0x0800328d   Thumb Code   204  ltc681x.o(i.LTC681x_rdcv)
    LTC681x_rdcv_reg                         0x08003359   Thumb Code   106  ltc681x.o(i.LTC681x_rdcv_reg)
    LTC681x_reset_crc_count                  0x080033c5   Thumb Code    82  ltc681x.o(i.LTC681x_reset_crc_count)
    LTC681x_set_cfgr                         0x08003417   Thumb Code    48  ltc681x.o(i.LTC681x_set_cfgr)
    LTC681x_set_cfgr_adcopt                  0x08003447   Thumb Code    26  ltc681x.o(i.LTC681x_set_cfgr_adcopt)
    LTC681x_set_cfgr_dis                     0x08003461   Thumb Code    72  ltc681x.o(i.LTC681x_set_cfgr_dis)
    LTC681x_set_cfgr_gpio                    0x080034a9   Thumb Code    46  ltc681x.o(i.LTC681x_set_cfgr_gpio)
    LTC681x_set_cfgr_refon                   0x080034d7   Thumb Code    26  ltc681x.o(i.LTC681x_set_cfgr_refon)
    LTC681x_wrcfg                            0x080034f1   Thumb Code    84  ltc681x.o(i.LTC681x_wrcfg)
    MemManage_Handler                        0x080038a5   Thumb Code     2  stm32f4xx_it.o(i.MemManage_Handler)
    NMI_Handler                              0x080038a7   Thumb Code     2  stm32f4xx_it.o(i.NMI_Handler)
    PendSV_Handler                           0x080038a9   Thumb Code     2  stm32f4xx_it.o(i.PendSV_Handler)
    SVC_Handler                              0x08003999   Thumb Code     2  stm32f4xx_it.o(i.SVC_Handler)
    SysTick_Handler                          0x0800399b   Thumb Code     4  stm32f4xx_it.o(i.SysTick_Handler)
    SystemClock_Config                       0x080039a1   Thumb Code   128  main.o(i.SystemClock_Config)
    SystemInit                               0x08003a29   Thumb Code    66  system_stm32f4xx.o(i.SystemInit)
    TIM1_BRK_TIM9_IRQHandler                 0x08003a7d   Thumb Code     6  stm32f4xx_it.o(i.TIM1_BRK_TIM9_IRQHandler)
    TIM1_TRG_COM_TIM11_IRQHandler            0x08003a89   Thumb Code     6  stm32f4xx_it.o(i.TIM1_TRG_COM_TIM11_IRQHandler)
    TIM1_UP_TIM10_IRQHandler                 0x08003a95   Thumb Code     6  stm32f4xx_it.o(i.TIM1_UP_TIM10_IRQHandler)
    TIM2_IRQHandler                          0x08003aa1   Thumb Code     6  stm32f4xx_it.o(i.TIM2_IRQHandler)
    TIM3_IRQHandler                          0x08003aad   Thumb Code     6  stm32f4xx_it.o(i.TIM3_IRQHandler)
    TIM6_DAC_IRQHandler                      0x08003ab9   Thumb Code     6  stm32f4xx_it.o(i.TIM6_DAC_IRQHandler)
    TIM7_IRQHandler                          0x08003ac5   Thumb Code     6  stm32f4xx_it.o(i.TIM7_IRQHandler)
    TIM_Base_SetConfig                       0x08003ad1   Thumb Code   156  stm32f4xx_hal_tim.o(i.TIM_Base_SetConfig)
    TIM_ETR_SetConfig                        0x08003b99   Thumb Code    20  stm32f4xx_hal_tim.o(i.TIM_ETR_SetConfig)
    UsageFault_Handler                       0x08003c03   Thumb Code     2  stm32f4xx_it.o(i.UsageFault_Handler)
    __ARM_fpclassify                         0x08003c05   Thumb Code    48  fpclassify.o(i.__ARM_fpclassify)
    __hardfp_log                             0x08003c59   Thumb Code   872  log.o(i.__hardfp_log)
    __hardfp_pow                             0x08004021   Thumb Code  3072  pow.o(i.__hardfp_pow)
    __kernel_poly                            0x08004c71   Thumb Code   248  poly.o(i.__kernel_poly)
    __mathlib_dbl_divzero                    0x08004d69   Thumb Code    28  dunder.o(i.__mathlib_dbl_divzero)
    __mathlib_dbl_infnan                     0x08004d99   Thumb Code    20  dunder.o(i.__mathlib_dbl_infnan)
    __mathlib_dbl_infnan2                    0x08004dad   Thumb Code    20  dunder.o(i.__mathlib_dbl_infnan2)
    __mathlib_dbl_invalid                    0x08004dc1   Thumb Code    24  dunder.o(i.__mathlib_dbl_invalid)
    __mathlib_dbl_overflow                   0x08004de1   Thumb Code    24  dunder.o(i.__mathlib_dbl_overflow)
    __mathlib_dbl_underflow                  0x08004e01   Thumb Code    24  dunder.o(i.__mathlib_dbl_underflow)
    __scatterload_copy                       0x08004e21   Thumb Code    14  handlers.o(i.__scatterload_copy)
    __scatterload_null                       0x08004e2f   Thumb Code     2  handlers.o(i.__scatterload_null)
    __scatterload_zeroinit                   0x08004e31   Thumb Code    14  handlers.o(i.__scatterload_zeroinit)
    __set_errno                              0x08004e41   Thumb Code     6  errno.o(i.__set_errno)
    canTransmit100Hz                         0x08004e4d   Thumb Code   162  main.o(i.canTransmit100Hz)
    canTransmit10Hz                          0x08004efd   Thumb Code   256  main.o(i.canTransmit10Hz)
    canTransmit1KHz                          0x08005011   Thumb Code    66  main.o(i.canTransmit1KHz)
    canTransmitCvAux                         0x08005061   Thumb Code   470  main.o(i.canTransmitCvAux)
    cmd_68                                   0x08005245   Thumb Code    50  ltc681x.o(i.cmd_68)
    cs_high                                  0x08005279   Thumb Code    10  lt_spi.o(i.cs_high)
    cs_low                                   0x08005289   Thumb Code    12  lt_spi.o(i.cs_low)
    errorCheck                               0x08005299   Thumb Code   402  main.o(i.errorCheck)
    errorCounterInit                         0x08005441   Thumb Code    52  main.o(i.errorCounterInit)
    fabs                                     0x08005479   Thumb Code    24  fabs.o(i.fabs)
    free                                     0x08005491   Thumb Code    76  malloc.o(i.free)
    main                                     0x080054e1   Thumb Code   706  main.o(i.main)
    malloc                                   0x080057d5   Thumb Code    92  malloc.o(i.malloc)
    parse_cells                              0x08005841   Thumb Code   102  ltc681x.o(i.parse_cells)
    pec15_calc                               0x080058a9   Thumb Code    46  ltc681x.o(i.pec15_calc)
    spi_read_byte                            0x080058dd   Thumb Code    32  lt_spi.o(i.spi_read_byte)
    spi_write_array                          0x08005901   Thumb Code    40  lt_spi.o(i.spi_write_array)
    spi_write_read                           0x0800592d   Thumb Code    76  lt_spi.o(i.spi_write_read)
    sqrt                                     0x0800597d   Thumb Code   110  sqrt.o(i.sqrt)
    state_change                             0x080059ed   Thumb Code    18  main.o(i.state_change)
    tempConvert                              0x08005a09   Thumb Code  1442  main.o(i.tempConvert)
    wakeup_idle                              0x08005fab   Thumb Code    30  ltc681x.o(i.wakeup_idle)
    wakeup_sleep                             0x08005fc9   Thumb Code    30  ltc681x.o(i.wakeup_sleep)
    write_68                                 0x08005fe7   Thumb Code   148  ltc681x.o(i.write_68)
    AHBPrescTable                            0x08006082   Data          16  system_stm32f4xx.o(.constdata)
    crc15Table                               0x0800609a   Data         512  ltc681x.o(.constdata)
    __mathlib_zero                           0x08006360   Data           8  qnan.o(.constdata)
    Region$$Table$$Base                      0x08006368   Number         0  anon$$obj.o(Region$$Table)
    Region$$Table$$Limit                     0x08006388   Number         0  anon$$obj.o(Region$$Table)
    BMS_State_Out                            0x20000000   Data           1  main.o(.data)
    reset                                    0x20000001   Data           1  main.o(.data)
    N_Error                                  0x20000002   Data           1  main.o(.data)
    REFON                                    0x20000003   Data           1  main.o(.data)
    ADCOPT                                   0x20000004   Data           1  main.o(.data)
    cvError                                  0x20000005   Data           1  main.o(.data)
    auxError                                 0x20000006   Data           1  main.o(.data)
    flag10Hz                                 0x20000007   Data           1  main.o(.data)
    flag100Hz                                0x20000008   Data           1  main.o(.data)
    flagStartCVConversion                    0x20000009   Data           1  main.o(.data)
    flagReadCVConversion                     0x2000000a   Data           1  main.o(.data)
    flagStartAuxConversion                   0x2000000b   Data           1  main.o(.data)
    flagReadAuxConversion                    0x2000000c   Data           1  main.o(.data)
    flagErrorCheck                           0x2000000d   Data           1  main.o(.data)
    BMS_State                                0x2000000e   Data           1  main.o(.data)
    IMD_State                                0x2000000f   Data           1  main.o(.data)
    AdAct_State                              0x20000010   Data           1  main.o(.data)
    Precharge_State                          0x20000011   Data           1  main.o(.data)
    Digital_Input1                           0x20000012   Data           1  main.o(.data)
    Digital_Input2                           0x20000013   Data           1  main.o(.data)
    txID                                     0x20000014   Data           2  main.o(.data)
    id_cell                                  0x20000016   Data           2  main.o(.data)
    id_temp                                  0x20000018   Data           2  main.o(.data)
    OT                                       0x2000001a   Data           2  main.o(.data)
    OC                                       0x2000001c   Data           2  main.o(.data)
    time                                     0x2000001e   Data           2  main.o(.data)
    time2                                    0x20000020   Data           2  main.o(.data)
    time3                                    0x20000022   Data           2  main.o(.data)
    time4                                    0x20000024   Data           2  main.o(.data)
    flag                                     0x20000026   Data           2  main.o(.data)
    frequency                                0x20000028   Data           2  main.o(.data)
    counter                                  0x2000002a   Data           2  main.o(.data)
    timeIT10                                 0x2000002c   Data           2  main.o(.data)
    timeIT100                                0x2000002e   Data           2  main.o(.data)
    timeIT1K                                 0x20000030   Data           2  main.o(.data)
    tim6counter                              0x20000032   Data           2  main.o(.data)
    tim7counter                              0x20000034   Data           2  main.o(.data)
    tim9counter                              0x20000036   Data           2  main.o(.data)
    tim11counter                             0x20000038   Data           2  main.o(.data)
    CurrentMeasurement                       0x2000003a   Data           2  main.o(.data)
    canTxMailbox                             0x2000003c   Data           4  main.o(.data)
    OV                                       0x20000040   Data           4  main.o(.data)
    UV                                       0x20000044   Data           4  main.o(.data)
    NPEC_V                                   0x20000048   Data           4  main.o(.data)
    NPEC_T                                   0x2000004c   Data           4  main.o(.data)
    Idc                                      0x20000050   Data           4  main.o(.data)
    gpioBits_a                               0x20000054   Data           5  main.o(.data)
    rx_data                                  0x20000059   Data           8  main.o(.data)
    uwTickFreq                               0x20000064   Data           1  stm32f4xx_hal.o(.data)
    uwTickPrio                               0x20000068   Data           4  stm32f4xx_hal.o(.data)
    uwTick                                   0x2000006c   Data           4  stm32f4xx_hal.o(.data)
    SystemCoreClock                          0x20000070   Data           4  system_stm32f4xx.o(.data)
    __microlib_freelist                      0x20000074   Data           4  mvars.o(.data)
    __microlib_freelist_initialised          0x20000078   Data           4  mvars.o(.data)
    dccBits_a                                0x20000080   Data          12  main.o(.bss)
    hadc1                                    0x2000008c   Data          72  main.o(.bss)
    hadc2                                    0x200000d4   Data          72  main.o(.bss)
    hadc3                                    0x2000011c   Data          72  main.o(.bss)
    hcan1                                    0x20000164   Data          40  main.o(.bss)
    htim2                                    0x2000018c   Data          64  main.o(.bss)
    htim3                                    0x200001cc   Data          64  main.o(.bss)
    htim6                                    0x2000020c   Data          64  main.o(.bss)
    htim7                                    0x2000024c   Data          64  main.o(.bss)
    htim8                                    0x2000028c   Data          64  main.o(.bss)
    htim9                                    0x200002cc   Data          64  main.o(.bss)
    htim10                                   0x2000030c   Data          64  main.o(.bss)
    htim11                                   0x2000034c   Data          64  main.o(.bss)
    bms_ic                                   0x2000038c   Data         224  main.o(.bss)
    adcVal_100Hz                             0x2000046c   Data          12  main.o(.bss)
    adcVal_10Hz                              0x20000478   Data          10  main.o(.bss)
    testTemperatures                         0x20000488   Data          40  main.o(.bss)
    NV                                       0x200004e4   Data          48  main.o(.bss)
    NT                                       0x20000514   Data          20  main.o(.bss)
    voltages                                 0x20000528   Data          48  main.o(.bss)
    temperatures                             0x20000558   Data          20  main.o(.bss)
    hdma_adc1                                0x2000056c   Data          96  main.o(.bss)
    hdma_adc2                                0x200005cc   Data          96  main.o(.bss)
    hspi1                                    0x2000062c   Data          88  lt_spi.o(.bss)
    __heap_base                              0x20000688   Data           0  startup_stm32f446xx.o(HEAP)
    __heap_limit                             0x20000888   Data           0  startup_stm32f446xx.o(HEAP)
    __initial_sp                             0x20000c88   Data           0  startup_stm32f446xx.o(STACK)



==============================================================================

Memory Map of the image

  Image Entry point : 0x080001c5

  Load Region LR_IROM1 (Base: 0x08000000, Size: 0x00006408, Max: 0x00080000, ABSOLUTE)

    Execution Region ER_IROM1 (Exec base: 0x08000000, Load base: 0x08000000, Size: 0x00006388, Max: 0x00080000, ABSOLUTE)

    Exec Addr    Load Addr    Size         Type   Attr      Idx    E Section Name        Object

    0x08000000   0x08000000   0x000001c4   Data   RO            3    RESET               startup_stm32f446xx.o
    0x080001c4   0x080001c4   0x00000000   Code   RO         4293  * .ARM.Collect$$$$00000000  mc_w.l(entry.o)
    0x080001c4   0x080001c4   0x00000004   Code   RO         4381    .ARM.Collect$$$$00000001  mc_w.l(entry2.o)
    0x080001c8   0x080001c8   0x00000004   Code   RO         4384    .ARM.Collect$$$$00000004  mc_w.l(entry5.o)
    0x080001cc   0x080001cc   0x00000000   Code   RO         4386    .ARM.Collect$$$$00000008  mc_w.l(entry7b.o)
    0x080001cc   0x080001cc   0x00000000   Code   RO         4388    .ARM.Collect$$$$0000000A  mc_w.l(entry8b.o)
    0x080001cc   0x080001cc   0x00000008   Code   RO         4389    .ARM.Collect$$$$0000000B  mc_w.l(entry9a.o)
    0x080001d4   0x080001d4   0x00000000   Code   RO         4391    .ARM.Collect$$$$0000000D  mc_w.l(entry10a.o)
    0x080001d4   0x080001d4   0x00000000   Code   RO         4393    .ARM.Collect$$$$0000000F  mc_w.l(entry11a.o)
    0x080001d4   0x080001d4   0x00000004   Code   RO         4382    .ARM.Collect$$$$00002712  mc_w.l(entry2.o)
    0x080001d8   0x080001d8   0x00000024   Code   RO            4    .text               startup_stm32f446xx.o
    0x080001fc   0x080001fc   0x00000062   Code   RO         4296    .text               mc_w.l(uldiv.o)
    0x0800025e   0x0800025e   0x00000024   Code   RO         4298    .text               mc_w.l(memseta.o)
    0x08000282   0x08000282   0x0000014e   Code   RO         4328    .text               mf_w.l(dadd.o)
    0x080003d0   0x080003d0   0x000000e4   Code   RO         4330    .text               mf_w.l(dmul.o)
    0x080004b4   0x080004b4   0x000000de   Code   RO         4332    .text               mf_w.l(ddiv.o)
    0x08000592   0x08000592   0x0000001a   Code   RO         4334    .text               mf_w.l(dfltui.o)
    0x080005ac   0x080005ac   0x00000026   Code   RO         4336    .text               mf_w.l(f2d.o)
    0x080005d2   0x080005d2   0x00000002   PAD
    0x080005d4   0x080005d4   0x00000030   Code   RO         4338    .text               mf_w.l(cdcmple.o)
    0x08000604   0x08000604   0x00000030   Code   RO         4340    .text               mf_w.l(cdrcmple.o)
    0x08000634   0x08000634   0x00000038   Code   RO         4342    .text               mf_w.l(d2f.o)
    0x0800066c   0x0800066c   0x0000001e   Code   RO         4395    .text               mc_w.l(llshl.o)
    0x0800068a   0x0800068a   0x00000020   Code   RO         4397    .text               mc_w.l(llushr.o)
    0x080006aa   0x080006aa   0x00000024   Code   RO         4399    .text               mc_w.l(llsshr.o)
    0x080006ce   0x080006ce   0x00000000   Code   RO         4414    .text               mc_w.l(iusefp.o)
    0x080006ce   0x080006ce   0x0000006e   Code   RO         4415    .text               mf_w.l(fepilogue.o)
    0x0800073c   0x0800073c   0x000000ba   Code   RO         4417    .text               mf_w.l(depilogue.o)
    0x080007f6   0x080007f6   0x0000002e   Code   RO         4421    .text               mf_w.l(dscalb.o)
    0x08000824   0x08000824   0x00000022   Code   RO         4423    .text               mf_w.l(dflti.o)
    0x08000846   0x08000846   0x00000002   PAD
    0x08000848   0x08000848   0x00000024   Code   RO         4425    .text               mc_w.l(init.o)
    0x0800086c   0x0800086c   0x000000a2   Code   RO         4427    .text               mf_w.l(dsqrt.o)
    0x0800090e   0x0800090e   0x0000006e   Code   RO          526    i.ADC_DMAConvCplt   stm32f4xx_hal_adc.o
    0x0800097c   0x0800097c   0x00000016   Code   RO          527    i.ADC_DMAError      stm32f4xx_hal_adc.o
    0x08000992   0x08000992   0x0000000a   Code   RO          528    i.ADC_DMAHalfConvCplt  stm32f4xx_hal_adc.o
    0x0800099c   0x0800099c   0x00000024   Code   RO          311    i.ADC_IRQHandler    stm32f4xx_it.o
    0x080009c0   0x080009c0   0x00000128   Code   RO          529    i.ADC_Init          stm32f4xx_hal_adc.o
    0x08000ae8   0x08000ae8   0x00000002   Code   RO          312    i.BusFault_Handler  stm32f4xx_it.o
    0x08000aea   0x08000aea   0x00000002   PAD
    0x08000aec   0x08000aec   0x0000000c   Code   RO          313    i.CAN1_RX0_IRQHandler  stm32f4xx_it.o
    0x08000af8   0x08000af8   0x00000030   Code   RO           13    i.CanFilterConfig   main.o
    0x08000b28   0x08000b28   0x0000000c   Code   RO          314    i.DMA2_Stream0_IRQHandler  stm32f4xx_it.o
    0x08000b34   0x08000b34   0x0000000c   Code   RO          315    i.DMA2_Stream2_IRQHandler  stm32f4xx_it.o
    0x08000b40   0x08000b40   0x00000028   Code   RO         2828    i.DMA_CalcBaseAndBitshift  stm32f4xx_hal_dma.o
    0x08000b68   0x08000b68   0x00000054   Code   RO         2829    i.DMA_CheckFifoParam  stm32f4xx_hal_dma.o
    0x08000bbc   0x08000bbc   0x00000028   Code   RO         2830    i.DMA_SetConfig     stm32f4xx_hal_dma.o
    0x08000be4   0x08000be4   0x00000002   Code   RO          316    i.DebugMon_Handler  stm32f4xx_it.o
    0x08000be6   0x08000be6   0x00000002   Code   RO           14    i.Error_Handler     main.o
    0x08000be8   0x08000be8   0x00000002   Code   RO          700    i.HAL_ADCEx_InjectedConvCpltCallback  stm32f4xx_hal_adc_ex.o
    0x08000bea   0x08000bea   0x00000002   PAD
    0x08000bec   0x08000bec   0x00000164   Code   RO          531    i.HAL_ADC_ConfigChannel  stm32f4xx_hal_adc.o
    0x08000d50   0x08000d50   0x00000080   Code   RO           15    i.HAL_ADC_ConvCpltCallback  main.o
    0x08000dd0   0x08000dd0   0x00000002   Code   RO          533    i.HAL_ADC_ConvHalfCpltCallback  stm32f4xx_hal_adc.o
    0x08000dd2   0x08000dd2   0x00000002   Code   RO          535    i.HAL_ADC_ErrorCallback  stm32f4xx_hal_adc.o
    0x08000dd4   0x08000dd4   0x00000006   Code   RO          538    i.HAL_ADC_GetValue  stm32f4xx_hal_adc.o
    0x08000dda   0x08000dda   0x0000013c   Code   RO          539    i.HAL_ADC_IRQHandler  stm32f4xx_hal_adc.o
    0x08000f16   0x08000f16   0x00000054   Code   RO          540    i.HAL_ADC_Init      stm32f4xx_hal_adc.o
    0x08000f6a   0x08000f6a   0x00000002   Code   RO          541    i.HAL_ADC_LevelOutOfWindowCallback  stm32f4xx_hal_adc.o
    0x08000f6c   0x08000f6c   0x00000178   Code   RO          454    i.HAL_ADC_MspInit   stm32f4xx_hal_msp.o
    0x080010e4   0x080010e4   0x00000130   Code   RO          547    i.HAL_ADC_Start_DMA  stm32f4xx_hal_adc.o
    0x08001214   0x08001214   0x000000f8   Code   RO          548    i.HAL_ADC_Start_IT  stm32f4xx_hal_adc.o
    0x0800130c   0x0800130c   0x00000024   Code   RO          802    i.HAL_CAN_ActivateNotification  stm32f4xx_hal_can.o
    0x08001330   0x08001330   0x000000c8   Code   RO          803    i.HAL_CAN_AddTxMessage  stm32f4xx_hal_can.o
    0x080013f8   0x080013f8   0x0000010c   Code   RO          804    i.HAL_CAN_ConfigFilter  stm32f4xx_hal_can.o
    0x08001504   0x08001504   0x00000002   Code   RO          807    i.HAL_CAN_ErrorCallback  stm32f4xx_hal_can.o
    0x08001506   0x08001506   0x000000e8   Code   RO          810    i.HAL_CAN_GetRxMessage  stm32f4xx_hal_can.o
    0x080015ee   0x080015ee   0x000001fc   Code   RO          814    i.HAL_CAN_IRQHandler  stm32f4xx_hal_can.o
    0x080017ea   0x080017ea   0x0000011a   Code   RO          815    i.HAL_CAN_Init      stm32f4xx_hal_can.o
    0x08001904   0x08001904   0x0000001e   Code   RO          817    i.HAL_CAN_IsTxMessagePending  stm32f4xx_hal_can.o
    0x08001922   0x08001922   0x00000002   PAD
    0x08001924   0x08001924   0x0000007c   Code   RO          456    i.HAL_CAN_MspInit   stm32f4xx_hal_msp.o
    0x080019a0   0x080019a0   0x00000002   Code   RO          822    i.HAL_CAN_RxFifo0FullCallback  stm32f4xx_hal_can.o
    0x080019a2   0x080019a2   0x00000002   PAD
    0x080019a4   0x080019a4   0x00000084   Code   RO           16    i.HAL_CAN_RxFifo0MsgPendingCallback  main.o
    0x08001a28   0x08001a28   0x00000002   Code   RO          824    i.HAL_CAN_RxFifo1FullCallback  stm32f4xx_hal_can.o
    0x08001a2a   0x08001a2a   0x00000002   Code   RO          825    i.HAL_CAN_RxFifo1MsgPendingCallback  stm32f4xx_hal_can.o
    0x08001a2c   0x08001a2c   0x00000002   Code   RO          826    i.HAL_CAN_SleepCallback  stm32f4xx_hal_can.o
    0x08001a2e   0x08001a2e   0x00000002   PAD
    0x08001a30   0x08001a30   0x00000058   Code   RO          827    i.HAL_CAN_Start     stm32f4xx_hal_can.o
    0x08001a88   0x08001a88   0x00000002   Code   RO          829    i.HAL_CAN_TxMailbox0AbortCallback  stm32f4xx_hal_can.o
    0x08001a8a   0x08001a8a   0x00000002   Code   RO          830    i.HAL_CAN_TxMailbox0CompleteCallback  stm32f4xx_hal_can.o
    0x08001a8c   0x08001a8c   0x00000002   Code   RO          831    i.HAL_CAN_TxMailbox1AbortCallback  stm32f4xx_hal_can.o
    0x08001a8e   0x08001a8e   0x00000002   Code   RO          832    i.HAL_CAN_TxMailbox1CompleteCallback  stm32f4xx_hal_can.o
    0x08001a90   0x08001a90   0x00000002   Code   RO          833    i.HAL_CAN_TxMailbox2AbortCallback  stm32f4xx_hal_can.o
    0x08001a92   0x08001a92   0x00000002   Code   RO          834    i.HAL_CAN_TxMailbox2CompleteCallback  stm32f4xx_hal_can.o
    0x08001a94   0x08001a94   0x00000002   Code   RO          836    i.HAL_CAN_WakeUpFromRxMsgCallback  stm32f4xx_hal_can.o
    0x08001a96   0x08001a96   0x00000002   PAD
    0x08001a98   0x08001a98   0x000001a0   Code   RO         2836    i.HAL_DMA_IRQHandler  stm32f4xx_hal_dma.o
    0x08001c38   0x08001c38   0x000000d4   Code   RO         2837    i.HAL_DMA_Init      stm32f4xx_hal_dma.o
    0x08001d0c   0x08001d0c   0x00000078   Code   RO         2841    i.HAL_DMA_Start_IT  stm32f4xx_hal_dma.o
    0x08001d84   0x08001d84   0x00000024   Code   RO         3268    i.HAL_Delay         stm32f4xx_hal.o
    0x08001da8   0x08001da8   0x000001a4   Code   RO         2724    i.HAL_GPIO_Init     stm32f4xx_hal_gpio.o
    0x08001f4c   0x08001f4c   0x0000000a   Code   RO         2726    i.HAL_GPIO_ReadPin  stm32f4xx_hal_gpio.o
    0x08001f56   0x08001f56   0x0000000a   Code   RO         2728    i.HAL_GPIO_WritePin  stm32f4xx_hal_gpio.o
    0x08001f60   0x08001f60   0x0000000c   Code   RO         3274    i.HAL_GetTick       stm32f4xx_hal.o
    0x08001f6c   0x08001f6c   0x00000010   Code   RO         3280    i.HAL_IncTick       stm32f4xx_hal.o
    0x08001f7c   0x08001f7c   0x00000034   Code   RO         3281    i.HAL_Init          stm32f4xx_hal.o
    0x08001fb0   0x08001fb0   0x00000040   Code   RO         3282    i.HAL_InitTick      stm32f4xx_hal.o
    0x08001ff0   0x08001ff0   0x00000034   Code   RO          457    i.HAL_MspInit       stm32f4xx_hal_msp.o
    0x08002024   0x08002024   0x0000001a   Code   RO         3131    i.HAL_NVIC_EnableIRQ  stm32f4xx_hal_cortex.o
    0x0800203e   0x0800203e   0x00000002   PAD
    0x08002040   0x08002040   0x00000040   Code   RO         3137    i.HAL_NVIC_SetPriority  stm32f4xx_hal_cortex.o
    0x08002080   0x08002080   0x00000024   Code   RO         3138    i.HAL_NVIC_SetPriorityGrouping  stm32f4xx_hal_cortex.o
    0x080020a4   0x080020a4   0x00000024   Code   RO         3139    i.HAL_NVIC_SystemReset  stm32f4xx_hal_cortex.o
    0x080020c8   0x080020c8   0x00000130   Code   RO         2286    i.HAL_RCC_ClockConfig  stm32f4xx_hal_rcc.o
    0x080021f8   0x080021f8   0x00000094   Code   RO         2397    i.HAL_RCC_GetSysClockFreq  stm32f4xx_hal_rcc_ex.o
    0x0800228c   0x0800228c   0x00000344   Code   RO         2398    i.HAL_RCC_OscConfig  stm32f4xx_hal_rcc_ex.o
    0x080025d0   0x080025d0   0x00000080   Code   RO         1046    i.HAL_SPI_Init      stm32f4xx_hal_spi.o
    0x08002650   0x08002650   0x00000068   Code   RO          459    i.HAL_SPI_MspInit   stm32f4xx_hal_msp.o
    0x080026b8   0x080026b8   0x000001e2   Code   RO         1055    i.HAL_SPI_TransmitReceive  stm32f4xx_hal_spi.o
    0x0800289a   0x0800289a   0x00000028   Code   RO         3142    i.HAL_SYSTICK_Config  stm32f4xx_hal_cortex.o
    0x080028c2   0x080028c2   0x00000002   Code   RO         2034    i.HAL_TIMEx_BreakCallback  stm32f4xx_hal_tim_ex.o
    0x080028c4   0x080028c4   0x00000002   Code   RO         2035    i.HAL_TIMEx_CommutCallback  stm32f4xx_hal_tim_ex.o
    0x080028c6   0x080028c6   0x00000042   Code   RO         2052    i.HAL_TIMEx_MasterConfigSynchronization  stm32f4xx_hal_tim_ex.o
    0x08002908   0x08002908   0x00000036   Code   RO         1359    i.HAL_TIM_Base_Init  stm32f4xx_hal_tim.o
    0x0800293e   0x0800293e   0x00000002   PAD
    0x08002940   0x08002940   0x00000144   Code   RO          461    i.HAL_TIM_Base_MspInit  stm32f4xx_hal_msp.o
    0x08002a84   0x08002a84   0x00000024   Code   RO         1362    i.HAL_TIM_Base_Start  stm32f4xx_hal_tim.o
    0x08002aa8   0x08002aa8   0x00000022   Code   RO         1364    i.HAL_TIM_Base_Start_IT  stm32f4xx_hal_tim.o
    0x08002aca   0x08002aca   0x0000002a   Code   RO         1367    i.HAL_TIM_Base_Stop_IT  stm32f4xx_hal_tim.o
    0x08002af4   0x08002af4   0x000000d6   Code   RO         1368    i.HAL_TIM_ConfigClockSource  stm32f4xx_hal_tim.o
    0x08002bca   0x08002bca   0x00000002   Code   RO         1388    i.HAL_TIM_IC_CaptureCallback  stm32f4xx_hal_tim.o
    0x08002bcc   0x08002bcc   0x00000166   Code   RO         1402    i.HAL_TIM_IRQHandler  stm32f4xx_hal_tim.o
    0x08002d32   0x08002d32   0x00000002   Code   RO         1405    i.HAL_TIM_OC_DelayElapsedCallback  stm32f4xx_hal_tim.o
    0x08002d34   0x08002d34   0x00000002   Code   RO         1432    i.HAL_TIM_PWM_PulseFinishedCallback  stm32f4xx_hal_tim.o
    0x08002d36   0x08002d36   0x00000002   PAD
    0x08002d38   0x08002d38   0x00000138   Code   RO           17    i.HAL_TIM_PeriodElapsedCallback  main.o
    0x08002e70   0x08002e70   0x00000002   Code   RO         1445    i.HAL_TIM_TriggerCallback  stm32f4xx_hal_tim.o
    0x08002e72   0x08002e72   0x00000002   Code   RO          317    i.HardFault_Handler  stm32f4xx_it.o
    0x08002e74   0x08002e74   0x00000038   Code   RO         3554    i.LTC6811_Initialize  lt_spi.o
    0x08002eac   0x08002eac   0x00000004   Code   RO         3977    i.LTC6811_adax      ltc6811.o
    0x08002eb0   0x08002eb0   0x00000004   Code   RO         3979    i.LTC6811_adcv      ltc6811.o
    0x08002eb4   0x08002eb4   0x00000064   Code   RO           18    i.LTC6811_init      main.o
    0x08002f18   0x08002f18   0x00000004   Code   RO         3994    i.LTC6811_init_cfg  ltc6811.o
    0x08002f1c   0x08002f1c   0x00000036   Code   RO         3996    i.LTC6811_init_reg_limits  ltc6811.o
    0x08002f52   0x08002f52   0x00000004   Code   RO         4000    i.LTC6811_rdaux     ltc6811.o
    0x08002f56   0x08002f56   0x0000000a   Code   RO         4003    i.LTC6811_rdcv      ltc6811.o
    0x08002f60   0x08002f60   0x00000004   Code   RO         4006    i.LTC6811_reset_crc_count  ltc6811.o
    0x08002f64   0x08002f64   0x00000034   Code   RO         4011    i.LTC6811_set_cfgr  ltc6811.o
    0x08002f98   0x08002f98   0x00000004   Code   RO         4021    i.LTC6811_wrcfg     ltc6811.o
    0x08002f9c   0x08002f9c   0x0000001e   Code   RO         3627    i.LTC681x_adax      ltc681x.o
    0x08002fba   0x08002fba   0x00000022   Code   RO         3629    i.LTC681x_adcv      ltc681x.o
    0x08002fdc   0x08002fdc   0x00000122   Code   RO         3637    i.LTC681x_check_pec  ltc681x.o
    0x080030fe   0x080030fe   0x00000002   PAD
    0x08003100   0x08003100   0x0000006c   Code   RO         3644    i.LTC681x_init_cfg  ltc681x.o
    0x0800316c   0x0800316c   0x000000c4   Code   RO         3647    i.LTC681x_rdaux     ltc681x.o
    0x08003230   0x08003230   0x0000005c   Code   RO         3648    i.LTC681x_rdaux_reg  ltc681x.o
    0x0800328c   0x0800328c   0x000000cc   Code   RO         3652    i.LTC681x_rdcv      ltc681x.o
    0x08003358   0x08003358   0x0000006a   Code   RO         3653    i.LTC681x_rdcv_reg  ltc681x.o
    0x080033c2   0x080033c2   0x00000002   PAD
    0x080033c4   0x080033c4   0x00000052   Code   RO         3657    i.LTC681x_reset_crc_count  ltc681x.o
    0x08003416   0x08003416   0x00000030   Code   RO         3662    i.LTC681x_set_cfgr  ltc681x.o
    0x08003446   0x08003446   0x0000001a   Code   RO         3663    i.LTC681x_set_cfgr_adcopt  ltc681x.o
    0x08003460   0x08003460   0x00000048   Code   RO         3664    i.LTC681x_set_cfgr_dis  ltc681x.o
    0x080034a8   0x080034a8   0x0000002e   Code   RO         3665    i.LTC681x_set_cfgr_gpio  ltc681x.o
    0x080034d6   0x080034d6   0x0000001a   Code   RO         3667    i.LTC681x_set_cfgr_refon  ltc681x.o
    0x080034f0   0x080034f0   0x00000058   Code   RO         3672    i.LTC681x_wrcfg     ltc681x.o
    0x08003548   0x08003548   0x00000090   Code   RO           19    i.MX_ADC1_Init      main.o
    0x080035d8   0x080035d8   0x000000a0   Code   RO           20    i.MX_ADC2_Init      main.o
    0x08003678   0x08003678   0x00000054   Code   RO           21    i.MX_ADC3_Init      main.o
    0x080036cc   0x080036cc   0x00000030   Code   RO           22    i.MX_CAN1_Init      main.o
    0x080036fc   0x080036fc   0x000000a4   Code   RO           23    i.MX_GPIO_Init      main.o
    0x080037a0   0x080037a0   0x00000054   Code   RO           24    i.MX_TIM2_Init      main.o
    0x080037f4   0x080037f4   0x00000058   Code   RO           25    i.MX_TIM3_Init      main.o
    0x0800384c   0x0800384c   0x00000058   Code   RO           26    i.MX_TIM8_Init      main.o
    0x080038a4   0x080038a4   0x00000002   Code   RO          318    i.MemManage_Handler  stm32f4xx_it.o
    0x080038a6   0x080038a6   0x00000002   Code   RO          319    i.NMI_Handler       stm32f4xx_it.o
    0x080038a8   0x080038a8   0x00000002   Code   RO          320    i.PendSV_Handler    stm32f4xx_it.o
    0x080038aa   0x080038aa   0x00000002   PAD
    0x080038ac   0x080038ac   0x00000058   Code   RO         1084    i.SPI_EndRxTxTransaction  stm32f4xx_hal_spi.o
    0x08003904   0x08003904   0x00000094   Code   RO         1089    i.SPI_WaitFlagStateUntilTimeout  stm32f4xx_hal_spi.o
    0x08003998   0x08003998   0x00000002   Code   RO          321    i.SVC_Handler       stm32f4xx_it.o
    0x0800399a   0x0800399a   0x00000004   Code   RO          322    i.SysTick_Handler   stm32f4xx_it.o
    0x0800399e   0x0800399e   0x00000002   PAD
    0x080039a0   0x080039a0   0x00000088   Code   RO           27    i.SystemClock_Config  main.o
    0x08003a28   0x08003a28   0x00000054   Code   RO         3517    i.SystemInit        system_stm32f4xx.o
    0x08003a7c   0x08003a7c   0x0000000c   Code   RO          323    i.TIM1_BRK_TIM9_IRQHandler  stm32f4xx_it.o
    0x08003a88   0x08003a88   0x0000000c   Code   RO          324    i.TIM1_TRG_COM_TIM11_IRQHandler  stm32f4xx_it.o
    0x08003a94   0x08003a94   0x0000000c   Code   RO          325    i.TIM1_UP_TIM10_IRQHandler  stm32f4xx_it.o
    0x08003aa0   0x08003aa0   0x0000000c   Code   RO          326    i.TIM2_IRQHandler   stm32f4xx_it.o
    0x08003aac   0x08003aac   0x0000000c   Code   RO          327    i.TIM3_IRQHandler   stm32f4xx_it.o
    0x08003ab8   0x08003ab8   0x0000000c   Code   RO          328    i.TIM6_DAC_IRQHandler  stm32f4xx_it.o
    0x08003ac4   0x08003ac4   0x0000000c   Code   RO          329    i.TIM7_IRQHandler   stm32f4xx_it.o
    0x08003ad0   0x08003ad0   0x000000c8   Code   RO         1447    i.TIM_Base_SetConfig  stm32f4xx_hal_tim.o
    0x08003b98   0x08003b98   0x00000014   Code   RO         1458    i.TIM_ETR_SetConfig  stm32f4xx_hal_tim.o
    0x08003bac   0x08003bac   0x00000010   Code   RO         1459    i.TIM_ITRx_SetConfig  stm32f4xx_hal_tim.o
    0x08003bbc   0x08003bbc   0x00000022   Code   RO         1465    i.TIM_TI1_ConfigInputStage  stm32f4xx_hal_tim.o
    0x08003bde   0x08003bde   0x00000024   Code   RO         1467    i.TIM_TI2_ConfigInputStage  stm32f4xx_hal_tim.o
    0x08003c02   0x08003c02   0x00000002   Code   RO          330    i.UsageFault_Handler  stm32f4xx_it.o
    0x08003c04   0x08003c04   0x00000030   Code   RO         4364    i.__ARM_fpclassify  m_wm.l(fpclassify.o)
    0x08003c34   0x08003c34   0x00000020   Code   RO         3144    i.__NVIC_SetPriority  stm32f4xx_hal_cortex.o
    0x08003c54   0x08003c54   0x00000004   PAD
    0x08003c58   0x08003c58   0x000003c4   Code   RO         4265    i.__hardfp_log      m_wm.l(log.o)
    0x0800401c   0x0800401c   0x00000004   PAD
    0x08004020   0x08004020   0x00000c50   Code   RO         4279    i.__hardfp_pow      m_wm.l(pow.o)
    0x08004c70   0x08004c70   0x000000f8   Code   RO         4366    i.__kernel_poly     m_wm.l(poly.o)
    0x08004d68   0x08004d68   0x00000030   Code   RO         4344    i.__mathlib_dbl_divzero  m_wm.l(dunder.o)
    0x08004d98   0x08004d98   0x00000014   Code   RO         4345    i.__mathlib_dbl_infnan  m_wm.l(dunder.o)
    0x08004dac   0x08004dac   0x00000014   Code   RO         4346    i.__mathlib_dbl_infnan2  m_wm.l(dunder.o)
    0x08004dc0   0x08004dc0   0x00000020   Code   RO         4347    i.__mathlib_dbl_invalid  m_wm.l(dunder.o)
    0x08004de0   0x08004de0   0x00000020   Code   RO         4348    i.__mathlib_dbl_overflow  m_wm.l(dunder.o)
    0x08004e00   0x08004e00   0x00000020   Code   RO         4350    i.__mathlib_dbl_underflow  m_wm.l(dunder.o)
    0x08004e20   0x08004e20   0x0000000e   Code   RO         4431    i.__scatterload_copy  mc_w.l(handlers.o)
    0x08004e2e   0x08004e2e   0x00000002   Code   RO         4432    i.__scatterload_null  mc_w.l(handlers.o)
    0x08004e30   0x08004e30   0x0000000e   Code   RO         4433    i.__scatterload_zeroinit  mc_w.l(handlers.o)
    0x08004e3e   0x08004e3e   0x00000002   PAD
    0x08004e40   0x08004e40   0x0000000c   Code   RO         4409    i.__set_errno       mc_w.l(errno.o)
    0x08004e4c   0x08004e4c   0x000000b0   Code   RO           28    i.canTransmit100Hz  main.o
    0x08004efc   0x08004efc   0x00000114   Code   RO           29    i.canTransmit10Hz   main.o
    0x08005010   0x08005010   0x00000050   Code   RO           30    i.canTransmit1KHz   main.o
    0x08005060   0x08005060   0x000001e4   Code   RO           31    i.canTransmitCvAux  main.o
    0x08005244   0x08005244   0x00000032   Code   RO         3677    i.cmd_68            ltc681x.o
    0x08005276   0x08005276   0x00000002   PAD
    0x08005278   0x08005278   0x00000010   Code   RO         3555    i.cs_high           lt_spi.o
    0x08005288   0x08005288   0x00000010   Code   RO         3556    i.cs_low            lt_spi.o
    0x08005298   0x08005298   0x000001a8   Code   RO           32    i.errorCheck        main.o
    0x08005440   0x08005440   0x00000038   Code   RO           33    i.errorCounterInit  main.o
    0x08005478   0x08005478   0x00000018   Code   RO         4360    i.fabs              m_wm.l(fabs.o)
    0x08005490   0x08005490   0x00000050   Code   RO         4300    i.free              mc_w.l(malloc.o)
    0x080054e0   0x080054e0   0x000002f4   Code   RO           34    i.main              main.o
    0x080057d4   0x080057d4   0x0000006c   Code   RO         4301    i.malloc            mc_w.l(malloc.o)
    0x08005840   0x08005840   0x00000066   Code   RO         3678    i.parse_cells       ltc681x.o
    0x080058a6   0x080058a6   0x00000002   PAD
    0x080058a8   0x080058a8   0x00000034   Code   RO         3679    i.pec15_calc        ltc681x.o
    0x080058dc   0x080058dc   0x00000024   Code   RO         3557    i.spi_read_byte     lt_spi.o
    0x08005900   0x08005900   0x0000002c   Code   RO         3559    i.spi_write_array   lt_spi.o
    0x0800592c   0x0800592c   0x00000050   Code   RO         3560    i.spi_write_read    lt_spi.o
    0x0800597c   0x0800597c   0x0000006e   Code   RO         4371    i.sqrt              m_wm.l(sqrt.o)
    0x080059ea   0x080059ea   0x00000002   PAD
    0x080059ec   0x080059ec   0x0000001c   Code   RO           35    i.state_change      main.o
    0x08005a08   0x08005a08   0x000005a2   Code   RO           36    i.tempConvert       main.o
    0x08005faa   0x08005faa   0x0000001e   Code   RO         3681    i.wakeup_idle       ltc681x.o
    0x08005fc8   0x08005fc8   0x0000001e   Code   RO         3682    i.wakeup_sleep      ltc681x.o
    0x08005fe6   0x08005fe6   0x00000094   Code   RO         3683    i.write_68          ltc681x.o
    0x0800607a   0x0800607a   0x00000008   Data   RO         2843    .constdata          stm32f4xx_hal_dma.o
    0x08006082   0x08006082   0x00000010   Data   RO         3518    .constdata          system_stm32f4xx.o
    0x08006092   0x08006092   0x00000002   PAD
    0x08006094   0x08006094   0x00000206   Data   RO         3684    .constdata          ltc681x.o
    0x0800629a   0x0800629a   0x00000006   PAD
    0x080062a0   0x080062a0   0x00000038   Data   RO         4268    .constdata          m_wm.l(log.o)
    0x080062d8   0x080062d8   0x00000088   Data   RO         4282    .constdata          m_wm.l(pow.o)
    0x08006360   0x08006360   0x00000008   Data   RO         4368    .constdata          m_wm.l(qnan.o)
    0x08006368   0x08006368   0x00000020   Data   RO         4429    Region$$Table       anon$$obj.o


    Execution Region RW_IRAM1 (Exec base: 0x20000000, Load base: 0x08006388, Size: 0x00000c88, Max: 0x00020000, ABSOLUTE)

    Exec Addr    Load Addr    Size         Type   Attr      Idx    E Section Name        Object

    0x20000000   0x08006388   0x00000061   Data   RW           41    .data               main.o
    0x20000061   0x080063e9   0x00000003   PAD
    0x20000064   0x080063ec   0x0000000c   Data   RW         3288    .data               stm32f4xx_hal.o
    0x20000070   0x080063f8   0x00000004   Data   RW         3520    .data               system_stm32f4xx.o
    0x20000074   0x080063fc   0x00000004   Data   RW         4405    .data               mc_w.l(mvars.o)
    0x20000078   0x08006400   0x00000004   Data   RW         4406    .data               mc_w.l(mvars.o)
    0x2000007c   0x08006404   0x00000004   Data   RW         4410    .data               mc_w.l(errno.o)
    0x20000080        -       0x000004ec   Zero   RW           37    .bss                main.o
    0x2000056c        -       0x00000060   Zero   RW           38    .bss                main.o
    0x200005cc        -       0x00000060   Zero   RW           39    .bss                main.o
    0x2000062c        -       0x00000058   Zero   RW         3561    .bss                lt_spi.o
    0x20000684   0x08006408   0x00000004   PAD
    0x20000688        -       0x00000200   Zero   RW            2    HEAP                startup_stm32f446xx.o
    0x20000888        -       0x00000400   Zero   RW            1    STACK               startup_stm32f446xx.o


==============================================================================

Image component sizes


      Code (inc. data)   RO Data    RW Data    ZI Data      Debug   Object Name

       248         30          0          0         88       4175   lt_spi.o
       140          0          0          0          0       5919   ltc6811.o
      1860         20        518          0          0      21141   ltc681x.o
      5440        436          0         97       1452     762787   main.o
        36          8        452          0       1536        876   startup_stm32f446xx.o
       180         28          0         12          0       4861   stm32f4xx_hal.o
      1758         98          0          0          0      10348   stm32f4xx_hal_adc.o
         2          0          0          0          0       1065   stm32f4xx_hal_adc_ex.o
      1668          6          0          0          0      15896   stm32f4xx_hal_can.o
       234         24          0          0          0      34846   stm32f4xx_hal_cortex.o
       912         16          8          0          0       6099   stm32f4xx_hal_dma.o
       440         42          0          0          0       3231   stm32f4xx_hal_gpio.o
       980        102          0          0          0       4685   stm32f4xx_hal_msp.o
       304         18          0          0          0       1780   stm32f4xx_hal_rcc.o
       984         30          0          0          0       2834   stm32f4xx_hal_rcc_ex.o
       846          8          0          0          0       4941   stm32f4xx_hal_spi.o
      1052         44          0          0          0      11905   stm32f4xx_hal_tim.o
        70          0          0          0          0       2597   stm32f4xx_hal_tim_ex.o
       176         72          0          0          0      10055   stm32f4xx_it.o
        84         18         16          4          0       1279   system_stm32f4xx.o

    ----------------------------------------------------------------------
     17448       1000       1034        116       3080     911320   Object Totals
         0          0         32          0          0          0   (incl. Generated)
        34          0          8          3          4          0   (incl. Padding)

    ----------------------------------------------------------------------

      Code (inc. data)   RO Data    RW Data    ZI Data      Debug   Library Member Name

       184         44          0          0          0        744   dunder.o
        24          0          0          0          0        124   fabs.o
        48          0          0          0          0        124   fpclassify.o
       964         92         56          0          0        316   log.o
       248          0          0          0          0        152   poly.o
      3152        296        136          0          0        352   pow.o
         0          0          8          0          0          0   qnan.o
       110          0          0          0          0        148   sqrt.o
         0          0          0          0          0          0   entry.o
         0          0          0          0          0          0   entry10a.o
         0          0          0          0          0          0   entry11a.o
         8          4          0          0          0          0   entry2.o
         4          0          0          0          0          0   entry5.o
         0          0          0          0          0          0   entry7b.o
         0          0          0          0          0          0   entry8b.o
         8          4          0          0          0          0   entry9a.o
        12          6          0          4          0         68   errno.o
        30          0          0          0          0          0   handlers.o
        36          8          0          0          0         68   init.o
         0          0          0          0          0          0   iusefp.o
        30          0          0          0          0         68   llshl.o
        36          0          0          0          0         68   llsshr.o
        32          0          0          0          0         68   llushr.o
       188         20          0          0          0        160   malloc.o
        36          0          0          0          0        108   memseta.o
         0          0          0          8          0          0   mvars.o
        98          0          0          0          0         92   uldiv.o
        48          0          0          0          0         68   cdcmple.o
        48          0          0          0          0         68   cdrcmple.o
        56          0          0          0          0         88   d2f.o
       334          0          0          0          0        148   dadd.o
       222          0          0          0          0        100   ddiv.o
       186          0          0          0          0        176   depilogue.o
        34          0          0          0          0         76   dflti.o
        26          0          0          0          0         76   dfltui.o
       228          0          0          0          0         96   dmul.o
        46          0          0          0          0         80   dscalb.o
       162          0          0          0          0        100   dsqrt.o
        38          0          0          0          0         68   f2d.o
       110          0          0          0          0        168   fepilogue.o

    ----------------------------------------------------------------------
      6798        478        200         12          0       3972   Library Totals
        12          4          0          0          0          0   (incl. Padding)

    ----------------------------------------------------------------------

      Code (inc. data)   RO Data    RW Data    ZI Data      Debug   Library Name

      4730        432        200          0          0       1960   m_wm.l
       518         42          0         12          0        700   mc_w.l
      1538          0          0          0          0       1312   mf_w.l

    ----------------------------------------------------------------------
      6798        478        200         12          0       3972   Library Totals

    ----------------------------------------------------------------------

==============================================================================


      Code (inc. data)   RO Data    RW Data    ZI Data      Debug   

     24246       1478       1234        128       3080     897508   Grand Totals
     24246       1478       1234        128       3080     897508   ELF Image Totals
     24246       1478       1234        128          0          0   ROM Totals

==============================================================================

    Total RO  Size (Code + RO Data)                25480 (  24.88kB)
    Total RW  Size (RW Data + ZI Data)              3208 (   3.13kB)
    Total ROM Size (Code + RO Data + RW Data)      25608 (  25.01kB)

==============================================================================

