:020000040800F2
:10000000880C0020D9010008A7380008732E0008CA
:10001000A5380008E90A0008033C000800000000B9
:1000200000000000000000000000000099390008F6
:10003000E50B000800000000A93800089B39000803
:10004000F3010008F3010008F3010008F3010008C0
:10005000F3010008F3010008F3010008F3010008B0
:10006000F3010008F3010008F3010008F3010008A0
:10007000F3010008F3010008F3010008F301000890
:10008000F3010008F30100089D090008F3010008CE
:10009000ED0A0008F3010008F3010008F30100086D
:1000A0007D3A0008953A0008893A0008F3010008F3
:1000B000A13A0008AD3A0008F3010008F301000876
:1000C000F3010008F3010008F3010008F301000840
:1000D000F3010008F3010008F3010008F301000830
:1000E000F3010008F3010008F3010008F301000820
:1000F000F3010008F3010008F3010008F301000810
:10010000F3010008F3010008F3010008F3010008FF
:10011000F3010008F3010008B93A0008C53A0008E5
:10012000290B0008F3010008350B0008F301000853
:10013000F30100080000000000000000F3010008C7
:10014000F3010008F3010008F3010008F3010008BF
:10015000F3010008F3010008F3010008F3010008AF
:10016000F3010008F3010008F3010008F30100089F
:10017000F3010008F3010008F3010008000000008B
:1001800000000000F3010008000000000000000073
:10019000F30100080000000000000000F301000867
:1001A000000000000000000000000000F301000853
:1001B000F3010008F3010008F3010008F30100084F
:1001C000F3010008DFF80CD000F03EFB00480047C8
:1001D000E1540008880C0020064880470648004784
:1001E000FEE7FEE7FEE7FEE7FEE7FEE7FEE7FEE7E7
:1001F000FEE7FEE7293A0008C50100082DE9F05F97
:100200000546002092469B46884606468146402485
:100210001BE0284641464746224600F036FA534640
:100220005A46C01A914110D311461846224600F092
:100230001DFA2D1A67EB01084F46224601200021C6
:1002400000F014FA17EB00094E41201EA4F101043E
:10025000DFDC484631462A464346BDE8F09FD2B22D
:1002600001E000F8012B491EFBD270470022F6E79F
:1002700010B513460A4604461946FFF7F0FF20461C
:1002800010BD2DE9FE4F804681EA0300C00F0C46E9
:10029000009021F0004123F00045B8EB0200A94195
:1002A00005D24046214690461C460B46024623F0A6
:1002B0000040104347D0270DC7F30A00C3F30A518B
:1002C0000290401A019040286BDAC3F3130040F407
:1002D000801B0098924620B10023D2EB030A63EB07
:1002E0000B0B01985946C0F14002504600F0BEF990
:1002F00006460D4650465946019A00F0D6F910EBD5
:1003000008006141002487EA115284EAE7731A4326
:1003100040D0009A62B3019A012A4FEA075215DCD5
:10032000001B61EB02014FF0004202EA0752CDE9E7
:100330000042001C41F5801132462B4600F00DFAB8
:1003400003B0BDE8F08F40462146F9E7001B61EBA2
:100350000201001C41F5801300185B412018A2F532
:10036000001747EB030140EAD570B6196D4111E063
:100370006D084FEA360645EAC0754FEA0752001B82
:1003800061EB0201001C41F5801149084FEA300081
:100390000019514132462B4603B0BDE8F04F00F042
:1003A000CDB90098012240000023D0EB020263EB9C
:1003B000E073009821464FEAE074B8EB000061EB6F
:1003C0000401E9E783F000435BE781F0004158E76F
:1003D0002DE9FE4F81EA030404F0004421F00041BE
:1003E00000944FF0000B23F0004350EA01045ED06C
:1003F00052EA03045BD0C3F30A54C1F30A552C44F8
:10040000A4F2F3340194A0FB0254C1F3130141F4AC
:100410008011C3F3130343F4801301FB024400FB78
:10042000034E840A970A44EA815447EA8357A4FB9F
:10043000076802958D0A05FB07854FEA932C04FB9C
:100440000C542705029D4FEA065847EA1637B5EBCC
:1004500008056EEB070C870E920E47EA811742EAF9
:100460008312A7FB0201B6EB0B0164EB00042B0D1A
:1004700043EA0C335E1844EB1C50DA465146E7FB66
:100480000201C5F313044FEA0B3343EA14534FEA56
:100490000432019C43EA0603A4F10C040294009C7C
:1004A000CDE900B400F059F903B0BDE8F08F0020A9
:1004B0000146F9E72DE9F04D81EA030404F0004B11
:1004C00021F0004514464FF0000A23F0004150EAA5
:1004D000050220D054EA01021DD0C5F30A57024696
:1004E000C5F31303C1F31300C1F30A5640F480159A
:1004F00043F48013A7EB0608101BD64608F2FD381C
:1005000073EB050002D308F1010801E092185B418A
:10051000B8F1000F03DA00200146BDE8F08D00209D
:100520004FF48011064684460EE0171B73EB050757
:1005300005D3121B63EB050306434CEA010C490883
:100540004FEA300092185B4150EA0107EDD152EAC0
:10055000030012D082EA040083EA0501084305D0B3
:10056000101BAB4106D20122002306E000224FF00F
:10057000004302E06FF0010253101AEB06004CEB4F
:10058000085110EB0A0041EB0B01BDE8F04D00F003
:10059000D5B80EB540F2334102910021CDE90011EA
:1005A0000A460B4600F0D9F803B000BD00F0004247
:1005B00030F000400AD0C10D01F56071C0F31600A3
:1005C00042EA0151C208400711437047002001462A
:1005D0007047000030B5041E71F1000404DB4FF0D9
:1005E0000044404264EB0101141E73F1000405DB7A
:1005F0001C464FF00043524263EB04038B4208BF9A
:10060000824230BD30B5041E71F1000404DB4FF0AE
:100610000044404264EB0101141E73F1000405DB49
:100620001C464FF00043524263EB0403994208BF5B
:10063000904230BD01F0004330B421F0004150EA57
:10064000010206D00A0DA2F56072C1F31301002A5F
:1006500002DC30BC00207047440F44EAC104C100F2
:10066000E01830BC00EBC25000F031B8202A04DBA7
:10067000203A00FA02F1002070479140C2F12003B5
:1006800020FA03F3194390407047202A04DB203AF4
:1006900021FA02F00021704721FA02F3D040C2F1A2
:1006A00020029140084319467047202A06DBCB17E9
:1006B000203A41FA02F043EAE07306E041FA02F31D
:1006C000D040C2F1200291400843194670470029EA
:1006D000A8BF7047401C490008BF20F001007047C8
:1006E00010B4B0FA80FC00FA0CF050EA010404BF28
:1006F00010BC704749B1CCF1200421FA04F411FA7E
:100700000CF118BF012121430843A3EB0C01CB1DC1
:100710004FEA00614FEA102042BF002010BC704732
:1007200000EBC35010440029A4BF10BC7047401C0C
:10073000490008BF20F0010010BC704710B5141E1E
:1007400073F1000408DA401C41F1000192185B418A
:100750001A4301D120F0010010BD2DE9F04D924661
:100760009B4611B1B1FA81F202E0B0FA80F2203278
:100770009046FFF77BFF04460F4640EA0A0041EA35
:100780000B0153465A46084313D0114653EA010061
:1007900019D0C8F140025046FFF777FF05460E46D4
:1007A000504659464246FFF761FF084305D00120F5
:1007B00004E020463946BDE8F08D0020054346EAB6
:1007C000E0762C4337430A986305E40AA0EB08005F
:1007D0000022FD0A44EA47540A3002D500200146AF
:1007E000E9E7010510196941DDE90845001969418A
:1007F000BDE8F04DA2E770B521F0004303430CD0F3
:10080000C1F30A550024D5EB040564EB0403D617A5
:10081000AD1AB34102DB0020014670BD201841EB48
:10082000025170BD0EB5C10F80EAE0700844CA07DE
:10083000002140F233438DE80E000A460B46FFF7D5
:100840008CFF03B000BD0000064C074D06E0E068D9
:1008500040F0010394E8070098471034AC42F6D307
:10086000FFF7B4FC68630008886300082DE9F04DC9
:1008700000231A461B1A8A4103DB00200146BDE80B
:10088000F08DC1F30A52C1F3130141F480154FF00A
:10089000000BD10702D100186D41521E00270446FB
:1008A00040F2FF11384601EB620A3E46804602469E
:1008B00000204FF48011FFF7E8FEC2197141BB1808
:1008C00046EB0100B4EB030C75EB000C04D3E41A07
:1008D00065EB000517460E46241908F101006D412D
:1008E00080463428E3DDF91946EB0600091BA841D0
:1008F00003D24FF0FF32134601E0002213461BEBF8
:10090000070046EB0A51BDE8F04DFFF717BF10B5E1
:100910000146806B026C12F0500F05D0026CD206BB
:1009200026D500F056FA10BD016C41F40071016447
:1009300001688A6812F0405F17D1027EAAB9CA6ABC
:1009400012F4700F02D08A6852050ED44A6822F061
:1009500020024A60016C21F480710164016CC904B9
:1009600003D4016C41F00101016400F0F1F910BD04
:10097000806BC26CBDE810400846104710B5806B14
:1009800040210164416C41F00401416400F021FA0E
:1009900010BD10B5806B00F01BFA10BD10B50548F6
:1009A00000F01BFA044800F018FABDE810400348B4
:1009B00000F013BA8C000020D40000201C0100209D
:1009C000464910B54A6822F440324A604A68436892
:1009D0001A434A6001684A6822F480724A600168DA
:1009E0004A68036942EA03224A6001684A6822F0C1
:1009F00040724A6001684A6883681A434A60016825
:100A00008A6822F400628A6001688A68C3681A43AF
:100A10008A60816A6FF07062D14201688A6822F050
:100A200070628A6001688A680CD0836A1A438A609F
:100A300001688A6822F040528A6001688A68C36A45
:100A40001A4301E022F040528A6001688A6822F06D
:100A500002028A6001688A68037E42EA43028A6071
:100A600090F82010002901684A680FD042F4006213
:100A70004A6001684A6822F460424A6001684A6834
:100A8000174C436A04EB43331A4301E022F400623B
:100A90004A600168CA6A22F47002CA620168CA6ABE
:100AA000838B104C04EB03531A43CA6201688A68B3
:100AB00022F400728A6001688A6890F8303042EA55
:100AC00043228A6001688A6822F480628A60016831
:100AD0008A68406942EA8020886010BD0023014096
:100AE00000E0FFFF0000F0FFFEE70000014800F01B
:100AF0007EBD00006401002000B58BB00020012104
:100B00000190029008910590CDE9060104900090B3
:100B100003900E2009906946024800F06DFC0BB06E
:100B200000BD000064010020014800F0B5BF0000D6
:100B30006C050020014800F0AFBF0000CC0500208C
:100B400001681823CAB2103AB2FBF3F2054B6FF3F7
:100B50000901032A9B5CC36500D9091D816508460C
:100B6000704700007A60000810B5014600208B69CC
:100B70008A6A4FF0C07453B1B3F5005F15D072B1FB
:100B8000012A0CD0022A0AD0032A09D104E01AB1A2
:100B9000012A06D0022A03D1C96AC90100D5012061
:100BA00010BDC96AA142FAD010BD002AF7D0012AAF
:100BB000F2D0022AF3D0032AF3D010BD30B5046876
:100BC000256825F480252560046863608368402BD0
:100BD000036803D099600068C26030BD9A60006805
:100BE000C16030BD704770477047000078B5002481
:100BF000009490F83C20012A19D0012280F83C2072
:100C00000A6807230568092A13D9EE680A3A02EB35
:100C1000420293409E43EE600B788A680A3B03EBE6
:100C200043039A400368DD682A43DA6010E002203B
:100C300078BD2E6902EB420293409E432E610B78F1
:100C40008A6803EB43039A4003681D692A431A61CB
:100C50004A681F23072A13D205686E6B521E02EBE7
:100C6000820293409E436E630A8893B20A79521EB1
:100C700002EB820293400268556B2B43536327E0DB
:100C800005680D2A12D22E6BD21F02EB820293400E
:100C90009E432E630B790A88DB1F92B203EB83031A
:100CA0009A4003681D6B2A431A6311E0EE6A0D3AFD
:100CB00002EB820293409E43EE620B790A880D3B61
:100CC00092B203EB83039A400368DD6A2A43DA6237
:100CD0001B4B0568194A9D420AD10D68122D07D198
:100CE000556825F400055560556845F48005556044
:100CF00005689D421DD1134D0B68AB4201D0112BED
:100D000017D1536823F480035360536843F40003FE
:100D100053600968A9420CD10B490C4A0968B1FB20
:100D2000F2F101EB8101490000E0491E0091002928
:100D3000FBD180F83C40002078BD0000002301403A
:100D400000200140120000107000002040420F00FF
:100D5000154910B5884226D1084600F03BF8134CDF
:100D600080B26087FFF715FC9FED111B53EC112B30
:100D7000FFF72EFBFFF75EFCFFF718FC9FED0E1B45
:100D800053EC112BFFF71EFB9FED0D1B53EC112BAA
:100D9000FFF790FB9FED0C1B53EC112BFFF718FB9B
:100DA000FFF748FC206510BD1C010020000000205A
:100DB000B4D934E70C684A3F48E17A14AE4705409D
:100DC000CDCCCCCCCCCC16400000000000408F40F5
:100DD000704770470068C06C704770B50446006883
:100DE00001684268C1F34001C2F3401251B34AB3F3
:100DF000216CC90603D4216C41F40071216481681F
:100E000011F0405F17D1217EA9B9C16A11F4700FAA
:100E100002D0816849050ED4416821F0200141606B
:100E2000206C20F480702064206CC00403D4206CFB
:100E300040F0010020642046FFF78AFF21686FF030
:100E400012000860206801684268C1F38001C2F3A3
:100E5000C01289B382B3216CC90603D4216C41F45A
:100E600000512164816811F4401F1ED1816B11F47F
:100E7000401F02D08168490517D44168490514D440
:100E8000816811F0405F10D1217E71B9416821F075
:100E900080014160206C20F480502064206CC005EB
:100EA00003D4206C40F0010020642046FFF79CFE34
:100EB00021686FF00C00086020680168426811F03A
:100EC000010FC2F380120ED06AB10068C0070AD0C9
:100ED000206C40F480302064204600F046F8216801
:100EE0006FF001000860206801684268C1F340119A
:100EF000C2F3806200290DD0002A0BD0616C41F052
:100F0000020161646FF0200505602046FFF761FF74
:100F10002068056070BD70B504004FF0000503D077
:100F2000206C002610B107E0012070BD204600F0C3
:100F30001DF8666484F83C60206CC00610D4206CF8
:100F400020F4885040F0020020642046FFF738FD6E
:100F50006664206C20F0020040F00100206400E094
:100F6000012584F83C60284670BD70472DE9F04F9C
:100F700087B0064614216846FFF778F95048504973
:100F80004E4A336800241439032507154FF40068CE
:100F90004FF400594FF4807A4FF4803B934226D1AE
:100FA000026842F480720260006800F4807005906C
:100FB000086840F0010008600868694600F0010018
:100FC00005900F20CDE9000502943E4800F0ECFEAC
:100FD0003E4D3D4805F10C02C5E90004AC6082E8D5
:100FE000900F28466C623CE0B563AE635BE0DFF8CF
:100FF000E0C0384A63453BD1036843F400730360A3
:10100000006800F400700590086840F00400086073
:10101000086800F004000590086840F002000860CD
:101020000868694600F0020005902720CDE9000518
:101030000294104600F0B8FE0095CDE901546946CF
:10104000254800F0B1FE254D1F4805F10C03303056
:1010500028604FF00070C5E9010483E8900F28462E
:101060006C6200F0E9FD0028BED0FFF7BCFDBBE7D5
:101070001B4EB3421FD1036843F4806303600068D2
:1010800000F480600590086840F00400086008687B
:10109000694600F0040005900820CDE9000502949F
:1010A000104600F081FE00221146122000F0C8FF19
:1010B000122000F0B7FF07B0BDE8F08F002001401C
:1010C0004438024000000240106402406C050020D9
:1010D000002101400008024000040240CC0500202D
:1010E00000220140F8B50E4600210446009190F818
:1010F0003C00012807D0012084F83C002068836868
:10110000DB0702D011E00220F8BD836843F0010341
:1011100083603748374B0068B0FBF3F000EB4000CA
:1011200000E0401E00900028FBD120688368DB07A8
:101130005CD0236C40F20165AB4343F480732364BD
:101140004068400505D5206C20F4005040F48050E4
:101150002064206CC00404D5606C20F0060060643C
:1011600000E0616484F83C10A16B2448224DC86300
:10117000A16B23480864A16B2248C86421686FF002
:10118000220008602068416841F080614160206869
:10119000816841F4807181602168134632464C3188
:1011A000A06B00F0B3FD68681749C006206806D040
:1011B00088421BD1816811F0405F13D016E088424D
:1011C000F8D0124A904203D1D1F80423D206F1D0CC
:1011D0000F4A90420AD1D1F8041301F01F011029DF
:1011E000E8D303E0816841F0804181600020F8BDD0
:1011F0007000002040420F00002301400F0900084A
:10120000930900087D0900080020014000210140E9
:101210000022014018B50021009190F83C20012ADD
:1012200007D0012280F83C2002689368DB0702D0D7
:1012300011E0022018BD936843F0010393602C4A2B
:101240002C4B1268B2FBF3F202EB420200E0521E9A
:101250000092002AFBD102689368DB0746D0036C3A
:1012600040F20164A34343F48073036453685B0555
:1012700005D5036C23F4005343F480530364036CDB
:10128000DB0404D5436C23F00603436400E04164AF
:1012900080F83C10184B6FF02201116001684A6819
:1012A000164C22434A6059680068CA06144906D0A1
:1012B00088421BD1816811F0405F13D016E088424C
:1012C000F8D0104A904203D1D1F80423D206F1D0CD
:1012D0000D4A90420AD1D1F8041301F01F011029E0
:1012E000E8D303E0816841F080418160002018BDAF
:1012F0007000002040420F00002301402000000445
:1013000000200140002101400022014090F82020EF
:10131000012A07D0022A05D0416A41F480214162A6
:1013200001207047006842690A434261002070470B
:10133000F0B590F820500468A468012D05D0022D66
:1013400003D0416A41F4802153E014F0406F01D191
:10135000E5004BD5C4F30164022C03D9416A41F482
:10136000000146E00125A5401D608D684FF4C07363
:101370009DB1CE6835434E6845EAC605066803EB65
:101380000417F5514FF4C275076805EB04150E6993
:101390007E51097D012905D009E00E88CD6845EA16
:1013A0004655EBE701684E5946F480764E51117967
:1013B000D2F805504FF4C67641EA0525016806EBE0
:1013C00004168D511178D2F801204FF4C47541EA0A
:1013D0000221026805EB04155151006803EB04116A
:1013E000425842F0010242500020F0BD416A41F4EF
:1013F000001141620120F0BD10B590F82020012AB3
:1014000007D0022A05D0416A41F4802141620120BF
:1014100010BD3B48D0F8002242F00102C0F8002283
:10142000D0F8002222F47C52C0F80022D0F800222A
:101430004B6A42EA0322C0F800220A7D02F01F0331
:1014400001229A40D0F81C329343C0F81C32CB6979
:10145000B3B9D0F80C329343C0F80C328C894B6886
:1014600064F31F434C6900EBC404C4F840320C8998
:101470000B6864F31F434C6900EBC404C4F84432A6
:10148000CB69012B16D1D0F80C321343C0F80C32C3
:101490000C884B6864F31F434C6900EBC404C4F828
:1014A00040320C89CB6864F31F434C6900EBC404E1
:1014B000C4F844328B69002BD0F804320ED01343A9
:1014C000C0F804320B69002BD0F8143208D0134353
:1014D000C0F81432096A012904D008E09343EFE709
:1014E0009343F5E7D0F81C121143C0F81C12D0F852
:1014F000001221F00101C0F80012002010BD000010
:1015000000640040704730B590F82040012C05D0B1
:10151000022C03D0416A41F480215DE00468002977
:1015200055D02469A40754D04FF4D874056804EB4F
:1015300001142D5915F00405956005682D594ED0FC
:10154000ED08556005682C59C4F34004D4604FF48D
:10155000DA74056804EB01142D5905F00F051561C7
:1015600005682D59C5F30725956105682C59240C8C
:1015700054614FF4DC72046802EB0112A4581C7031
:101580000468A458240A5C700468A458240C9C7055
:101590000468A258120EDA704FF4DE72046802EB8F
:1015A0000112A4581C710468A458240A5C710468D0
:1015B000A458240C9C710468A258120EDA710068B9
:1015C00081B1016941F020010161002030BDE46872
:1015D000A8E7416A41F400114162012030BD6D0D60
:1015E0001560AFE7C16841F02001C160EDE72DE96A
:1015F000F05F0546006800244669D0F804908768CB
:10160000D0F80CB0D0F810A0D0F81880F10748D06E
:10161000F90714D001218160B80703D5284600F0EE
:1016200034FA0CE0780702D54FF4006407E038077D
:1016300002D54FF4805402E0284600F025FAF80560
:1016400016D529684FF480708860B80503D5284600
:1016500000F01DFA0CE0780502D544F4005407E0D0
:10166000380502D544F4804402E0284600F00EFA22
:10167000F80316D529684FF480308860B80303D585
:10168000284600F006FA0CE0780302D544F4004442
:1016900007E0380302D544F4803402E0284600F025
:1016A000F7F9300707D55FEACB6004D52968102029
:1016B00044F40074C86070074FF0080707D55FEA6C
:1016C0000B7004D52868C760284600F069F9B00798
:1016D00006D52868C068800702D0284600F062F965
:1016E000700607D55FEACA6004D52968102044F463
:1016F00080640861B00607D55FEA0A7004D52868DF
:101700000761284600F090F9F00606D528680069C0
:10171000800702D0284600F088F9B00308D55FEAB8
:10172000C96005D5296810204860284600F07EF978
:10173000F00307D55FEA097004D52868476028469A
:1017400000F0A8F9300446D55FEA497040D5F005AD
:1017500004D55FEAC87001D044F00104B00504D597
:101760005FEA887001D544F00204700504D55FEA91
:10177000487001D544F00404300529D518F0700FE5
:1017800026D008F07000402815D006DC102809D0BB
:1017900020280AD0302816D10AE050280ED0602820
:1017A00011D10EE044F008040DE044F010040AE00A
:1017B00044F0200407E044F0400404E044F08004D6
:1017C00001E044F480742868816921F0700181612E
:1017D000296804204860002C05D0686A20436862AC
:1017E0002846FFF78FFEBDE8F09F70B5040003D0D8
:1017F00094F8200010B104E0012070BD204600F0F4
:1018000091F82068016821F00201016000F0A8FB56
:101810000546052604E000F0A3FB401B0A2811D86A
:10182000206840688007F6D42068016841F0010113
:10183000016000F095FB05460BE000F091FB401BBA
:101840000A2806D9606A40F40030606284F820609B
:10185000D2E720684068C007EFD0207E01282068CA
:1018600001683DD021F080010160607E0128206880
:10187000016838D021F040010160A07E0128206875
:10188000016833D021F020010160E07E012820684A
:1018900001682ED041F010010160207F01282068EE
:1018A000016829D021F008010160607F01282068CB
:1018B000016824D021F004010160D4E90201084349
:1018C000D4E90412114308436168491E08432168A2
:1018D000C86100206062012084F82000002070BDF3
:1018E00041F08001C0E741F04001C5E741F020012F
:1018F000CAE721F01001CFE741F00801D4E741F039
:101900000401D9E70346002093F82020012A01D0E2
:10191000022A05D11A6889069268914300D00120F5
:101920007047000010B586B0044614216846FEF7E3
:101930009DFC18492068884229D117480021026877
:1019400042F000720260006800F0007005901248DA
:101950001038026842F001020260006800F00100E5
:1019600005904FF4C05000900220CDE90101032002
:101970000390092004906946084800F015FA0022F7
:101980001146142000F05CFB142000F04BFB06B065
:1019900010BD0000006400404038024000000240DA
:1019A0007047000070B51D4A1B4B00212DED028BC6
:1019B000A2F55970FFF7A7FD1848174C0068A4F16D
:1019C0005905382809D0392804D1208840BAA87090
:1019D000A0786870BDEC028B70BD208840BAFEF71D
:1019E000D8FD9FED0F8B53EC182BFEF763FDFEF730
:1019F00021FE2864608840BAFEF7CBFD53EC182B1B
:101A0000FEF758FDFEF716FE6864A08840BAA8836A
:101A1000E08840BA6883DDE759000020C804002050
:101A200000000000000059407047704770470000F8
:101A300070B5044690F82000012804D0606A40F494
:101A40000020606218E0022084F82000206801680D
:101A500021F00101016000F083FA05460EE000BFAD
:101A600000F07EFA401B0A2808D9606A40F4003072
:101A70006062052084F82000012070BD2068406865
:101A8000C007EDD1606270BD704770477047704706
:101A900070477047704700002DE9F84304464FF047
:101AA0000009CDF8009063484FF41651A56D006809
:101AB000B0FBF1F72E6894F85C10082000FA01F1F1
:101AC00031420FD021680A6852070BD50A6822F00C
:101AD00004020A6094F85C108840A860606D40F0D1
:101AE0000100606594F85C104FF0010808FA01F0FD
:101AF000304208D021684969090604D5A860606DA4
:101B000040F00200606594F85C1004208840304288
:101B100008D021680968890704D5A860606D40F085
:101B20000400606594F85C1010208840304218D0A2
:101B300021680968090714D5A8602068016849036D
:101B400004D50068000308D5A16C07E00168C90549
:101B500003D4016821F008010160216C09B120461D
:101B6000884794F85C1020208840304231D02168AA
:101B70000968C9062DD5A86094F8350005282068A5
:101B8000016806D0490347D5006800031DD4616C85
:101B90001CE021F0160101602068416921F08001FC
:101BA0004161206C08B9A06C20B12068016821F067
:101BB0000801016094F85C103F208840A86084F818
:101BC000349084F83580216D1FE0E16B09B1204627
:101BD0008847606D00282BD0606DC00714D00520A9
:101BE00084F835002068016821F001010160009847
:101BF000401C0090B84203D820680068C007F6D1A6
:101C000084F8349084F83580E16C002910D001B05C
:101C10002046BDE8F04308470168C905D5D40168EE
:101C200021F01001016084F8349084F83580CCE70D
:101C3000BDE8F883700000202DE9F041044600F073
:101C40008FF906465CB1002584F83450022084F8F0
:101C500035002068016821F0010101600DE00120DC
:101C6000BDE8F08100F07CF9801B052805D9202013
:101C70006065032084F83500F2E720680068C0073B
:101C8000F0D12268116820480140D4E901031843CB
:101C9000D4E903363343184363691843A3691843EF
:101CA000E3691843236A18430843616A042903D18E
:101CB000D4E90B1319430843106020684069666A31
:101CC00020F0070130460E43012704280CD1A06AFA
:101CD0000643E06A40B12046FEF746FF20B14020AF
:101CE000606584F83570BAE7206846612046FEF7E3
:101CF00027FF94F85C203F2191408160656584F85E
:101D000035700020ACE700003F8010F02DE9F04175
:101D10000446866D90F83400002501280DD001207E
:101D200084F8340094F835700020012F07D084F82F
:101D3000340002252846BDE8F0810220FBE7022797
:101D400084F8357060652046FEF738FF94F85C1023
:101D50003F208840B0602068016841F016010160B2
:101D60002068416941F080014161206C20B1206808
:101D7000016841F0080101602068016841F001013B
:101D80000160D7E770B5044600F0EAF80546601C2C
:101D900002D004480078044400F0E2F8401BA0425E
:101DA000FAD370BD640000202DE9F84FDFF874B15C
:101DB00000224FF001084FF0030A4FF00F090BF11A
:101DC000040E00BF0B6808FA02F42340A3426ED150
:101DD0004D68022D01D0122D0ED1D50800EB850CD7
:101DE000DCF820505607F70E09FA07F6B5430E69DE
:101DF000BE402E43CCF82060066855000F790AFAE1
:101E000005FC07F0030726EA0C06AF4037430760DE
:101E10004E68012E05D0022E03D0112E01D0122EB5
:101E20000ED18668CF6826EA0C06AF40374387603C
:101E30004668A6430C79C4F30014944034434460CC
:101E4000C4688E6824EA0C04AE402643C6604C6821
:101E5000E40060D5344C256845F48045256024684D
:101E600022F0030504F480440094304C2E19D6F877
:101E7000084895072F0F09FA07F5AC432C4DA842E7
:101E800001D100251FE02B4DA84201D101251AE008
:101E9000294DA84201D1022515E0284DA84201D1C3
:101EA000032510E0264DA84202D104250BE032E0C4
:101EB000244DA84201D1052505E0234DA84201D1BA
:101EC000062500E00725BD402543C6F80858DBF885
:101ED00000405D464E689C43F60300D51C432C60D1
:101EE000DEF8004075464E689C43B60300D51C439F
:101EF0002C600C4D08352C684E689C43F60200D5CA
:101F00001C432C60074D0C352C684E689C43B60270
:101F100000D51C432C60521C102AFFF453AFBDE8BF
:101F2000F88F0000003C014044380240003001407E
:101F3000000002400004024000080240000C024081
:101F400000100240001402400018024000690840DE
:101F500000D0012070470AB1816170470904FBE796
:101F600001488068704700006400002002488168D2
:101F70000278114481607047640000200B4810B55E
:101F8000016841F400710160016841F48061016001
:101F9000016841F480710160032000F071F80020B5
:101FA00000F006F800F024F8002010BD003C0240CC
:101FB00070B50D4D04464FF47A712878B1FBF0F0FE
:101FC0000A490968B1FBF0F000F067FC48B9102C31
:101FD00007D200222146501E00F032F800206C602B
:101FE00070BD012070BD0000640000207000002062
:101FF0000B4882B0016841F480410160006800F440
:10200000804000900648001F016841F08051016047
:10201000006800F080500090052002B000F030B859
:1020200044380240002809DB00F01F0201219140E2
:102030004009800000F1E020C0F800117047000066
:10204000F0B40E4B1B680C46C3F30223C3F1070523
:10205000042D00D90425191D072901D2002300E011
:10206000DB1E012606FA05F1491E214099409E40DB
:10207000761E16403143F0BC01F0DCBD0CED00E0F3
:10208000064900F0070208684FF6FF03184040EACF
:102090000220034A10430860704700000CED00E086
:1020A0000000FA05BFF34F8F05480168054A01F4A7
:1020B000E06111430160BFF34F8F00BFFDE70000F7
:1020C0000CED00E00400FA052DE9F0470E4605008E
:1020D00065D0DFF81481D8F80000F7B200F00F00E7
:1020E000B04207D288F80070D8F8000000F00F0066
:1020F000B04254D128683D4C810712D5400703D522
:10210000206840F4E05020602878000703D520685C
:1021100040F4604020602068A96820F0F000084387
:1021200020602878C0072DD0304968680839012818
:1021300012D0022813D0032811D00968890700297A
:102140002DDA216821F0030101432160FFF708FF28
:10215000814641F2883A0EE009688903EFE7096891
:102160008901ECE7FFF7FCFEA0EB0901514502D91C
:102170000320BDE8F0872068696800F00C00B0EB30
:10218000810FEFD1D8F80010404601F00F01B142A5
:1021900007D90770006800F00F00B04201D001209D
:1021A000E7E72878400705D52068E96820F4E05083
:1021B000084320602878000706D52068296920F4A4
:1021C000604040EAC100206000F016F82168084A2B
:1021D000C1F30311515CC840064908600020FFF7B5
:1021E000E7FE0020C5E70000003C0240083802403E
:1021F0008260000870000020224810B5006810F0CE
:102200000C02214815D04110042A11D01D4C241F66
:10221000082A0FD00C2A0CD12268236802F03F0252
:102220005B0221D52068C0F38810A0FB010120E0EB
:10223000084610BD2268236802F03F025B0205D504
:102240002068C0F38810A0FB010104E02168C1F3FD
:102250008811A1FB00010023FDF7D0FF2168C1F325
:102260000141491C49000AE02168C1F38811A1FB22
:1022700000010023FDF7C2FF2168C1F30271B0FB2A
:10228000F1F010BD083802400024F4002DE9F84FA9
:102290000546DFF828B30078ABF10407C007A7F1C3
:1022A000040451D0DBF800105846C1F38101012924
:1022B0000FD00168C1F38101022902D139684902B6
:1022C00007D40068C0F38100032809D138684002B0
:1022D00006D52068800337D56868002872D033E0BF
:1022E0006868B0F5803F10D0B0F5A02F206810D0FE
:1022F00020F480302060206820F48020206068680E
:10230000A8B1FFF72DFE06460DE0206840F48030AE
:10231000F4E740F480202060F7E700BFFFF720FEDD
:10232000801B642878D820688003F7D50CE0FFF77D
:1023300017FE064605E000BFFFF712FE801B64286B
:10234000F0D820688003F7D42878DFF874928007EB
:102350004FF0000A46D5DBF80010584611F00C0F7C
:102360000FD00168C1F38101022902D13968490205
:1023700007D50068C0F38100032809D138684002FE
:1023800006D42068800715D5E86801281AD111E025
:10239000E868C0B10120C9F80000FFF7E1FD06467A
:1023A00005E000BFFFF7DCFD801B0228BAD82068DB
:1023B0008007F7D52068296920F0F80040EAC100BD
:1023C00020600FE0F7E0C9F800A0FFF7C9FD06465E
:1023D00005E000BFFFF7C4FD801B02281CD8206861
:1023E0008007F7D42878000727D5DFF8D081754813
:1023F000696908F16C0881B101210160FFF7B0FD46
:10240000064604E0FFF7ACFD801B022804D8D8F88C
:1024100000008007F6D510E089E0C0F800A0FFF7C3
:102420009FFD064605E000BFFFF79AFD801B0228CE
:102430007DD8D8F800008007F6D42878400769D501
:102440005E484FF0000838300068C0000BD45B488D
:102450003830016841F08051016000684FF0010898
:1024600000F080500090584E3068C00511D430689C
:1024700040F480703060FFF773FD009006E000BF0D
:10248000FFF76EFD0099401A022850D83068C00549
:10249000F6D54A4EA868683601280FD0052830685E
:1024A00010D020F001003060306820F0040030606F
:1024B000A868B8B1FFF754FD00900FE0306840F015
:1024C0000100F4E740F004003060F7E7FFF748FD53
:1024D0000099411A41F28830814264D830688007FF
:1024E000F4D50EE0FFF73CFD009007E0FFF738FD64
:1024F0000099411A41F28830814254D830688007EF
:10250000F4D4B8F1000F05D02C483830016821F020
:1025100080510160A869A8B3DBF80010C1F3810104
:10252000022948D00228C9F860A005D000E03AE0AE
:10253000FFF716FD054639E0FFF712FD064604E0F9
:10254000FFF70EFD801B02282DD820688001F7D4EC
:10255000F5E907010843E9681C4A490802EB014113
:10256000AA6841EA82110843297C40EA0160297D7A
:1025700040EA017038600120C9F86000FFF7F0FC04
:10258000054606E015E000BFFFF7EAFC401B022805
:1025900009D820688001F7D50BE000BFFFF7E0FC09
:1025A000401B022802D90320BDE8F88F2068800173
:1025B000F4D40020F8E70120F6E7000008380240D4
:1025C00000004742800E4742007000400000FFFFBD
:1025D00070B5040005D00025A56294F8510010B133
:1025E00006E0012070BD84F85050204600F030F81D
:1025F000022084F851002068016821F04001016048
:10260000D4E901010843D4E9031211430843616985
:102610000843218B01F400710843E1690843216AF2
:102620000843A16A084321680860A069042101EAFF
:102630001040616A0843216848602068C16921F43C
:102640000061C1616565012084F85100002070BD02
:1026500010B586B0044614216846FDF707FE1349FD
:102660002068884220D112480021026842F480523A
:102670000260006800F4805005900D48143802682C
:1026800042F001020260006800F001000590E020C5
:1026900000900220CDE90101032003900520049061
:1026A00069460448FFF780FB06B010BD00300140CA
:1026B00044380240000002402DE9F84F044690F8EB
:1026C000500000270A9E1D4692468B464FF0010996
:1026D00001280ED0012084F85000FFF741FC80460D
:1026E00094F85100616801280CD0B1F5827F07D1C0
:1026F00002E00220BDE8F88FA16809B9042801D0E2
:102700000227C2E0BBF1000F27D0BAF1000F24D09E
:102710001DB394F85100042802D0052084F851001C
:1027200000206065C4F838A0E587A587C4F830B0FC
:10273000E586A5862064606420680168490603D4A4
:10274000016841F040010160E068B0F5006F606829
:1027500005D0E8B3012D46D07FE0012795E008B110
:10276000012D39D1206B21680088C860206B801C46
:102770002063E08E401EE0862EE020688168890795
:102780000FD5E18E69B1B9F1010F0AD1216B09882A
:10279000C160206B801C2063E08E401EE0864FF0FD
:1027A000000920688168C9070CD0E18F51B1C06869
:1027B000A16B0880A06B801CA063E08F401EE087A7
:1027C0004FF00109FFF7CCFBA0EB0800B04200E09E
:1027D00009E001D3701C50D1E08E0028CDD1E08FEC
:1027E0000028CAD13FE0206B216800780873206B75
:1027F000401C2063E08E401EE0862EE02068816849
:1028000089070FD5E18E69B1B9F1010F0AD1216BAA
:1028100009780173206B401C2063E08E401EE08627
:102820004FF0000920688168C9070CD0E18F51B1D1
:10283000C068A16B0870A06B401CA063E08F401EB5
:10284000E0874FF00109FFF78BFBA0EB0800B042D7
:1028500002D3701C01D010E07EB1E08E0028CDD1F3
:10286000E08F0028CAD142463146204601F01EF8CA
:1028700028B101272020606507E0032705E0A06854
:1028800018B92068C16880680090012084F8510060
:10289000002084F8500038462CE710B5401EB0F1F7
:1028A000807F01D3012010BD4FF0E02460610F2133
:1028B000601701F0BFF90020A0610720206100200F
:1028C00010BD7047704770B590F83C20012A19D0B0
:1028D000012400F83C4F0222427050F83C3C5A68F8
:1028E0009D6822F070060A684968324325F0800529
:1028F00029435A6050F83C2C9160447000210170CB
:10290000084670BD022070BD10B5040003D094F8D5
:102910003D0010B107E0012010BD002084F83C000C
:10292000204600F00DF8022084F83D00211D2068AB
:1029300001F0CEF8012084F83D00002010BD000019
:1029400008B501684748B1F1804F11D0464A91421D
:102950001DD1016841F0020101600068002200F011
:102960000200009011461D20FFF76AFB1D2075E054
:10297000016841F0010101600068002200F00100DF
:10298000009011461C20FFF75BFB1C2066E0374AD5
:1029900091420ED1016841F01001016000680022EF
:1029A00000F01000009011463620FFF749FB36205A
:1029B00054E02F4A91420ED1016841F0200101609C
:1029C0000068002200F02000009011463720FFF739
:1029D00037FB372042E02348264A001D914208D1A8
:1029E000016841F002010160006800F002000090FF
:1029F00008BD214A91420ED1016841F48031016045
:102A00000068002200F48030009011461820FFF783
:102A100017FB182022E0194A91420ED1016841F4B7
:102A2000003101600068002200F40030009011467F
:102A30001920FFF705FB192010E0114A9142D7D168
:102A4000016841F4802101600068002200F48020C8
:102A5000009011461A20FFF7F3FA1A20BDE808404B
:102A6000FFF7E0BA40380240000400400010004088
:102A700000140040000401400040014000440140B7
:102A800000480140022180F83D1001688A6802F088
:102A90000702062A03D00A6842F001020A600121F7
:102AA00080F83D10002070470168CA6842F00102BA
:102AB000CA600068816801F00701062903D0016837
:102AC00041F001010160002070470168CA6822F0EE
:102AD0000102CA600068016A41F21112114207D175
:102AE000016A9210114203D1016821F001010160D5
:102AF0000020704770B5044690F83C00012817D0BC
:102B0000012584F83C50022084F83D00206882684A
:102B100022F0770222F47F4282600868502830D089
:102B20000DDC20284DD005DC98B310283BD148E0BF
:102B3000022070BD302844D0402834D139E06028CC
:102B400028D0702806D0B0F5805F2CD0B0F5005F9B
:102B500029D10AE0CB68D1E90121206801F01CF8F5
:102B60002068816841F0770109E0CB68D1E9012153
:102B7000206801F011F82068816841F4804181608B
:102B800011E0CA684968206801F018F850212068EF
:102B900007E016E0CA684968206801F020F8602163
:102BA000206801F003F884F83D50002084F83C00D0
:102BB00070BDCA684968206801F000F840212068AB
:102BC000EFE7226801461046EBE7704770B5044610
:102BD000006801694FF00005C943890715D4C16831
:102BE000C943890711D4E91E0161012020772068BB
:102BF00080698007204602D0FFF7E7FF04E000F07D
:102C000098F8204600F096F8257720680169C943B6
:102C1000490717D4C168C943490713D46FF00401A9
:102C20000161022020772068806910F4407F2046EF
:102C300002D0FFF7CAFF04E000F07BF8204600F066
:102C400079F8257720680169C943090716D4C16856
:102C5000C943090712D46FF00801016104202077ED
:102C60002068C0698007204602D0FFF7AEFF04E06D
:102C700000F05FF8204600F05DF8257720680169D4
:102C8000C943C90617D4C168C943C90613D46FF034
:102C900010010161082020772068C06910F4407F8E
:102CA000204602D0FFF791FF04E000F042F82046F2
:102CB00000F040F8257720680169C943C90708D1A9
:102CC000C168C943C90704D1891E0161204600F0CB
:102CD00033F820680169C943090609D4C168C943AA
:102CE000090605D46FF0800101612046FFF7E9FD78
:102CF00020680169C943490609D4C168C943490626
:102D000005D46FF040010161204600F0B1F8206861
:102D10000169C94389060BD4C168C943890607D430
:102D20006FF0200101612046BDE87040FFF7CABD89
:102D300070BD7047704700002DE9F04143490068BD
:102D400001268F130025424C884208D12672E08D5F
:102D5000411CE185B84200D3E585BDE8F081B0F1C2
:102D6000804F0BD03B49884210D102F051F9208EA0
:102D7000411C2186B842F0D32586EEE7E671A08D8E
:102D8000411CA185B842E8D3A585E6E732496FF03A
:102D90000108884212D13148FFF797FE2F48026898
:102DA000C2F81080006845626672608E411C6186C0
:102DB000B84200D365862948403043E0284988421C
:102DC00014D126484030FFF780FE24484030026886
:102DD000C2F8108000684562A672A08E411CA186D0
:102DE000B84200D3A5861D48C0302BE01D4988425B
:102DF00013D11A48C030FFF768FE1848C030026887
:102E0000C2F8108000684562E672E08E411CE186DF
:102E1000B84200D3E586144814E0144988429CD196
:102E20001148FFF752FE10480268C2F8108000688F
:102E3000456226736673208F411C2187B84200D3F8
:102E400025870648BDE8F041FFF72EBE000400408C
:102E50000000002000440140001000400C0200204F
:102E600000140040004001404C0300200048014095
:102E70007047FEE70C480B49022201604FF4827153
:102E8000416000218160C0E90312012242615202C7
:102E900082612822C0E90721416281620A21C16260
:102EA000FFF796BB003001402C06002000F076B8FA
:102EB00000F083B82DE9FC41FFF7DCFF1349012046
:102EC00000F02AF8134F124E0024A7F1540500BF5A
:102ED000CDE900762B79EA780C49204600F042F8DB
:102EE000641C14F0FF04F3D00849012000F038F806
:102EF0000649012000F012F8012003F065F8BDE852
:102F0000FC410249012000F047B800008C0300207A
:102F1000800000205400002000F0F2B8F0B500223C
:102F20000C260424062502274FF0030C0EE000BFF8
:102F3000C2EBC20301EB4313521C03F8D66FD2B2AB
:102F40005C709D70DC701F7183F805C08242EFD306
:102F5000F0BD00F00BB910B500F098F9C0B210BD8B
:102F600000F030BA2DE9F0419846DDE906450E46FD
:102F7000074600F0B0FA42463146384600F063FAA0
:102F800022463146384600F08FFA2A463146384606
:102F9000BDE8F04100F064BA00F0AABAC0F3400204
:102FA00008B5121D01EBC0108DF8002060308DF8BF
:102FB0000100684602F046F908BD08B5C0F34003B9
:102FC000C00100EB01109B1C10448DF800306030F4
:102FD0008DF80100684602F035F908BDF0B5052905
:102FE00016D2DFE801F0032A4B6B160000210DE03A
:102FF000C1EBC10302EB4313491C33F8BA5F13F86A
:10300000AC4C25441D805D882C445C808142EFDB04
:10301000F0BD00210EE000BFC1EBC10302EB431382
:10302000491C33F8BA5F13F89D4C25441D805D8818
:103030002C445C808142EFDBF0BD00231BE00021CB
:1030400014E000BFC3EBC30402EB44146518B4F8EA
:10305000BA6015F8427F3E44A4F8BA6004EB41041C
:103060002D7834F8BE6F491C3544258092F8D9403C
:103070008C42E7DC5B1C8342E1DBF0BD00231AE0FD
:10308000002113E0C3EBC30402EB44146518B4F849
:10309000BA6015F85A7F3E44A4F8BA6004EB4104C4
:1030A0002D7834F8CA6F491C3544258092F8DA40EF
:1030B0008C42E7DC5B1C8342E2DBF0BD00231BE0BB
:1030C000002113E0C3EBC30402EB44146518B4F809
:1030D000BA6015F86B7F3E44A4F8BA6004EB410473
:1030E0002D7834F8D26F491C3544258092F8DB40A6
:1030F000641E8C42E6DC5B1C8342E1DBF0BD000019
:103100002DE9F04F8B4687B0174906464FF000096E
:10311000D1E90001CDF80890CDF80C90CDF81090D1
:103120004FF0010A4D464C4605AF0DF10808CDE9B8
:10313000050114E0C4EBC40200200BEB42110A1895
:103140000D54401CD5730628F9DBCDE900784B46B9
:1031500052465946204600F05EF9641CE4B2B4427F
:10316000E8D307B0BDE8F08F946000082DE9F8437C
:10317000074616460C464FF00008C80002F02AFB2E
:10318000814637B102462146384600F051F8002505
:103190003FE001271FE04A462146384600F048F844
:1031A000002514E096F8B900D8B1601B401EC0B2EB
:1031B000C0EBC00006EB401303F15A000090E8B2E8
:1031C0004A463946483302F03BFB80466D1CA54217
:1031D000E8DB7F1CFFB296F8DA00401CB842DAD870
:1031E00019E0E8B2E4E700BF96F8B900F0B1601B5F
:1031F000401EC0B2C0EBC00006EB401303F15A0002
:103200000090E8B24A463946483302F019FB80463E
:103210006D1CA542E8DB324602212046FFF7DEFEA8
:10322000484602F035F94046BDE8F883E8B2E1E7E8
:1032300038B50C460C2100231546012805D002287C
:1032400006D0032806D004281ED08DF8011004E013
:103250000E2000E00D208DF801008DF80030694649
:10326000022002F021FB010A8DF802108DF8030004
:1032700002F00AF8E006030E2A460421684602F02E
:1032800055FB01F0F9FF38BD0F20E4E72DE9F843C5
:10329000804617460D460026C80002F09BFA81467C
:1032A000B8F1000005D04A46294600F055F8002440
:1032B00043E0012021E04A462946404600F04CF810
:1032C000002415E097F8B900F0B1281B401EC0B2E9
:1032D000C0EBC00007EB401303F142000090E0B2E6
:1032E0004A4641461E3302F0ABFA304446B2641CF3
:1032F000AC42E7DB08F10100C0B2804697F8D90084
:10330000401C4045D7D81AE0E0B2E1E797F8B90091
:1033100000B3281B401EC0B2C0EBC00107EB411335
:1033200003F1420109EBC0020091E0B241461E33B5
:1033300002F086FA304446B2641CAC42E6DB3A4600
:1033400001212846FFF74AFE484602F0A1F8F0B2F4
:10335000BDE8F883E0B2DFE738B5002315460C4638
:1033600001280AD002280AD003280AD004280AD04B
:1033700005280AD006280AD00EE0042008E006201E
:1033800006E0082004E00A2002E0092000E00B200B
:103390008DF801008DF800306946022002F084FAB1
:1033A000010A8DF802108DF8030001F06DFFE006B0
:1033B000030E2A460421684602F0B8FA01F05CFFC9
:1033C00038BD000070B500231D4621E0C3EBC302E9
:1033D00001EB42125FF00004A2F8BA50A2F8BC5010
:1033E00002EB4406641CA6F8BE50062CF8DB002451
:1033F00002EB4406641CA6F8CA50042CF8DB002437
:1034000002EB4406641CA6F8D250022CF8DB5B1CCD
:103410008342DBDB70BDF0B50D46DDE905470646AE
:1034200000F059F81A462946304600F00CF82246BA
:103430002946304600F038F83A4629463046BDE87D
:10344000F04000F00DB8C0EBC00001EB401108786F
:1034500012B140F0010001E000F0FE00087070477A
:1034600030B50023C0EBC000012401EB4010D15C5B
:103470000029017904FA03F501D0294300E0A943AA
:103480005B1C0171082BF2DB002153181B7A002B07
:10349000437904FA01F501D02B4300E0AB43491C0A
:1034A00043710429F1DB30BD30B50023C0EBC0000F
:1034B000012401EB4010D15C03F1030500290178E0
:1034C00004FA05F501D0294300E0A9435B1C017013
:1034D000052BF0DB30BDC0EBC00001EB40110878DC
:1034E00012B140F0040001E000F0FB0008707047EA
:1034F000F0B514A2C1B012680024409222466E4674
:1035000016E000BF91F8B930012B19D0831A5B1E69
:10351000DDB2C5EBC505002301EB4515EF5C375562
:10352000641C5B1CDBB2E4B2062BF7D3521CD2B294
:103530008242E7D3324640A902F055FD41B0F0BDCA
:103540001546E6E7000100002DE9FF410024204870
:103550000094019402941D490394C0E900140125CC
:1035600005618460047680F820402907C162052641
:10357000C6614FF0C061C460816280F8305045611F
:10358000FDF7C9FC134802278DE8A10069461048E1
:10359000FDF72CFBCDE9004769460D48FDF726FBFA
:1035A0000324CDE9005469460948FDF71FFB0420B8
:1035B000CDE9007069460648FDF718FBCDE90046E5
:1035C00069460348FDF712FBBDE8FF81002001407A
:1035D0008C000020120000107FB5002125480091CA
:1035E00001910291224A0391C0E900210124046162
:1035F0008160017680F820101205C2620625521003
:10360000C5618262C16080F830404461FDF783FC8F
:103610000820CDE900040224694616480294FDF70B
:10362000E5FA0920CDE9000469461248FDF7DEFA03
:103630000A2000900320019069460E48FDF7D6FA53
:103640000B2000900420019069460A48FDF7CEFA4D
:103650000C2000900520019069460648FDF7C6FA47
:103660000F20CDE9000569460248FDF7BFFA7FBD8E
:1036700000210140D40000207FB5002412480094AE
:10368000019402940F490394C0E90014846004611A
:10369000047680F82040C904C1620125C5614FF05D
:1036A0006061C460816280F830404561FDF733FCA1
:1036B0000D20CDE90005694602940348FDF796FA0E
:1036C0007FBD0000002201401C0100200A4809497A
:1036D0004FF4803201600821416000218160C0E91F
:1036E00003124161017641768176C1760177417797
:1036F000FEF77BB8006400406401002070B586B01E
:1037000014216846FCF7B2FD22480024016841F00C
:1037100004010160016801F004010591016841F0B4
:1037200080010160016801F080010591016841F0AC
:1037300001010160016801F001010591016841F09A
:10374000020101600068144E00F002004FF4405581
:103750000590002229463046FEF7FDFB012000952A
:10376000CDE90104694630460394FEF71DFB4FF492
:103770007040CDE90004694608480294FEF714FB46
:10378000C020CDE90004694630460294FEF70CFBE8
:1037900006B070BD3038024000080240000402400C
:1037A00010B586B00024124800940194029403944A
:1037B00004944FF08041059401604FF4C851C0E972
:1037C00001144FF47A71C0E903148461FFF79CF887
:1037D0004FF48050009069460548FFF78BF9202090
:1037E000CDE9040404A90248FFF76DF806B010BD46
:1037F0008C01002010B586B0002413480094019479
:103800000294039404940F49059401604FF42071CD
:10381000C0E901144FF47A71C0E903148461FFF721
:1038200073F84FF48050009069460748FFF762F93B
:103830002020CDE9040404A90348FFF744F806B0AA
:1038400010BD000000040040CC01002010B586B07F
:1038500000241348009401940294039404940F49A3
:10386000059401608021C0E901144FF47A71C0E928
:10387000031444618461FFF747F84FF480500090CF
:1038800069460748FFF736F92020CDE9040404A96A
:103890000348FFF718F806B010BD0000000401400F
:1038A0008C020020FEE770477047000038B50446E0
:1038B0001248134B0068B0FBF3F04FF47A7358438F
:1038C00000906068B0F5827F0DD10B460092002217
:1038D0008021204600F016F870B1606D40F02000A5
:1038E0006065032038BD009830B1401E009020680C
:1038F0008068C0430006F6D5002038BD7000002067
:1039000000366E012DE9F0411D4617460E4604466D
:10391000DDF8188008E0681C06D0FEF721FBA0EB5C
:103920000800A8420BD255B12068806836EA000032
:1039300030D00020B842EED10020BDE8F0812068F0
:10394000416821F0E00141606068B0F5827F0BD1F1
:10395000A068B0F5004F02D0B0F5806F04D12068A8
:10396000016821F040010160A06AB0F5005F09D153
:103970002068016821F4005101602068016841F469
:1039800000510160012084F85100002084F85000AB
:103990000320D2E70120CDE77047FEF7E7BA000029
:1039A00030B593B034216846FCF760FC14210DA8B3
:1039B000FCF75CFC1A480025016841F08051016069
:1039C000006800F0805012901648016821F44041D0
:1039D00041F4004101600068022400F4404012906C
:1039E00001200090000401908001CDE906400420F0
:1039F00008908020CDE909040B9468460C94FEF7EA
:103A000045FC0DA90F2081E831004FF4A050109023
:103A1000E002119004210DA8FEF756FB13B030BD53
:103A200040380240007000401048016841F47001C5
:103A300001600F48016841F0010101600C4A00215A
:103A40000832116002680B4B1A400260031D0A4ADB
:103A50001A60026822F48022026005480C3001607E
:103A600002495806803908607047000088ED00E080
:103A700000380240FFFFF6FE103000240148FFF737
:103A8000A5B80000CC0200200148FFF79FB8000055
:103A90004C0300200148FFF799B800000C030020F8
:103AA0000148FFF793B800008C0100200148FFF7A0
:103AB0008DB80000CC0100200148FFF787B8000056
:103AC0000C0200200148FFF781B800004C020020E2
:103AD000F0B50268254C264D264E274F274B4FF058
:103AE000804CA04209D0604507D0A84205D0B04222
:103AF00003D0B84201D0984204D122F0700E4A6837
:103B000042EA0E02A0421BD0604519D0A84217D04D
:103B1000B04215D0B84213D0984211D0184DA842E7
:103B20000ED0184DA8420BD0174DA84208D0174D03
:103B3000A84205D0164DA84202D0164DA84203D186
:103B400022F44075CA682A434D6922F080022A4354
:103B500002608A68C2620A688262A04201D098420A
:103B600001D10969016301214161F0BD00000140FB
:103B70000004004000080040000C00400004014028
:103B8000004001400044014000480140001800404E
:103B9000001C00400020004010B5846842EA032267
:103BA00024F47F440A432243826010BD826822F0DD
:103BB00070020A4342F007018160704710B5036A42
:103BC000046A24F001040462846924F0F00444EAE5
:103BD000021423F00A020A438461026210BD10B588
:103BE000036A23F0100303628369046A23F47043B9
:103BF00043EA023224F0A00343EA01118261016228
:103C000010BDFEE703B401984100009850EAC120BE
:103C100018BF04204A0D18BF40F0010040F2FF72A7
:103C2000B2EB515F08BF40F00200012808BF052039
:103C300002B070470907090E002804DB00F1E020FC
:103C400080F80014704700F00F0000F1E02080F8C9
:103C5000141D70470000000070B5D94B00242DEDF5
:103C6000020B2DED108BDDE91010984205DA20F0E3
:103C700000429A4201D809D141B19DED100BBDEC33
:103C8000108B02B0BDE8704001F086B8B0F5801F1F
:103C900026DA11430BD0002813DA012001F0D0F806
:103CA000BDEC108B02B0BDE8704001F089B8022075
:103CB00001F0C6F801F058F851EC100B81F000410A
:103CC0009EE06FF035049FEDC00B53EC102B9DED83
:103CD000100B51EC100BFCF77BFBCDE910010846F3
:103CE00004EB2051C0F31304B948A1F2FF31204482
:103CF00000F4801080F07F6282F04052224301EB9A
:103D000020559FEDB50B119253EC102B9DED100B30
:103D100051EC100BFCF756FB41EC180BA01CC0F348
:103D200013009FEDAFDB9FEDB0EBB14E7E44032857
:103D30006CD296ED000B51EC180B53EC102BFCF7EA
:103D400049FC1DD1002D01BF96ED000BBDEC108B81
:103D500002B070BD2846FCF765FD41EC180B53EC32
:103D60001D2BFCF735FB41EC190B53EC1E2B51ECD2
:103D7000180BFCF72DFB53EC192BFCF782FA3FE0F4
:103D80009FED9D0B51EC180B53EC102BFCF720FB17
:103D90009FED9B1B53EC112BFCF717FB41EC190B10
:103DA00053EC182B51EC180BFCF712FB53EC192BAE
:103DB000FCF70EFB41EC190B002D04BF53EC192B43
:103DC00051EC180B1AD02846FCF72CFD41EC1A0BCD
:103DD00053EC1D2BFCF7FCFA53EC192BFCF7F5FA0E
:103DE00053EC182BFCF7EEFA41EC180B53EC1E2B9E
:103DF00051EC1A0BFCF7ECFA53EC182BFCF7E2FA37
:103E0000BDEC108B02B041EC100B70BD9FED7E0B32
:103E100051EC180B53EC102BFCF733FA41EC100B60
:103E200051EC180B53EC102BFCF744FB41EC190B35
:103E30002846FCF7F7FC41EC1B0B53EC192B51EC1B
:103E4000190BFCF7C5FA41EC1A0B714853EC1A2B0D
:103E5000261851EC1A0BFCF7BBFA41EC1F0B6D480E
:103E6000C4F1510404F5D724B0EE4F0AF0EE6F0A06
:103E70000321784400F0FCFE53EC1F2B51EC100B97
:103E8000FCF7A6FA41EC1C0B6348B0EE4F0AF0EECB
:103E90006F0A0421784400F0EBFE53EC1A2B51EC2E
:103EA000100BFCF795FA344353EC1C2BFCF7E9F9A3
:103EB00041EC1C0B002C4CDD9FED510B51EC180B11
:103EC00053EC102BFCF784FA53EC182BFCF780FA18
:103ED00041EC1A0B55B353EC1D2B51EC1B0BFCF7AB
:103EE00077FA41EC1D0B53EC1C2B51EC1A0BFCF731
:103EF000C8F953EC192BFCF76BFA53EC1D2BFCF7AC
:103F0000C0F953EC1A2BFCF760FA53EC182BFCF7B2
:103F100059FA41EC180B53EC1E2B51EC1B0BFCF720
:103F200057FA53EC182BFCF74DFA69E753EC1C2BAE
:103F300051EC1A0BFCF7A5F953EC192BFCF748FAD6
:103F400053EC1A2BFCF741FA53EC182BFCF73DFA13
:103F500056E735B353EC1D2B51EC1B0BFCF738FA2D
:103F600041EC1A0B53EC1C2B51EC180BFCF72AFA02
:103F700053EC192BFCF72CFA53EC1A2BFCF722FA12
:103F800053EC182BFCF71EFA41EC180B53EC1E2BCC
:103F900051EC1B0BFCF71CFA53EC182BFCF712FA34
:103FA0002EE753EC1C2B51EC180BFCF70BFA53ECDF
:103FB000192BFCF70DFA53EC182BFCF706FA1FE748
:103FC0000000F07F000000000000000000005043EF
:103FD000645F090000000000000000000000F03FE6
:103FE000763C7935EF39EA3D0000E0FE422EE63FAF
:103FF0003026000000000000555555555555D53F59
:10400000000000000000E03F000000000000004051
:1040100086EBF9FF2A2400002024000000000000A5
:104020002DE9F04D2DED040B2DED0E8B96B0DDE955
:104030002550279CDDF890A025F0004624F000488C
:10404000BAF1000F14BF0121002101EB4502FC4928
:1040500053184A1093422AD3002814BF0123002387
:1040600003EB44030B44F7498B4220D358EA000189
:104070009FEDF59B76D0DFF8D8B35D4503D1BAF15B
:10408000000F05D188E0BAF1000F08BF002100D071
:10409000012101EB450111F5001F08D8002814BFCC
:1040A0000121002101EB440111F5001F0BD99DED09
:1040B000261B9DED240B16B0BDEC0E8B04B0BDE8A5
:1040C000F04D00F073BE0027002DBCBFE1498845CC
:1040D00021DAE1498845A8BF02271CDAC3451ADC6A
:1040E000DE4901EB2851142908DDC1F1340220FA20
:1040F00002F101FA02F282420DD108E058B9C1F191
:10410000140228FA02F101FA02F2424503D101F049
:104110000101C1F1020756EA0A0124D1002C22DA7A
:10412000002D18BF022F01D0012F0AD0022000F06D
:1041300087FE16B0BDEC0E8B04B0BDE8F04D00F06C
:1041400013BE022000F07CFE00F00EFE51EC100BBE
:1041500081F0004141EC100B16B0BDEC0E8B04B0A9
:10416000BDE8F08D18E09FEDBEAB9FEDBF8B002842
:1041700071D1B848804522D105F1804010F58010FA
:1041800008BFBAF1000F07D0B3450ADC002CA8BF66
:104190009DED260BE0DA0DE0B0EE490AF0EE690A7B
:1041A000DAE7002C06DA9DED260B51EC100B81F0BE
:1041B00000416FE0AE48784490ED000BCCE7D84565
:1041C0004DD1002C48DA2EB186423AD1BAF1000F17
:1041D00042D126E0BAF1000F13D0022000F030FEE9
:1041E00000F0FEFD8DED020B9DED240B8DED000B1F
:1041F00010EE900A039961F31E0003909DED020BEF
:10420000AAE78DED02AB9DED240B1AEE901A10EE8D
:10421000900A8DED000B61F31E0003909DED020BE3
:104220009AE78DED028B9DED240B18EE901A10EE9F
:10423000900A8DED000B61F31E0003909DED020BC3
:104240008AE709DA9DED240B51EC190B53EC102B86
:10425000FCF730F91EE020E09DED240B7CE7864260
:104260001BDAB4F1804F0DD0A4F10050B0F1FF5033
:1042700013D1002D11DB9DED240B51EC100B01F03F
:104280007DFB07E09DED240B53EC102B51EC100B44
:1042900000F0C2BC41EC100B5EE79DED240B51EC2D
:1042A000100B01F0E9F8BAF1000FCDE90E0142D18F
:1042B0009FED710B46B3A6F1E040B0F17F600CD0EA
:1042C0005E4538D1002D00DAA7B3022F0CBF0120C4
:1042D0004FF0FF30FCF7A6FADCE7002D01DD002CE3
:1042E0000DDA002D01DD002C1FDB002D16DA002C6D
:1042F00014DB012F08BF9FED620B3FF42DAFB0EE32
:104300004A0AF0EE6A0A27E7022F18BF002D0CD0E8
:10431000012F0AD1002DFFF61FAF06E0002DB8BF18
:10432000002C08DA012F3FF417AFB0EE480AF0EE88
:10433000680A11E71BE0012000EBE57050EA070175
:1043400015D0791EB0EE498AF0EE698A084308BF9D
:104350009FED4D8B4E480025804570DD4D494E4800
:10436000884514DDB0420DDB002C19DB2FE0012065
:1043700000F066FD16B0BDEC0E8B04B0BDE8F04D4C
:1043800000F01EBDB34502DC002C09DC1FE08642B4
:1043900002DA002C1BDA03E05E452BDD002C16DD73
:1043A000022000F04DFD00F01BFD8DED020B53ECE3
:1043B0001A2B51EC180BFCF70BF8CDE9000103990F
:1043C000019861F31E0003909DED020BC4E60220EC
:1043D00000F036FD00F014FD10EE901A18EE900A71
:1043E0008DED020B8DED008B61F31E0003909DEDB2
:1043F000020BB1E69DED0E0B53EC192B51EC100B9B
:10440000FBF7E0FF9FED260BCDE9080153EC102BE5
:104410009DED080B51EC100BFBF7DAFF9FED221B13
:1044200053EC112BFBF7D1FF9DED081B53EC112B27
:10443000FBF7CEFF9FED1E1B53EC112B3CE08CE0F5
:10444000FFFF1F00FFFF0F00000000000000F03F13
:104450000000F03F0000F07F0000404301FCFFFF40
:10446000000000000000F07F0000000000000000DD
:10447000A6210000000000000000000000000080F5
:10448000000000000000F0FF000000000000F0BF8E
:104490000000E0410000F043FFFFEF3F000000009C
:1044A000000000000000D03F555555555555D53FEB
:1044B000000000000000E03FFBF787FF9DED080BC8
:1044C00041EC1A0B53EC102B51EC100BFBF780FF57
:1044D00053EC1A2BFBF77CFF41EC1A0B9FEDFE0B04
:1044E00053EC102B9DED080B51EC100BFBF770FFFC
:1044F00041EC1B0B9FEDFA0B51EC1A0B53EC102BFC
:10450000FBF766FF41EC1A0B9FEDF70B53EC102BFA
:104510009DED080B51EC100BFBF75AFF53EC1A2BD7
:10452000FBF750FF41EC1A0B51EC1B0B53EC1A2B11
:10453000FBF7A7FE0690CDE906519DED060B53EC67
:104540001B2B51EC100BFBF73DFF53EC1A2BFBF729
:104550003CFF41EC100B00F0A1B90020B6F5801F24
:104560000EDA9FEDE30B53EC102B9DED0E0B51EC8F
:10457000100BFBF72DFFCDE90E016FF034000E4656
:1045800000EB2650A0F2FF37C6F31300DA4940F0E3
:104590007F6646F040568842D8BF002408DDD749E0
:1045A0008142C8BF012403DC0024A6F580167F1CCD
:1045B000D348784400EBC4000F9690ED00CB9DEDFE
:1045C0000E0B53EC1C2B51EC100BFBF7FBFE9DED7F
:1045D0000E0B41EC1B0B53EC1C2B51EC100BFBF79F
:1045E00050FE41EC100B51EC190B53EC102BFBF768
:1045F00061FF41EC1D0B51EC1B0B53EC1D2BFBF72A
:10460000E7FE41EC1A0BBF488DED10AB78441095D6
:1046100090ED000B4FF0005040EA660000EB844044
:104620008DED080B00F5002009909DED080B53EC73
:104630001C2B51EC100BFBF7C5FE9DED0E1B53EC34
:10464000112BFBF7C2FE41EC100B53EC102B9DED30
:10465000100B51EC100BFBF7BBFE9DED080B41EC72
:104660001C0B53EC102B9DED100B51EC100BFBF7BA
:10467000AFFE53EC1B2BFBF7A8FE53EC1C2BFBF7F8
:10468000A1FE53EC1D2BFBF7A3FE41EC1C0B53ECDE
:104690001A2B51EC1A0BFBF79BFE41EC1B0B9A48B3
:1046A0000621B0EE4B0AF0EE6B0A784400F0E0FA17
:1046B000B0EE401AF0EE601AB0EE41DAF0EE61DAD8
:1046C00053EC1B2B51EC1B0BFBF782FE53EC1D2B09
:1046D000FBF77EFE9DED100B41EC1B0B53EC1A2BF0
:1046E00051EC100BFBF7CDFD53EC1C2BFBF770FED0
:1046F00053EC1B2BFBF7C5FD9DED100B41EC1B0B89
:1047000053EC102B51EC100BFBF762FE41EC1D0B30
:104710009FED7FEB53EC1E2BFBF7B3FD53EC1B2BF4
:10472000FBF7AFFD0890CDE908519DED080B53EC68
:104730001E2B51EC100BFBF745FE53EC1D2BFBF72A
:1047400041FE53EC1B2BFBF740FE9DED080B41ECAB
:104750001D0B53EC102B9DED100B51EC100BFBF7C8
:1047600037FE41EC1B0B53EC1A2B51EC1D0BFBF7E6
:104770002FFE9DED080B41EC1A0B53EC102B51EC66
:104780001C0BFBF725FE53EC1A2BFBF77AFD41ECD3
:104790001A0B51EC1B0B53EC1A2BFBF772FD0C9010
:1047A000CDE90C519DED0C0B53EC1B2B51EC100B78
:1047B000FBF708FE53EC1A2BFBF707FE41EC1B0B33
:1047C0009FED550B53EC102B9DED0C0B51EC100B8A
:1047D000FBF7FEFD41EC1A0B9FED510B51EC1B0B4F
:1047E00053EC102BFBF7F4FD41EC1B0B9FED4E0B34
:1047F00053EC102B9DED0C0B51EC100BFBF7E8FD6F
:1048000053EC1B2BFBF73DFD41EC100B4848784463
:1048100000EBC40090ED001B51EC100B53EC112B7E
:10482000FBF72FFD41EC1B0B3846FBF7FBFFCDE9F7
:10483000080153EC1B2B51EC1A0BFBF722FD41EC4A
:10484000100B3C48784400EBC40090ED00CB51ECD9
:10485000100B53EC1C2BFBF714FD9DED081B53ECC8
:10486000112BFBF70EFD0690CDE906519DED080BCF
:1048700053EC102B9DED060B51EC100BFBF7A2FD3A
:1048800053EC1C2BFBF79EFD53EC1A2BFBF79AFD08
:1048900053EC1B2BFBF799FD41EC100B9DED261BF8
:1048A00053EC102B8DED001B00959DED260B51EC6C
:1048B000100BFBF78DFD9DED000B41EC1A0B53EC3B
:1048C000102B9DED260B51EC100BFBF77BFD9DEDA6
:1048D000061B53EC112B2FE0000000604715F73F3B
:1048E000FE822B654715F73F44DF5DF80BAE543E63
:1048F00000000000000040438E9803007AB60B00D1
:10490000221D0000501D00005A1C00000000000085
:104910000000000000000840000000E009C7EE3F72
:10492000FD033ADC09C7EE3FF5015B14E02F3EBE04
:10493000E61A0000A01A0000FBF74AFD53EC1A2B00
:10494000FBF79FFC9DED060B41EC1A0B53EC102B73
:104950009DED000B51EC100BFBF73AFDCDE90C017E
:104960009DED0C0B51EC1A0B53EC102BFBF789FC53
:10497000CDE902010C46AA498C422FDB611A08439B
:1049800018D19DED0C0B53EC102B9DED020B51EC4F
:10499000100BFBF717FD41EC1B0B9FEDA30B51EC2C
:1049A0001A0B53EC102BFBF76CFC53EC1B2BFBF797
:1049B00029FE2DD2022000F043FA00F011FA10EE89
:1049C000901A18EE900A8DED020B8DED008B61F3BD
:1049D0001E0003909DED020BFFF7BEBB944A24F02E
:1049E0000041914214D39349214408437FF4EFAC32
:1049F0009DED0C0B53EC102B9DED020B51EC100BAD
:104A0000FBF7E0FC53EC1A2BFBF7FCFD7FF6DFAC69
:104A100024F000408849894A002601EB2051824257
:104A20002BDA481C4FF4801121FA00F02044844A0C
:104A3000C0F30A517A44A1F2FF3192ED000B814A92
:104A40008DED080BCA4020EA0202C0F3130040F4C7
:104A50008010C1F1140120FA01F60992002CB8BFB0
:104A600076429DED080B53EC102B9DED0C0B51EC99
:104A7000100BFBF7A7FCCDE90C019DED0C0B51ECE5
:104A80001A0B53EC102BFBF7FCFB9FED6F0B089000
:104A9000CDE9085153EC102B9DED080B51EC100B98
:104AA000FBF796FC41EC1B0B9FED690B53EC102BB5
:104AB0009DED080B51EC100BFBF78AFC9DED0C0BE8
:104AC00041EC1C0B53EC102B9DED080B51EC100B23
:104AD000FBF778FC53EC1A2BFBF777FC9FED5E1B82
:104AE00053EC112BFBF774FC53EC1C2BFBF7C9FBAD
:104AF00041EC1A0B51EC1B0B53EC1A2BFBF7C1FBCF
:104B0000CDE902019DED020B53EC1B2B51EC100B78
:104B1000FBF758FC53EC1A2BFBF757FC9DED020BEF
:104B200041EC1A0B53EC102B51EC100BFBF750FC23
:104B3000CDE908014A489DED080B0521784400F0B5
:104B400097F89DED081B51EC100B53EC112BFBF764
:104B50003FFC9DED021B53EC112BFBF736FCCDE91E
:104B600006019DED020B53EC1A2B51EC100BFBF7D9
:104B70002FFC53EC1A2BFBF784FB9FED3B0B41EC16
:104B80001A0B53EC102B9DED060B51EC100BFBF7A1
:104B900019FC9DED060B41EC1B0B53EC102B9DED0E
:104BA000020B51EC100BFBF713FC53EC1B2BFBF728
:104BB00081FC53EC1A2BFBF705FC9DED021B53EC1B
:104BC000112BFBF7FFFB53EC192BFBF7FEFBCDE999
:104BD000020101EB065001150029C8BF039015DC46
:104BE0009DED020B324651EC100BFBF704FEFFF774
:104BF00009F8042808BF00F003F932469DED020BC6
:104C000051EC100BFBF7F7FDCDE902019DED020B16
:104C100051EC180B53EC102BFBF7DAFBFFF73ABB08
:104C20000000904000000000FE822B654715973C75
:104C300000CC904000346F3F01FCFFFF0000E03FDC
:104C400028190000FFFF0F0000000000432EE63F80
:104C5000396CA80C615C20BEEF39FAFE422EE63FAB
:104C6000F8170000000000000000000000000040F5
:104C700070B504462DED028B4D1E00EBC500B0EE65
:104C8000408AF0EE608A90ED000B35F0060017D0F8
:104C900053EC182B51EC100BFBF79AFB41EC100B6B
:104CA0006D1E04EBC50090ED001B51EC100B53EC96
:104CB000112BFBF7E6FA41EC100B35F00600E7D1BB
:104CC000022D36D0042D1CD0062D1CBFBDEC028B4E
:104CD00070BD53EC182B51EC100BFBF779FB94EDE6
:104CE0000A1B53EC112BFBF7CCFA53EC182BFBF7F8
:104CF0006FFB94ED081B53EC112BFBF7C2FA41EC50
:104D0000100B53EC182B51EC100BFBF761FB94EDDF
:104D1000061B53EC112BFBF7B4FA53EC182BFBF7E3
:104D200057FB94ED040B53EC102BFBF7AAFA41EC64
:104D3000100B53EC182B51EC100BFBF749FB94EDC7
:104D4000021B53EC112BFBF79CFA53EC182BFBF7CF
:104D50003FFB94ED001B53EC112BFBF792FABDECDB
:104D6000028B41EC100B70BD9FED070B10B553EC9F
:104D7000102B9FED070B51EC100BFBF79BFB41EC4D
:104D8000100B10BD0000000000000000000000003B
:104D9000000000000000F03F10B553EC102B51EC68
:104DA000100BFBF76EFA41EC100B10BD10B553EC75
:104DB000112B51EC100BFBF764FA41EC100B10BDFA
:104DC0009FED050B10B553EC102B51EC100BFBF7BE
:104DD00071FB41EC100B10BD000000000000000052
:104DE0009FED050B10B553EC102B51EC100BFBF79E
:104DF000EFFA41EC100B10BD000000000000007045
:104E00009FED050B10B553EC102B51EC100BFBF77D
:104E1000DFFA41EC100B10BD000000000000001094
:104E200002E008C8121F08C1002AFAD17047704773
:104E3000002001E001C1121F002AFBD170470000D1
:104E400001490860704700007C000020FEB5284C36
:104E5000284D4FF48170A08228600820A5F14406F7
:104E60002861308804F13C03010A8DF800108DF8A8
:104E7000010070886A46010A8DF802108DF803005F
:104E8000B088010A8DF804108DF80500F088010A39
:104E90008DF806108DF807002946A1F55370FCF730
:104EA00047FA1548E16BFCF72DFD0028F9D140F2D7
:104EB0000B10A08228600420286130890C4B010A65
:104EC0008DF808108DF8090070893C33010A8DF8BF
:104ED0000A108DF80B0002AA06490748FCF728FAC9
:104EE0000548E16BFCF70EFD0028F9D1FEBD00007E
:104EF00000000020B004002064010020F0B53F4C09
:104F00003F4E85B040F22D10A0820827A6F138054B
:104F100037613060288804F13C03010A8DF80810DD
:104F20008DF80900688802AA010A8DF80A108DF828
:104F30000B00A888010A8DF80C108DF80D00E88888
:104F4000010A8DF80E108DF80F003146A1F553704F
:104F5000FCF7EEF92B48E16BFCF7D4FC0028F9D103
:104F600040F23110A08237613060274E4FF400418B
:104F70003046FCF7EBFFA0734FF480413046FCF75E
:104F8000E5FFE0734FF400513046FCF7DFFF20747B
:104F9000B1143046FCF7DAFF1C4E607480213046B5
:104FA000FCF7D4FFA07440213046FCF7CFFFE0743B
:104FB0002989124B0A0A8DF800208DF80110A17B77
:104FC0008DF80210E17B8DF80310217C8DF8041020
:104FD000617C8DF80510A17C8DF806108DF8070016
:104FE0003C336A4606490748FCF7A2F90548E16BDD
:104FF000FCF788FC0028F9D105B0F0BD00000020C6
:10500000B0040020640100200004024000080240B7
:105010001CB5002000900F4C01900F4840F29111F8
:10502000A182016002210161608F04F13C03010A49
:105030008DF8001008498DF801006A46A1F55370FB
:10504000FCF776F90548E16BFCF75CFC0028F9D128
:105050001CBD000000000020B004002064010020FE
:105060002DE9F043744D87B0CC20744EE882E121E5
:1050700029834FF00808A6F59274C6F810803060B6
:10508000E08B0027010A8DF800108DF80100208CBC
:10509000B946010A8DF802108DF80300608C05F105
:1050A0003C03010A8DF804108DF80500A08C6A46B7
:1050B000010A8DF806108DF807003146A1F55370EE
:1050C000FCF736F95E48E96BFCF71CFC0028F9D1C7
:1050D000E88A594B401C80B2E8823060C7EBC700B9
:1050E00004EB40173C33F88C02AA010A8DF8081033
:1050F0008DF80900388D010A8DF80A108DF80B0023
:10510000788D010A8DF80C108DF80D00B88D010A0C
:105110008DF80E108DF80F0048494948FCF708F942
:105120004748E96BFCF7EEFB0028F9D1E88A424BCF
:10513000401C80B2E8823060F88D3C33010A8DF863
:1051400010108DF81100388E04AA010A8DF8121083
:105150008DF81300788E010A8DF814108DF8150063
:10516000B88E010A8DF816108DF8170033493448AF
:10517000FCF7DEF83248E96BFCF7C4FB0028F9D1F4
:10518000E88A2D4B401CE882288BC6F810803060DE
:10519000B4F848000027010A8DF800108DF80100CE
:1051A000B4F84A00C846010A8DF802108DF80300D1
:1051B000B4F84C003C33010A8DF804108DF805005A
:1051C000B4F84E006A46010A8DF806108DF8070003
:1051D0001A491B48FCF7ACF81948E96BFCF792FB3D
:1051E0000028F9D1288B144B401C80B228833060F2
:1051F000C7EBC70004EB4010CDF80880CDF80C8059
:10520000B0F850003C33010A8DF808108DF8090001
:1052100002AA0A490A48FCF78BF80948E96BFCF72F
:1052200071FB0028F9D1288B401C80B228833060A4
:1052300007B0BDE8F083000000000020B0040020AB
:105240006401002008B501788DF8001040788DF8D1
:1052500001006946022000F027FB010A8DF80210C8
:105260008DF8030000F010F86946042000F048FBB8
:1052700000F002F808BD0000012251030148FCF7CC
:105280006ABE00000008024000224FF400510148AD
:10529000FCF761BE000802402DE9F0470020634A98
:1052A000C0EBC0012DED048B044602EB41189FEDCD
:1052B000609B02F5AC79604D00EB4001824609EB42
:1052C0000116286CFBF772F908EB440741EC180B48
:1052D000F88BFBF75EF953EC192BFBF779F853ECDD
:1052E000182BFBF78FF914D3686CFBF75FF941ECCF
:1052F000180BF88BFBF74DF9B0EE491AF0EE691A6E
:1053000053EC112BFBF764F853EC182BFBF762F905
:1053100005D256F82400401C46F8240001E046F867
:1053200024A0641C0C2CCCDBA88BD5ED140A00EE59
:10533000100A424EB8EE400AF4EEC00AF1EE10FA3E
:1053400019DD002101EB8102084601EB410106EB6A
:10535000820209EB011100BF51F820305B1C41F8BB
:105360002030052804DA52F820305B1C42F8203047
:10537000401C0C28F0DB00F047FB002004462F49BE
:1053800000EB80008C39B04601EBC00706EB8006CD
:10539000688BFBF7FEF841EC100B07EBC40090EDB7
:1053A000001B51EC100B53EC112BFBF713F905D23A
:1053B00056F82400401C46F8240001E046F824A0DA
:1053C000641C052CE4DB0121002329701A46A8780F
:1053D00003EB430309EB031353F82260864200DD1D
:1053E0000021521C0C2AF7DB00231A4603EB83032F
:1053F000297008EB830300BF53F82260B6EB400F1F
:1054000000DD0021521C052AF6DB2970A96C00EB97
:105410008000884203DBE96CB1EB400F01DD85F8C9
:1054200000A0BDEC048BBDE8F08700008C030020D9
:105430002D431CEBE2361A3F00000020140500202B
:10544000002210B50B4B02EB420103EB0113094C98
:105450001046114602EB8202303404EB820200BF98
:1054600043F82010052801DA42F82010401C0C28CF
:10547000F6DB10BDE404002082B0CDE9000121F08C
:10548000004001909DED000B02B051EC100B7047F5
:1054900010B5002821D0114B0022001F196803E02D
:1054A000814203D80A4649680029F9D152B11368EC
:1054B000841A9C4204D1006818441060104602E02F
:1054C000506000E0186039B102680B1A934203D1B2
:1054D0000B681A4402604968416010BD74000020E6
:1054E0002DED028B84B0FCF749FDFEF759FAFEF76B
:1054F00005F9AC480025016841F4800101600068AD
:105500002A4600F48000009029463820FCF798FDD8
:105510003820FCF787FD002211463A20FCF790FD69
:105520003A20FCF77FFDFEF70FF8FEF7CFF8FEF705
:1055300053F8FEF735F9FEF75DF9FEF79DF8FEF733
:1055400085F99A4800950195029540F2E244039549
:10555000C0E90254056194494FF4A0668561C0E931
:105560000016FDF7D1F94FF48050009069468F483E
:10557000FDF7C0FA8D488E4940304FF47A7702C06B
:105580008021A2C040F81059856188484030FDF75D
:10559000BBF9864887498030C0E9025405618561BE
:1055A000C0E90016FDF7B0F980480095C0380195B4
:1055B000C0E9025480494FF461768561C0E9001664
:1055C000FDF7A2F9794800956946C0380195FDF7C5
:1055D0007AF97648009580380195C0E902547749F8
:1055E0008561C0E90016FDF78FF97048009569469E
:1055F00080380195FDF767F97148724C8560A18A82
:1056000001600821C0E90351FBF776FA6E48FCF708
:105610000FFA02216C48FBF779FEFFF711FFFDF747
:1056200049FC69482830FDF73FFA67486830FDF7C4
:105630003BFA5E484038FDF725FA6348A830FDF78D
:1056400033FA5A484030FDF72FFA5D4905223839C0
:10565000A1F57B70FBF746FD594906224439A1F5B7
:105660006670FBF73FFD58484838FBF7D3FDFCF761
:1056700077FCB9464D4FE08317F1C007FCF770FC8B
:105680002084608D411C6185FF2800D96585E08CF0
:10569000401CE084FCF764FCE18B401A484505D9C6
:1056A000E08C2085E584FCF75BFCE083607A40B108
:1056B000012000F07AFC002211460120FDF7F8FBE2
:1056C0006572A07A08B3012000F06FFC374A01210F
:1056D000C0320020FDF73FFCDFF8E4809FED3B8BFC
:1056E0006071002608F1780807EB4600C08BFAF7D6
:1056F00050FF53EC182BFAF76BFEFAF79BFF48F8B4
:105700002600761C0C2EEFDBA572E07A38B1012062
:1057100000F04BFC00210120FDF7C8FBE572207B67
:10572000E0B1012000F041FC204A0121C0320020FC
:10573000FDF70FFCA07122490020A83107EB4002C1
:10574000B2F8482000EE102A01EB8002401CB8EEAF
:10575000400A052882ED000AF0DB2573607B20B14A
:10576000FFF79AFD00F042F96573207A10B1FFF758
:105770006DFB2572E07920B1FFF772FCFFF7BEFBED
:10578000E5716078012805D1FCF78CFC4FF4FA70C4
:10579000FCF7F8FAFCF7E4FB6084218C401AA08443
:1057A0006CE700003038024000400140CC0200208D
:1057B0000044014000480140001000400014004037
:1057C000B004002000000020640100202D431CEBE9
:1057D000E2361A3FF0B50B30154D20F007010024DA
:1057E000144A0FE003688B420BD38B4205D95E1A33
:1057F00043184768C3E9006700E04368136002C0CC
:1058000004E0021D10680028ECD12046002802D1D7
:10581000286808B10020F0BD064A07481060074A12
:10582000121A22F00702C0E9002401202860D7E7FD
:1058300078000020740000208C06002088080020DA
:105840002DE9F0430F460026C106DDF81C900C0E32
:10585000354607EB470C02EB0408115D98F8018010
:10586000A41C01EB08210CEB050803EB48086D1C98
:10587000EDB228F8061CE4B2032DECD31119098807
:105880004CBA02EBC001062000F00EF809EB07014C
:10589000844202D00126304600E0002001F8010CCD
:1058A0003046BDE8F083000030B5102300220A4DD9
:1058B0000AE08C5C521C84EAD314E4B2D2B235F80C
:1058C000144084EA03239BB28242F2D34FF6FF7066
:1058D00000EA430030BD00009A6000081CB54FF09C
:1058E000FF300090012301AAFF210448FCF7E4FEE9
:1058F00008B1FF201CBD9DF804001CBD2C06002033
:105900002DE9FC4100240E460546671E08E03119CA
:10591000012301AA04480097FCF7CEFE641CE4B200
:10592000AC42F4D3BDE8FC812C0600202DE9FC47F5
:1059300000241E4691460F468046651E0AE000BFC1
:1059400008EB0401012301AA0B480095FCF7B4FE03
:10595000641CE4B2BC42F3D3002409E009EB040266
:105960000123FF2104480095FCF7A6FE641CE4B265
:10597000B442F3D3BDE8FC872C06002000B52DED22
:10598000048B83B041EC190BFAF770FF41EC180B54
:1059900018EE100A18EE901A8DED008B002818BF33
:1059A0000120084320F00040C0F17F6000F1E0409A
:1059B000C00F14D019EE101A19EE900A8DED009B4D
:1059C000002918BF0121084320F00040C0F17F608A
:1059D00000F1E040C00F04BF0120FFF731FA51ECA5
:1059E000180B03B0BDEC048B00BD000004484FF45D
:1059F00080510278034802B10122FCF7ACBA0000E2
:105A0000000000200008024030B52DED108B85B05D
:105A1000FE4D35F8480FFAF7BCFD9FEDFDCB53EC7A
:105A20001C2BFAF7D5FC41EC190BF84C53EC192B55
:105A3000FC349FEDF90B51EC100BFAF7C3FC41EC71
:105A40001A0B9FEDF78B51EC190B53EC182BFAF74F
:105A5000BFFC53EC1A2BFAF72DFD41EC100B53EC65
:105A6000182B84ED000BFAF725FD41EC100BFEF727
:105A7000F3F89FEDED1BFEF7D3FA9FEDEDAB51EC84
:105A8000100B53EC1A2BFAF7A3FC94ED000B41EC2E
:105A90001B0B53EC182B51EC100BFAF70BFD41ECE0
:105AA000100BFEF7D9F89FEDE41BFEF7B9FA9FED56
:105AB000E4FB51EC100B53EC1F2BFAF789FC94ED2F
:105AC000000B41EC190B53EC182B51EC100BFAF7AF
:105AD000F1FC41EC100BFEF7BFF89FEDDB1B51EC26
:105AE000100B53EC112BFAF773FC9FEDD91B53EC01
:105AF000112BFAF7C6FB53EC192BFAF7C2FB53EC48
:105B00001B2BFAF7BEFB41EC100B53EC102B9FED57
:105B1000D2DB51EC1D0BFAF7CDFC9FEDD19B53EC82
:105B2000192BFAF74FFCC4E900016888FAF731FD38
:105B300053EC1C2BFAF74CFC41EC1B0B53EC1B2BCE
:105B40009FEDB50B51EC100BFAF73CFC41EC1E0B32
:105B500053EC182B51EC1B0BFAF73AFC53EC1E2BB1
:105B6000FAF7A8FC41EC100B53EC182B84ED020B58
:105B7000FAF7A0FC41EC100BFEF76EF89FEDAA1BA4
:105B8000FEF74EFA9FEDAA1B51EC100B53EC112BB4
:105B9000FAF71EFC94ED020B41EC1E0B53EC182B94
:105BA00051EC100BFAF786FC41EC100BFEF754F8A1
:105BB0009FEDA11BFEF734FA9FEDA11B51EC100BDA
:105BC00053EC112BFAF704FC94ED020B41EC1B0B88
:105BD00053EC182B51EC100BFAF76CFC41EC100B4A
:105BE000FEF73AF89FED981B51EC100B53EC112B7C
:105BF000FAF7EEFB9FED961B53EC112BFAF741FBE6
:105C000053EC1B2BFAF73DFB53EC1E2BFAF739FB39
:105C100041EC100B51EC1D0B53EC102BFAF74AFC26
:105C200053EC192BFAF7CEFBC4E90201A888FAF766
:105C3000B0FC53EC1C2BFAF7CBFB41EC1B0B53ECE9
:105C40001B2B84ED04BB9FED740B51EC100BFAF78A
:105C5000B9FB41EC1C0B53EC182B51EC1B0BFAF766
:105C6000B7FB53EC1C2BFAF725FC41EC100B53EC63
:105C7000182B84ED040BFAF71DFC41EC100BFDF71B
:105C8000EBFF9FED691BFEF7CBF953EC1A2B51ECA0
:105C9000100BFAF79DFB94ED040B41EC1D0B53EC3C
:105CA000182B51EC100BFAF705FC41EC100BFDF72B
:105CB000D3FF9FED611BFEF7B3F953EC1F2B51ECA3
:105CC000100BFAF785FB94ED040B41EC1E0B53EC23
:105CD000182B51EC100BFAF7EDFB41EC100BFDF714
:105CE000BBFF9FED59BB51EC100B53EC1B2BFAF78C
:105CF0006FFB9FED57CB53EC1C2BFAF7C2FA53EC1A
:105D00001E2BFAF7BEFA53EC1D2BFAF7BAFA41EC48
:105D1000100B53EC102B9FED50DB51EC1D0BFAF7E1
:105D2000C9FB53EC192BFAF74DFB384DC4E90401BC
:105D300035F84E0FFAF72DFC9FED351B53EC112B68
:105D4000FAF746FB41EC1E0B9FED330B53EC1E2B79
:105D500051EC100BFAF736FB41EC100B53EC182BFF
:105D60008DED000B51EC1E0BFAF732FB9DED000B95
:105D700053EC102BFAF79EFB41EC100B53EC182B55
:105D800084ED060BFAF796FB41EC100BFDF764FF70
:105D90009FED251BFEF744F953EC1A2B51EC100B29
:105DA000FAF716FB41EC100B53EC182B8DED000BA2
:105DB00094ED060B51EC100BFAF77CFB41EC100B49
:105DC000FDF74AFF9FED1C1BFEF72AF953EC1F2B32
:105DD00051EC100BFAF7FCFA94ED060B41EC1E0B9C
:105DE00053EC182B51EC100BFAF764FB41EC100B41
:105DF000FDF732FF53EC1B2B51EC100BFAF7E8FACE
:105E000053EC1C2BFAF73DFA2EE000008C03002027
:105E1000FA7E6ABC7493583F9A99999999191540DA
:105E2000000000000088C34000000000000008409F
:105E3000727DBD6A6FFD703E0000000000000040F2
:105E4000B5EC843947DCC53ECB380243C0CF303F88
:105E500082DBB5DCE1796B3F000000000000F03F21
:105E6000666666666622714053EC1E2BFAF709FAE5
:105E70009DED000B53EC102BFAF703FA41EC100BDD
:105E800051EC1D0B53EC102BFAF714FB53EC192BB0
:105E9000FAF798FA41EC100B84ED060B8DED020B2E
:105EA0006888FAF776FB1FED261B53EC112BFAF7E7
:105EB0008FFA41EC1E0B1FED280B53EC1E2B51ECFF
:105EC000100BFAF77FFA41EC100B53EC182B8DED09
:105ED000000B51EC1E0BFAF77BFA9DED000B53EC17
:105EE000102BFAF7E7FAC4E908019DED020B53EC19
:105EF000182B51EC100BFAF7DDFA41EC100BFDF703
:105F0000ABFE1FED371BFEF78BF853EC1A2B51EC51
:105F1000100BFAF75DFA94ED080B41EC1A0B53ECF9
:105F2000182B51EC100BFAF7C5FA41EC100BFDF7EA
:105F300093FE1FED3F1BFEF773F853EC1F2B51EC44
:105F4000100BFAF745FA94ED080B41EC1E0B53ECDD
:105F5000182B51EC100BFAF7ADFA41EC100BFDF7D2
:105F60007BFE53EC1B2B51EC100BFAF731FA53EC80
:105F70001C2BFAF786F953EC1E2BFAF782F953EC37
:105F80001A2BFAF77EF941EC100B51EC1D0B53EC78
:105F9000102BFAF78FFA53EC192BFAF713FAC4E91E
:105FA000080105B0BDEC108B30BD70B5054600246E
:105FB00007E0FFF769F9FF20FFF790FCFFF75CF9B6
:105FC000641CAC42F5DB70BD70B50546002407E0EB
:105FD000FFF75AF90120FBF7D5FEFFF74DF9641CD6
:105FE000AC42F5DB70BD2DE9F0478046042000EBA4
:105FF000C800C0B217460C468146FFF7EBFB0646C9
:10600000207830706078707031460220FFF74CFCC9
:106010000146000AB070F17004241EE0A8F10105E9
:10602000002005EB450100EB4102401CBA5C3255F3
:10603000641CC0B2E4B20628F5D308EB480007EBB5
:1060400040010620891FFFF72FFC010A3155311945
:10605000A41C4870E4B205F0FF08B8F1000FDDD1D0
:10606000FFF712F931464846FFF74AFCFFF704F9FB
:106070003046BDE8F047FFF70BBA000610160006E1
:1060800010160000000000000000010203040607D3
:1060900008090000010101010100000099C5ABCE13
:1060A000320BCFD8561D6416FDD307F49E31AC3A9F
:1060B00035FFC82C51E963E2FA2797AD0E683C63BF
:1060C000A5A65875C1B0F3BB6A7E9059099C3B9751
:1060D000A2525F81C644F44F6D8A2E5BB79E8595B0
:1060E0001C50E18378464A4DD38829AFB06A82615B
:1060F0001BA4E6777FB24DB9D47CB9F620331238B1
:106100008BFD762EEFEBDDE04425BE0227C715CCD4
:106110008C0971DAE81FDA1443D1C5F35C366E3DA1
:10612000F7F80A2B93EEA1E53820C2075BC269C9D4
:10613000F00C0DDF941AA6113FD4525ECB9BF99060
:1061400060559D8604433648AF8D55AACC6FFE64DA
:1061500067A19A7203B731BCA879EBA8726D40664B
:10616000D9A32470BDB58FBE167BEC5C75994792A0
:10617000DE572384BA41884A118F7C05E5C0D7CB0E
:106180004E0EB3DD2A18181381D67BF1E234D03FCE
:1061900049FAB4292DEC1FE7862213A28A67B86C4E
:1061A00021A9DC7A45BF77B4EE7114568D93BF9860
:1061B000265DDB8E424B7040E985840F1DCA2FC1DE
:1061C000B6044BD7D212E01979DC83FB1A3E28358E
:1061D000B1F04C23D5E6E7ED7E283DF9A43C963797
:1061E0000FF2F2216BE459EFC02A3A0DA3C891C314
:1061F0000806F5D56C105E1BC7DEAA543391019AD0
:10620000985F658CFC49CE425787ADA03465066E19
:106210009FAB6278FBBDC9B65073D6514F947D9F3A
:10622000E45A1989804CB2472B82D1A548607A6B19
:10623000E3AE1E7D87B8B5B32C7641FCD839EA327F
:1062400073F78E2417E125EABC2F4608DFCDEDC693
:10625000740389D01015221EBBDBF80A61CF53C42A
:10626000CA0137D2AE179C1C05D9FFFE663B5430DD
:10627000CDF53026A9E39BE8022D6FA7F662C4692D
:106280005DACA07F39BA0BB192746853F196C39D8F
:106290005A58A78B3E4E0C45958000000000000028
:1062A00004FA97999999D93FAF788E1DC571CC3F63
:1062B0009FC678D0099AC33F935555555555E53F2C
:1062C000599322942449D23FDE03CB966446C73FBC
:1062D00044523EDF12F1C23F000000000000F03FD8
:1062E000000000000000F83F000000000000000077
:1062F0000000004003B8E23F000000000000000082
:1063000006D0CF43EBFD4C3E033333333333E33F0F
:10631000FFAB6FDBB66DDB3F4D268F515555D53F3B
:1063200001411DA96074D13F65DBC9934A86CD3F09
:10633000EF4E454A287ECA3F3E5555555555C53FF7
:1063400093BDBE166CC166BF2CDE25AF6A56113FE9
:10635000F16BD2C541BDBBBED0A4BE726937663EEB
:10636000000000000000000088630008000000201A
:1063700080000000204E0008086400088000002013
:10638000080C0000304E000801000A010100000066
:106390000000000000000000000000000000CC0031
:1063A000E100460090010000000000000000000035
:1063B00000000000000000000000000000000000DD
:1063C000000000000000000014AE8740333353404B
:1063D00000000000000000000000000000000000BD
:1063E00000000000000000000000000001000000AC
:1063F00010000000000000000024F4000000000075
:08640000000000000000000094
:04000005080001C529
:00000001FF
